:020000020000FC
:1002A0000A2A2A2A3E3E3E53656C656363696F6E77
:1002B00065206C6120616363696F6E2061207265E7
:1002C000616C697A61723C3C3C202A2A2A0A0A3114
:1002D0002D4D6F73747261722056616C6F7265730D
:1002E0002E2E2E0D0A20322D436F6E6669677572B1
:1002F00061722056616C6F7265732E2E2E0D0A335B
:100300002D4461746F732044656C2070726F796541
:1003100063746F2E2E2E20020A2A2A2A204D45446D
:100320004943494F4E4553202A2A2A0A3C20427508
:10033000737175652063616461206D6564696369CB
:100340006F6E20736567756E207375204C657472CF
:100350006120203E486F7261206465206C617320CB
:100360006D65646963696F6E65733A20542020542B
:10037000656D70657261747572612045787465721F
:10038000696F723A20550D0A2054656D706572616F
:1003900074757261204C6976696E672F436F6D6565
:1003A000646F722F436F63696E613A20562020207C
:1003B0002054656D706572617475726120446F724E
:1003C0006D69746F72696F3A2057200D0A204C7561
:1003D0007A20446F726D69746F72696F3A20205889
:1003E00020204C757A204578746572696F723A20C6
:1003F000205920204C757A204C6976696E672F430E
:100400006F63696E612F436F6D65646F723A202070
:100410005A200D0A09312D52656672657363617247
:1004200061722056616C6F7265732E2E2E20352DF1
:10043000564F4C56455220414C204D454E5520417B
:100440004E544552494F52200D0A56414C4F524589
:1004500053203E020A414456455254454E434941B9
:10046000210A20534920564120412043414D424911
:10047000415220414C474F2054454E474120454C66
:10048000204355494441444F204445204841434579
:10049000524C4F20444520464F524D4120434F4837
:1004A0004552454E54452C200D0A2054454E494591
:1004B0004E444F20454E204355454E544120515502
:1004C000453A204C412054454D50455241545552D7
:1004D00041204D494E494D41204120494E4752450A
:1004E0005341522045532030302043202059204C86
:1004F00041204D4158494D4120363420433B454E23
:10050000204355414E544F204C4F53204C55584F8B
:100510004D4554524F532C2053552050524543497A
:1005200053494F4E204553204445203130204C55EF
:100530005845532C20504F52204C4F2051554520A8
:10054000534F4C4F20534520434F4E464947555239
:10055000414E20444520313020454E204449455AE3
:100560002C0D0A00205349454E444F20454C20563F
:10057000414C4F52204D494E494D4F203031302093
:100580004C757873205920454C204D4158494D4FAA
:1005900020363430204C7578732C286573746F20A6
:1005A00062617361646F20656E206C61206E6F7292
:1005B0006D61204952414D2D4141444C204A203229
:1005C000302D303629200D0A0D0A2A2A2A204168AA
:1005D0006F72612073692C2073656C656363696F4A
:1005E0006E6520656C2076616C6F7220612063619E
:1005F0006D6269617220202A2A2A0D0A54656D7085
:10060000657261747572617320656E2047726164F2
:100610006F732043656E7469677261646F73200D38
:100620000A00412D54656D706572617475726120A8
:100630004578746572696F72204D696E696D6120CD
:100640000D0A422D54656D7065726174757261207A
:100650004578746572696F72204D6178696D6120AB
:100660000D0A432D54656D70657261747572612059
:100670004C6976696E672F436F6D65646F722F43A7
:100680006F63696E61204D696E696D610D0A442D5D
:1006900054656D7065726174757261204C6976691C
:1006A0006E672F436F6D65646F722F436F63696E62
:1006B00061204D6178696D610D0A452D54656D703D
:1006C00065726174757261204C6976696E672F433B
:1006D0006F6D65646F722F436F63696E612064652F
:1006E0007365616461200D0A462D486973746572F3
:1006F00069736973206465206C612074656D706531
:100700007261747572612064656C204C6976696EE3
:10071000672F436F6D65646F722F436F63696E61FE
:100720003A000D0A472D54656D70657261747572DB
:100730006120446F726D69746F72696F204D6178CA
:10074000696D61200D0A482D54656D706572617484
:1007500075726120446F726D69746F72696F204D9C
:10076000696E696D61200D0A492D54656D70657261
:10077000617475726120446F726D69746F72696F14
:1007800020446573656164610D0A4A2D486973747C
:10079000657269736973206465206C612074656D8E
:1007A00070657261747572612064656C20446F724B
:1007B0006D69746F72696F200D0A4C7563657320E3
:1007C000656E204C7578733A0D0A4B2D4C757A2066
:1007D0004578746572696F72204D696E696D61202C
:1007E0000D0A4D2D56616C6F7220646573656164EE
:1007F0006F206465206C6120496C756D696E616362
:10080000696F6E2064656C20646F726D69746F72BD
:10081000696F0D0A4C2D4869737465726973697349
:10082000206465206C61206C757A2064656C20649E
:100830006F726D69746F72696F000D0A4F2D56618A
:100840006C6F72206465736561646F206465206CF1
:100850006120496C756D696E6163696F6E206465B6
:100860006C204C6976696E672F436F6D65646F729B
:100870002F436F63696E61200D0A502D48697374B0
:10088000657269736973206465206C61206C757A88
:100890002064656C204C6976696E672F436F6D65C7
:1008A000646F722F436F63696E610D0A45737175D2
:1008B000656D6120686F726172696F3A0D0A512D22
:1008C000486F726120646520496E6963696F2064B6
:1008D000656C204469610D0A522D486F7261206475
:1008E000652046696E2064656C20446961200D0AAC
:1008F000532D436F6E6669677572617220486F721F
:10090000612041637475616C2F41637475616C691A
:100910007A61722052656C6F6A200D0A352D564F30
:100920004C56455220414C204D454E5520414E5489
:100930004552494F52200D0A56616C6F7265732003
:1009400041637475616C65733A2028536567756EF1
:100950002063616461206C6574726129200220202B
:1009600043616D626961646F212044657365612034
:1009700063616D6269617220616C676F206D617384
:100980003F0D0A352D4E4F2C20566F6C7665722028
:10099000416C206D656E75207072696E636970615F
:1009A0006C0D0A322D53692C20766F6C766572209F
:1009B000616C206D656E7520616E746572696F7211
:1009C000200D0A02496E677265736520656C206EA2
:1009D0007565766F2076616C6F723A090200094581
:1009E000786973746520756E6120636F6E666967E0
:1009F0007572616369F36E206E6F2076E16C6964D5
:100A0000612E204E4F20534520454A4543555441C1
:100A100052C1204E4144410909506F7220666176EF
:100A20006F722C20696E677265736520756E612028
:100A3000636F6E6669677572616369F36E2076E154
:100A40006C696461206F207265696E69636965090C
:100A500002000D0A0D0A0D0A20202020202020204F
:100A60002020202020202020202020202020202086
:100A70002020202020202020202020202020202076
:100A800020202020205F5F5F5F7C7C5F5F5F5F0DC9
:100A90000A00444F4D4F5449434120444520444FA0
:100AA0005320414D4249454E5445533A2020202081
:100AB00020202020202020202020202020202F2F18
:100AC0002F2F2F2F2F2F2F2F2F5C0D0A2045732014
:100AD000756E2070726F796563746F2C20656E205F
:100AE00071756520636F6E20736520636F6E74721D
:100AF0006F6C616E2020202F2F2F2F2F2F2F2F2F45
:100B00002F2F20205C0D0A002020202020206C7533
:100B10007A20792074656D706572617475726120D8
:100B2000646520646F7320616D6269656E746573BE
:100B30002C20207C202020205F202020207C2020B2
:100B40007C0D0A002020656C20646F726D69746FE3
:100B500072696F207920656C206C6976696E672FE9
:100B60002020202020202020202020202020207C29
:100B70005B5D207C207C205B5D7C5B5D7C0D0A00E6
:100B8000636F6D65646F722F636F63696E612020A0
:100B90002020202020202020202020202020202055
:100BA00020202020202020202020207C2020207C8D
:100BB000207C2020207C20207C0D0A000D0A0D0ABC
:100BC0000D0A20202020202020202020202020204E
:100BD0002020202020202020202020202020202015
:100BE0002020202E2A23232323232323232B2020CA
:100BF00020200D0A2020202020202020202020201E
:100C000020202020202020202020202020202020E4
:100C1000202020203D40402B2B2B2B2B2B2B2B2D12
:100C2000202020200D0A20202020202020202020ED
:100C300020202020202020202020202020202020B4
:100C4000202020202D25402A2E202020202020205A
:100C5000202020202020200D0A00202020202020DD
:100C60002020202020202020202020202020202084
:100C7000202020202020202D2A2A2D202020202046
:100C800020202020202020202020200D0A002020AD
:100C90002020202020202020202020202020202054
:100CA0002E2E2E2E2E2E2E2E2E2E2E2E2E2E202080
:100CB0002020202020202020202020202020200D47
:100CC0000A0020202020202020202020202020205A
:100CD000203A2A4040404040404040404040404050
:100CE0004040402A3A202020202020202020202080
:100CF0002020202020200D0A20202020202020201D
:100D000020202020202020254040404040404040DE
:100D1000404040404040404040402520202020208E
:100D200020202020202020202020484543484F20FC
:100D3000504F523A20464142524943494F20444184
:100D40005649442047414C4C4F20200D0A0020209A
:100D5000202020202020202020202020202A2A2A75
:100D60002A2A2A2A2A2A2A2A2A2A2A2A2A2A2A2AE3
:100D70002A20202020202020202020202020202069
:100D800020202020200D0A002020202020202020AC
:100D900020202020202B4040404040404040404008
:100DA0004040404040404040404040402B202020B8
:100DB000202020202020202020202041204D4F4492
:100DC0004F2044452054524142414A4F2046494E0B
:100DD000414C2050415241204C4120434154454414
:100DE00052413A0D0A0020202020202020202020DF
:100DF00020203D4040404040404040404040404036
:100E000040404040404040404040403D2020202065
:100E10002020202020202020202053495354454DBD
:100E20004153204449474954414C45532049562099
:100E3000200D0A0020202020202020202020203AE1
:100E400040404040404040404040404040404040A2
:100E5000404040404040404040403A202020202038
:100E600020202020202020200D0A202020202020AB
:100E7000202020202023404040404040404040402F
:100E80004040404040404040404040404040404062
:100E9000232020202020202020202020202020204F
:100EA0000D0A202020202020202020203A404040F1
:100EB0004040404040404040404040404040404032
:100EC0004040404040404040403A202020202020E8
:100ED0002020202020202050524F4645534F52457D
:100EE000533A204C49432E204A554C49414E204DFF
:100EF000494E4154454C200D0A002020202020203E
:100F0000202020203D404040404040404040404064
:100F100040404040404040404040404040404040D1
:100F2000403D090909202020494E472E2056454CB6
:100F3000415A5155455A204544554152444F0D0A96
:100F4000202020202020202020203D4040404040E4
:100F50004040404040404040404040404040404091
:100F6000404040404040402D202020202020202094
:100F70002020202020200D0A20202020202020209A
:100F800020202E40404040404040404040404040B3
:100F90004040404040404040404040404040402E63
:100FA00020202020202020202020202020200D0A6A
:100FB00020202020202020202020202B40404040A6
:100FC0004040404040404040404040404040404021
:100FD0004040404040402B20202020202020202046
:100FE000202020204349434C4F204C454354495630
:100FF0004F203230323320200D0A202020202020A4
:101000002020202020202A404040404040404040B6
:101010004040404040404040404040404040402AE6
:1010200020202020202020202020202020202020C0
:101030000D0A202020202020202020202020203DBC
:1010400040404040404040404040404040404040A0
:101050004040404040253D202020202020202020CE
:1010600020202020202020200D0A202020202020A9
:1010700020202020202020202E3D254040404040A0
:101080004040404040404040404040253D2E2020D0
:101090002020202020202020202020202020202050
:1010A0000D0A202020202020202020202020202069
:1010B00020202E2D3D2B2B2B2B202B2B2B2B2B2B8A
:1010C0003D2D2E20202020202020202020202020E8
:1010D00020202020202020200D0A0D0A0D0A0D0AB4
:1010E000090909352D20566F6C76657220416C20F8
:1010F0006D656E75207072696E636970616C090947
:101100000909090D0A02F2E0E0EA1591123041F0F6
:101110000091C00005FFFCCF1093C600F6CF0895E4
:101120000C9412100091C00007FFFCCF2091C60064
:10113000213369F1223369F1233369F1243369F1F1
:10114000253309F3213469F1223469F1233469F13B
:10115000243469F1253469F1263469F1273469F1C1
:10116000283469F1293469F12A3469F12B3469F1A1
:101170002D3469F12C3469F12F3469F1213579F17D
:10118000223579F1233579F1203539F1CBCF0C9423
:10119000F7080C9409090C94D90A0C9405090C94CD
:1011A00012100C94E80A0C940D0B0C94320B0C9456
:1011B000570B0C947C0B0C94A10B0C94C60B0C9449
:1011C000EB0B0C94100C0C94330C0C94560C0C94EC
:1011D000790C0C949C0C0C94BF0C0C94E20C0C94A9
:1011E000040D0C943B0D0C94720D0C949608F3E0D6
:1011F000E8E11591123039F00091C00005FFFCCFF5
:101200001093C600F6CF0C94C70D0C94BD0D0C9432
:10121000BE0DF4E0E4E50E940D091591123039F09D
:101220000091C00005FFFCCF1093C600F6CF41E44B
:101230000E94D20A0E948F0EF1E0EAE640814093BC
:10124000C6000E94D20AF1E0EBE640814093C6005E
:101250000E94D20A0E94810E42E40E94D20A0E9499
:101260008F0EF1E0EDE640814093C6000E94D20A65
:10127000F1E0EEE640814093C6000E94D20A0E944F
:10128000810E43E40E94D20A0E948F0EF1E0E0E753
:1012900040814093C6000E94D20AF1E0E1E740811C
:1012A0004093C6000E94D20A0E94880E44E40E9425
:1012B000D20A0E948F0EF1E0E4E740814093C6001D
:1012C0000E94D20AF1E0E5E740814093C6000E9407
:1012D000D20A0E94810E45E40E94D20A0E948F0E1B
:1012E000F1E0E8E740814093C6000E94D20AF1E0B5
:1012F000E9E740814093C6000E94D20A0E94810E15
:1013000046E40E94D20A0E948F0EF1E0ECE7408191
:101310004093C6000E94D20AF1E0EDE7408140937D
:10132000C6000E94D20A0E94810E47E40E94D20A9F
:101330000E948F0EF1E0E0E840814093C6000E94D9
:10134000D20AF1E0E1E840814093C6000E94D20A4F
:101350000E94880E48E40E94D20A0E948F0EF1E09B
:10136000E4E840814093C6000E94D20AF1E0E5E83B
:1013700040814093C6000E94D20A0E94810E49E437
:101380000E94D20A0E948F0EF1E0E8E8408140936B
:10139000C6000E94D20AF1E0EBE640814093C6000D
:1013A0000E94D20A0E94810E4AE40E94D20A0E9440
:1013B0008F0EF1E0EBE840814093C6000E94D20A14
:1013C000F1E0ECE840814093C6000E94D20A0E94FE
:1013D000810E4BE40E94D20A0E948F0EF1E0EEE8EB
:1013E00040814093C6000E94D20AF1E0EFE84081BC
:1013F0004093C6000E94D20A0E94930E0E94880E5B
:101400004DE40E94D20A0E948F0EF1E0E2E9408191
:101410004093C6000E94D20AF1E0E3E94081409384
:10142000C6000E94D20A0E94930E0E94810E4CE4D4
:101430000E94D20A0E948F0EF1E0E6E940814093BB
:10144000C6000E94D20AF1E0E7E940814093C6005D
:101450000E94D20A0E94930E0E94810E4FE40E94C5
:10146000D20A0E948F0EF1E0EAE940814093C60063
:101470000E94D20AF1E0EBE940814093C6000E944D
:10148000D20A0E94930E0E94810E40E50E94D20A69
:101490000E948F0EF1E0EEE940814093C6000E9469
:1014A000D20AF1E0EFE940814093C6000E94D20ADF
:1014B0000E94930E0E94810E41E50E94D20A0E9472
:1014C0008F0EF1E0E2EA40814093C6000E94D20A0A
:1014D000F1E0E3EA40814093C6000E94D20A4AE369
:1014E0000E94D20AF1E0E6EA40814093C6000E94E1
:1014F000D20AF1E0E7EA40814093C6000E94D20A96
:101500000E94810E0E94810E42E50E94D20A0E9432
:101510008F0EF1E0EAEA40814093C6000E94D20AB1
:10152000F1E0EBEA40814093C6000E94D20A4AE310
:101530000E94D20AF1E0ECEA40814093C6000E948A
:10154000D20AF1E0EDEA40814093C6000E94D20A3F
:101550000E94880E43E50E94D20A0E948F0EF1E09D
:10156000E0E040814093C6000E94D20AF1E0E1E051
:1015700040814093C6000E94D20A4AE30E94D20AE8
:10158000F1E0E3E040814093C6000E94D20AF1E01E
:10159000E4E040814093C6000E94D20A0E94810E7E
:1015A0000C9492080091C00005FFFCCF4093C60048
:1015B0000895FAE0E2E51591123041F00091C00083
:1015C00005FFFCCF1093C600F6CF08950C94960843
:1015D000F9E0E4EC00C01591123039F00091C00040
:1015E00005FFFCCF1093C600F6CF0091C00007FFA7
:1015F000FCCF5090C6005092C600F1E0EAE650825F
:101600000091C00007FFFCCF5090C6005092C6006A
:10161000F1E0EBE650820C94A90DF9E0E4EC00C097
:101620001591123039F00091C00005FFFCCF1093E6
:10163000C600F6CF0091C00007FFFCCF5090C60057
:101640005092C600F1E0EDE650820091C00007FF25
:10165000FCCF5090C6005092C600F1E0EEE65082FA
:101660000C94A90DF9E0E4EC00C01591123039F0AA
:101670000091C00005FFFCCF1093C600F6CF00918B
:10168000C00007FFFCCF5090C6005092C600F1E0AA
:10169000E0E750820091C00007FFFCCF5090C600E9
:1016A0005092C600F1E0E1E750820C94A90DF9E0F8
:1016B000E4EC00C01591123039F00091C00005FF34
:1016C000FCCF1093C600F6CF0091C00007FFFCCFFF
:1016D0005090C6005092C600F1E0E4E750820091BD
:1016E000C00007FFFCCF5090C6005092C600F1E04A
:1016F000E5E750820C94A90DF9E0E4EC00C01591E7
:10170000123039F00091C00005FFFCCF1093C600E5
:10171000F6CF0091C00007FFFCCF5090C60050925A
:10172000C600F1E0E8E750820091C00007FFFCCF5F
:101730005090C6005092C600F1E0E9E750820C9448
:10174000A90DF9E0E4EC00C01591123039F00091D8
:10175000C00005FFFCCF1093C600F6CF0091C0007B
:1017600007FFFCCF5090C6005092C600F1E0ECE7B6
:1017700050820091C00007FFFCCF5090C6005092ED
:10178000C600F1E0EDE750820C94A90DF9E0E4EC1D
:1017900000C01591123039F00091C00005FFFCCF58
:1017A0001093C600F6CF0091C00007FFFCCF509009
:1017B000C6005092C600F1E0E0E850820091C000FF
:1017C00007FFFCCF5090C6005092C600F1E0E1E860
:1017D00050820C94A90DF9E0E4EC00C01591123090
:1017E00039F00091C00005FFFCCF1093C600F6CF82
:1017F0000091C00007FFFCCF5090C6005092C60079
:10180000F1E0E4E850820091C00007FFFCCF509067
:10181000C6005092C600F1E0E5E850820C94A90D94
:10182000F9E0E4EC00C01591123039F00091C000ED
:1018300005FFFCCF1093C600F6CF0091C00007FF54
:10184000FCCF5090C6005092C60050928801009183
:10185000C00007FFFCCF5090C6005092C6005092C7
:1018600089010C94A90DF9E0E4EC00C01591123047
:1018700039F00091C00005FFFCCF1093C600F6CFF1
:101880000091C00007FFFCCF5090C6005092C600E8
:1018900050928B010091C00007FFFCCF5090C60012
:1018A0005092C60050928C010C94A90DF9E0E4EC22
:1018B00000C01591123039F00091C00005FFFCCF37
:1018C0001093C600F6CF0091C00007FFFCCF5090E8
:1018D000C6005092C60050928E010091C00007FFD2
:1018E000FCCF5090C6005092C60050928F010C94CD
:1018F000A90DF9E0E4EC00C01591123039F0009127
:10190000C00005FFFCCF1093C600F6CF0091C000C9
:1019100007FFFCCF5090C6005092C6005092920133
:101920000091C00007FFFCCF5090C6005092C60047
:10193000509293010C94A90DF9E0E4EC00C01591CC
:10194000123039F00091C00005FFFCCF1093C600A3
:10195000F6CF0091C00007FFFCCF5090C600509218
:10196000C600509296010091C00007FFFCCF509036
:10197000C6005092C600509297010C94A90DF9E050
:10198000E4EC00C01591123039F00091C00005FF61
:10199000FCCF1093C600F6CF0091C00007FFFCCF2C
:1019A0005090C6005092C60050929A010091C0001B
:1019B00007FFFCCF5090C6005092C60050929B018A
:1019C0000C949608F9E0E4EC00C01591123039F05F
:1019D0000091C00005FFFCCF1093C600F6CF009128
:1019E000C00007FFFCCF5090C6005092C600509236
:1019F0009E010091C00007FFFCCF5090C60050929E
:101A0000C600F3E050929F01F9E0E4EC00C01591AC
:101A1000123039F00091C00005FFFCCF1093C600D2
:101A2000F6CF0091C00007FFFCCF5090C600509247
:101A3000C6005092A2010091C00007FFFCCF509059
:101A4000C6005092C6005092A3010091C00007FF4B
:101A5000FCCF5090C6005092C6005092A601009153
:101A6000C00007FFFCCF5090C6005092C6005092B5
:101A7000A7010C94A90DF9E0E4EC00C01591123017
:101A800039F00091C00005FFFCCF1093C600F6CFDF
:101A90000091C00007FFFCCF5090C6005092C600D6
:101AA0005092AA010091C00007FFFCCF5090C600E1
:101AB0005092C6005092AB010091C00007FFFCCFCE
:101AC0005090C6005092C6005092AC010091C000E8
:101AD00007FFFCCF5090C6005092C6005092AD0157
:101AE0000C94A90DF9E0E4EC00C01591123039F026
:101AF0000091C00005FFFCCF1093C600F6CF009107
:101B0000C00007FFFCCF5090C6005092C600509214
:101B100000010091C00007FFFCCF5090C60050921A
:101B2000C600509201010091C00007FFFCCF509009
:101B3000C6005092C600509203010091C00007FFFA
:101B4000FCCF5090C6005092C600509204010C94F5
:101B5000A90DF9E0EEE500C01591123081F0009179
:101B6000C00005FFFCCF1093C600F6CF089500918A
:101B7000C00007FFFCCF0C949608D4CAD3CA0091CA
:101B8000C00007FFFCCF0C9496080C94920844E523
:101B90000E94D20A0E948F0EF1E0E0E04081409363
:101BA000C6000E94D20AF1E0E1E040814093C60005
:101BB0000E94D20A4AE30E94D20AF1E0E3E04081A7
:101BC0004093C6000E94D20AF1E0E4E040814093D5
:101BD000C6000E94D20A0E94810E0E94880E45E52E
:101BE0000E94D20A0E948F0EF1E0EAE04081409309
:101BF000C6000E94D20AF1E0EBE040814093C600AB
:101C00000E94D20A0E94810E0E94880E46E50E9420
:101C1000D20A0E948F0EF1E0ECE040814093C600B2
:101C20000E94D20AF1E0EDE040814093C6000E949C
:101C3000D20A0E94810E0E94880E47E50E94D20AB5
:101C40000E948F0EF1E0EEE040814093C6000E94BA
:101C5000D20AF1E0EFE040814093C6000E94D20A30
:101C60000E94810E0E94880E48E50E94D20A0E94BE
:101C70008F0EF1E0E2E140814093C6000E94D20A5B
:101C8000F1E0E3E140814093C6000E94D20A0E9445
:101C9000930E0E94810E0E94880E49E50E94D20A8E
:101CA0000E948F0EF1E0E4E140814093C6000E9463
:101CB000D20AF1E0E5E140814093C6000E94D20AD9
:101CC0000E94930E0E94810E0E94880E4AE50E9497
:101CD000D20A0E948F0EF1E0E0E140814093C600FD
:101CE0000E94D20AF1E0E1E140814093C6000E94E7
:101CF000D20A0E94930E0E94810E0C9496084CE327
:101D0000089540E20E94D20A40E20E94D20A089559
:101D10004DE00E94D20A4AE00E94D20A08954FE59F
:101D20000E94D20A089540E30E94D20A089508E072
:101D30000EBF0FEF0DBF0FEF0CE10093C10004E0E9
:101D40000093C20007E60093C40000E600937C0005
:101D500007E800937A000E94B50EF1E0E0E0EA9512
:101D600031E20E94550F7894CEC941E340936A0155
:101D700042E3F1E0EBE6408343E3F1E0EDE640834C
:101D800048E3F1E0EEE6408341E3F1E0E0E7408341
:101D900048E3F1E0E1E7408343E3F1E0E4E7408337
:101DA00048E3F1E0E5E7408341E3F1E0E8E7408321
:101DB00048E3F1E0E9E7408343E3F1E0ECE7408307
:101DC00048E3F1E0EDE7408341E3F1E0E0E8408300
:101DD00048E3F1E0E1E8408343E3F1E0E4E84083F5
:101DE00048E3F1E0E5E8408341E3F1E0E8E84083DF
:101DF00048E3F1E0E9E8408343E3F1E0EBE84083C6
:101E000048E3F1E0ECE8408341E3F1E0EEE84083B1
:101E100048E3F1E0EFE8408343E3F1E0EBE840839F
:101E200048E3F1E0ECE8408341E3F1E0E2E940839C
:101E300048E3F1E0E3E9408341E3F1E0E6E9408390
:101E400048E3F1E0E7E9408341E3F1E0EAE9408378
:101E500048E3F1E0EBE9408341E3F1E0EEE9408360
:101E600048E3F1E0EFE9408341E3F1E0E2EA408357
:101E700048E3F1E0E3EA408341E3F1E0E6EA40834E
:101E800041E3F1E0E7EA408341E3F1E0EAEA40833D
:101E900048E3F1E0EBEA408341E3F1E0ECEA408320
:101EA00041E3F1E0EDEA40830895E395303021F01D
:101EB00040E340833A95F9CF08950C94600F18954C
:101EC00056E40C94630F5F92CF920F931F932F935E
:101ED0003F934F93EF93FF931FB71F93563401F037
:101EE0000C947D0F1F911FBFFF91EF914F913F9178
:101EF0002F910F91CF905F901895F1E0E9E000816C
:101F0000039500830A3011F00C94720F00E00083F7
:101F1000F1E0E8E0008103950083053011F00C94B6
:101F2000720F00E00083F1E0E7E00081093321F067
:101F3000039500830C94720F00E30083F1E0E6E068
:101F40000081063321F0039500830C94720F00E3A7
:101F50000083F1E0E4E00081093321F00395008380
:101F60000C94720F00E30083F1E0E3E0008106339C
:101F700021F0008303950C94720F00E3F1E0E1E09F
:101F80000081013321F0039500830C94720FF1E07E
:101F9000E0E02081223321F0239520830C94720FFE
:101FA000043311F00C94720FF1E0E0E000E30083E1
:101FB0000C94720F00E410917A00102B10937A00A9
:101FC000089510917A0014FF0C94E10F00E1109134
:101FD0007A00102B10937A0008950E9410100E942E
:101FE000E10F209178003091790070E060E080E0AE
:101FF0000B2D0E940010A0E37A0F6A0F8A0F082FA2
:10200000043618F083950456FBCF0A3018F0639518
:102010000A50FBCF013018F073950150FBCF0895A3
:102020000C94DA0F5F92CF920F931F932F933F93ED
:102030004F93EF93FF931FB71F931F911FBFFF9104
:10204000EF914F913F912F910F91CF905F900C9412
:022050009208F4
:100000000C94970E0C945D0F0C945F0F0C945F0F83
:100010000C945F0F0C945F0F0C945F0F0C945F0FA8
:100020000C945F0F0C945F0F0C945F0F0C945F0F98
:100030000C945F0F0C945F0F0C945F0F0C945F0F88
:100040000C945F0F0C945F0F0C945F0F0C945F0F78
:100050000C945F0F0C945F0F0C945F0F0C945F0F68
:080060000C945F0F0C945F0F7C
:00000001FF
