:020000020000FC
:100000000C94AF100C9484110C9480110C948411F6
:100010000C9481110C9481110C9481110C94811118
:100020000C9481110C9481110C9481110C94811108
:100030000C9481110C9481110C9481110C948111F8
:100040000C9481110C9481110C9481110C948111E8
:100050000C9481110C9481110C9481110C948111D8
:080060000C9482110C94831131
:1002A0000A2A2A2A3E3E3E53656C656363696F6E77
:1002B00065206C6120616363696F6E2061207265E7
:1002C000616C697A61723C3C3C202A2A2A0A0A3114
:1002D0002D4D6F73747261722056616C6F7265730D
:1002E0002E2E2E0D0A20322D436F6E6669677572B1
:1002F00061722056616C6F7265732E2E2E0D0A335B
:100300002D4461746F732044656C2070726F796541
:1003100063746F2E2E2E20020A2A2A2A204D45446D
:100320004943494F4E4553202A2A2A0A3C20427508
:10033000737175652063616461206D6564696369CB
:100340006F6E20736567756E207375204C657472CF
:100350006120203E486F7261206465206C617320CB
:100360006D65646963696F6E65733A20542020542B
:10037000656D70657261747572612045787465721F
:10038000696F723A20550D0A2054656D706572616F
:1003900074757261204C6976696E672F436F6D6565
:1003A000646F722F436F63696E613A20562020207C
:1003B0002054656D706572617475726120446F724E
:1003C0006D69746F72696F3A2057200D0A204C7561
:1003D0007A20446F726D69746F72696F3A20205889
:1003E00020204C757A204578746572696F723A20C6
:1003F000205920204C757A204C6976696E672F430E
:100400006F63696E612F436F6D65646F723A202070
:100410005A200D0A09312D52656672657363617247
:1004200061722056616C6F7265732E2E2E20352DF1
:10043000564F4C56455220414C204D454E5520417B
:100440004E544552494F52200D0A56414C4F524589
:1004500053203E020A414456455254454E434941B9
:10046000210A20534920564120412043414D424911
:10047000415220414C474F2054454E474120454C66
:10048000204355494441444F204445204841434579
:10049000524C4F20444520464F524D4120434F4837
:1004A0004552454E54452C200D0A2054454E494591
:1004B0004E444F20454E204355454E544120515502
:1004C000453A204C412054454D50455241545552D7
:1004D00041204D494E494D41204120494E4752450A
:1004E0005341522045532030302043202059204C86
:1004F00041204D4158494D4120363420433B454E23
:10050000204355414E544F204C4F53204C55584F8B
:100510004D4554524F532C2053552050524543497A
:1005200053494F4E204553204445203130204C55EF
:100530005845532C20504F52204C4F2051554520A8
:10054000534F4C4F20534520434F4E464947555239
:10055000414E20444520313020454E204449455AE3
:100560002C0D0A00205349454E444F20454C20563F
:10057000414C4F52204D494E494D4F203031302093
:100580004C757873205920454C204D4158494D4FAA
:1005900020363430204C7578732C286573746F20A6
:1005A00062617361646F20656E206C61206E6F7292
:1005B0006D61204952414D2D4141444C204A203229
:1005C000302D303629200D0A0D0A2A2A2A204168AA
:1005D0006F72612073692C2073656C656363696F4A
:1005E0006E6520656C2076616C6F7220612063619E
:1005F0006D6269617220202A2A2A0D0A54656D7085
:10060000657261747572617320656E2047726164F2
:100610006F732043656E7469677261646F73200D38
:100620000A00412D54656D706572617475726120A8
:100630004578746572696F72204D696E696D6120CD
:100640000D0A422D54656D7065726174757261207A
:100650004578746572696F72204D6178696D6120AB
:100660000D0A432D54656D70657261747572612059
:100670004C6976696E672F436F6D65646F722F43A7
:100680006F63696E61204D696E696D610D0A442D5D
:1006900054656D7065726174757261204C6976691C
:1006A0006E672F436F6D65646F722F436F63696E62
:1006B00061204D6178696D610D0A452D54656D703D
:1006C00065726174757261204C6976696E672F433B
:1006D0006F6D65646F722F436F63696E612064652F
:1006E0007365616461200D0A462D486973746572F3
:1006F00069736973206465206C612074656D706531
:100700007261747572612064656C204C6976696EE3
:10071000672F436F6D65646F722F436F63696E61FE
:100720003A000D0A472D54656D70657261747572DB
:100730006120446F726D69746F72696F204D6178CA
:10074000696D61200D0A482D54656D706572617484
:1007500075726120446F726D69746F72696F204D9C
:10076000696E696D61200D0A492D54656D70657261
:10077000617475726120446F726D69746F72696F14
:1007800020446573656164610D0A4A2D486973747C
:10079000657269736973206465206C612074656D8E
:1007A00070657261747572612064656C20446F724B
:1007B0006D69746F72696F200D0A4C7563657320E3
:1007C000656E204C7578733A0D0A4B2D4C757A2066
:1007D0004578746572696F72204D696E696D61202C
:1007E0000D0A4D2D56616C6F7220646573656164EE
:1007F0006F206465206C6120496C756D696E616362
:10080000696F6E2064656C20646F726D69746F72BD
:10081000696F0D0A4C2D4869737465726973697349
:10082000206465206C61206C757A2064656C20649E
:100830006F726D69746F72696F000D0A4F2D56618A
:100840006C6F72206465736561646F206465206CF1
:100850006120496C756D696E6163696F6E206465B6
:100860006C204C6976696E672F436F6D65646F729B
:100870002F436F63696E61200D0A502D48697374B0
:10088000657269736973206465206C61206C757A88
:100890002064656C204C6976696E672F436F6D65C7
:1008A000646F722F436F63696E610D0A45737175D2
:1008B000656D6120686F726172696F3A0D0A512D22
:1008C000486F726120646520496E6963696F2064B6
:1008D000656C204469610D0A522D486F7261206475
:1008E000652046696E2064656C20446961200D0AAC
:1008F000532D436F6E6669677572617220486F721F
:10090000612041637475616C2F41637475616C691A
:100910007A61722052656C6F6A200D0A352D564F30
:100920004C56455220414C204D454E5520414E5489
:100930004552494F52200D0A56616C6F7265732003
:1009400041637475616C65733A2028536567756EF1
:100950002063616461206C6574726129200220202B
:1009600043616D626961646F212044657365612034
:1009700063616D6269617220616C676F206D617384
:100980003F0D0A352D4E4F2C20566F6C7665722028
:10099000416C206D656E75207072696E636970615F
:1009A0006C0D0A322D53692C20766F6C766572209F
:1009B000616C206D656E7520616E746572696F7211
:1009C000200D0A02496E677265736520656C206EA2
:1009D0007565766F2076616C6F723A090200094581
:1009E000786973746520756E6120636F6E666967E0
:1009F0007572616369F36E206E6F2076E16C6964D5
:100A0000612E204E4F20534520454A4543555441C1
:100A100052C1204E4144410909506F7220666176EF
:100A20006F722C20696E677265736520756E612028
:100A3000636F6E6669677572616369F36E2076E154
:100A40006C696461206F207265696E69636965090C
:100A500002000D0A0D0A0D0A20202020202020204F
:100A60002020202020202020202020202020202086
:100A70002020202020202020202020202020202076
:100A800020202020205F5F5F5F7C7C5F5F5F5F0DC9
:100A90000A00444F4D4F5449434120444520444FA0
:100AA0005320414D4249454E5445533A2020202081
:100AB00020202020202020202020202020202F2F18
:100AC0002F2F2F2F2F2F2F2F2F5C0D0A2045732014
:100AD000756E2070726F796563746F2C20656E205F
:100AE00071756520636F6E20736520636F6E74721D
:100AF0006F6C616E2020202F2F2F2F2F2F2F2F2F45
:100B00002F2F20205C0D0A002020202020206C7533
:100B10007A20792074656D706572617475726120D8
:100B2000646520646F7320616D6269656E746573BE
:100B30002C20207C202020205F202020207C2020B2
:100B40007C0D0A002020656C20646F726D69746FE3
:100B500072696F207920656C206C6976696E672FE9
:100B60002020202020202020202020202020207C29
:100B70005B5D207C207C205B5D7C5B5D7C0D0A00E6
:100B8000636F6D65646F722F636F63696E612020A0
:100B90002020202020202020202020202020202055
:100BA00020202020202020202020207C2020207C8D
:100BB000207C2020207C20207C0D0A000D0A0D0ABC
:100BC0000D0A20202020202020202020202020204E
:100BD0002020202020202020202020202020202015
:100BE0002020202E2A23232323232323232B2020CA
:100BF00020200D0A2020202020202020202020201E
:100C000020202020202020202020202020202020E4
:100C1000202020203D40402B2B2B2B2B2B2B2B2D12
:100C2000202020200D0A20202020202020202020ED
:100C300020202020202020202020202020202020B4
:100C4000202020202D25402A2E202020202020205A
:100C5000202020202020200D0A00202020202020DD
:100C60002020202020202020202020202020202084
:100C7000202020202020202D2A2A2D202020202046
:100C800020202020202020202020200D0A002020AD
:100C90002020202020202020202020202020202054
:100CA0002E2E2E2E2E2E2E2E2E2E2E2E2E2E202080
:100CB0002020202020202020202020202020200D47
:100CC0000A0020202020202020202020202020205A
:100CD000203A2A4040404040404040404040404050
:100CE0004040402A3A202020202020202020202080
:100CF0002020202020200D0A20202020202020201D
:100D000020202020202020254040404040404040DE
:100D1000404040404040404040402520202020208E
:100D200020202020202020202020484543484F20FC
:100D3000504F523A20464142524943494F20444184
:100D40005649442047414C4C4F20200D0A0020209A
:100D5000202020202020202020202020202A2A2A75
:100D60002A2A2A2A2A2A2A2A2A2A2A2A2A2A2A2AE3
:100D70002A20202020202020202020202020202069
:100D800020202020200D0A002020202020202020AC
:100D900020202020202B4040404040404040404008
:100DA0004040404040404040404040402B202020B8
:100DB000202020202020202020202041204D4F4492
:100DC0004F2044452054524142414A4F2046494E0B
:100DD000414C2050415241204C4120434154454414
:100DE00052413A0D0A0020202020202020202020DF
:100DF00020203D4040404040404040404040404036
:100E000040404040404040404040403D2020202065
:100E10002020202020202020202053495354454DBD
:100E20004153204449474954414C45532049562099
:100E3000200D0A0020202020202020202020203AE1
:100E400040404040404040404040404040404040A2
:100E5000404040404040404040403A202020202038
:100E600020202020202020200D0A202020202020AB
:100E7000202020202023404040404040404040402F
:100E80004040404040404040404040404040404062
:100E9000232020202020202020202020202020204F
:100EA0000D0A202020202020202020203A404040F1
:100EB0004040404040404040404040404040404032
:100EC0004040404040404040403A202020202020E8
:100ED0002020202020202050524F4645534F52457D
:100EE000533A204C49432E204A554C49414E204DFF
:100EF000494E4154454C200D0A002020202020203E
:100F0000202020203D404040404040404040404064
:100F100040404040404040404040404040404040D1
:100F2000403D090909202020494E472E2056454CB6
:100F3000415A5155455A204544554152444F0D0A96
:100F4000202020202020202020203D4040404040E4
:100F50004040404040404040404040404040404091
:100F6000404040404040402D202020202020202094
:100F70002020202020200D0A20202020202020209A
:100F800020202E40404040404040404040404040B3
:100F90004040404040404040404040404040402E63
:100FA00020202020202020202020202020200D0A6A
:100FB00020202020202020202020202B40404040A6
:100FC0004040404040404040404040404040404021
:100FD0004040404040402B20202020202020202046
:100FE000202020204349434C4F204C454354495630
:100FF0004F203230323320200D0A202020202020A4
:101000002020202020202A404040404040404040B6
:101010004040404040404040404040404040402AE6
:1010200020202020202020202020202020202020C0
:10103000200D0A00202020202020202020202020F9
:10104000203D4040404040404040404040404040C3
:1010500040404040404040253D202020202020208E
:10106000202020202020202020200D0A20202020A9
:10107000202020202020202020202E3D25404040E0
:1010800040404040404040404040404040253D2E90
:101090002020202020202020202020202020202050
:1010A00020200D0A20202020202020202020202069
:1010B00020202020202E2D3D2B2B2B2B2B2B2B2BA0
:1010C0002B2B2B3D2D2E20202020202020202020C7
:1010D00020202020202020202020200D0A000D0A82
:1010E0000D0A0D0A383838202020202038383820C2
:1010F000202020202020206438383838202038381C
:101100003838383838622E20202038383838383887
:1011100038383838202038383838383838622E2077
:1011200020202020203838383838383838383820CF
:10113000202E6438383838622E2020593838622002
:101140002020643838502038383838383838383823
:1011500038380D0A383838202020202038383820F8
:101160002020202020206438383838382020383893
:101170003820202059383862202038383820202064
:10118000202020202020383838202020593838626C
:101190002020202020383838202020202020202007
:1011A0006438385020205938386220205938386245
:1011B00020643838502020202020203838380D0A6C
:1011C000383838202020202038383820202020208F
:1011D00020643838503838382020383838202020DB
:1011E000203838382020383838202020202020206F
:1011F000202038383820202020383838202020205F
:10120000203838382020202020202020383838204E
:101210002020203838382020205938386F3838506E
:10122000202020202020203838380D0A3838382057
:1012300020202020383838202020202064383850C2
:1012400020383838202038383820202020383838C6
:1012500020203838383838383820202020203838B6
:10126000382020206438385020202020203838387A
:1012700038383838202020203838382020202020C6
:1012800020202020202059383838502020202020AD
:101290002020203838380D0A3838382020202020E7
:1012A000383838202020206438385020203838380A
:1012B000202038383820202020383838202038386E
:1012C0003820202020202020202038383838383876
:1012D000385020202020202020383838202020207E
:1012E00020202020383838202020202020202020B6
:1012F000202020383838202020202020202020388E
:1013000038380D0A38383820202020203838382046
:1013100020206438385020202038383820203838B1
:101320003820202020383838202038383820202015
:1013300020202020202038383820543838622020BF
:101340002020202020383838202020202020202055
:1013500038383820202020383838202020202038E5
:1013600038382020202020202020203838380D0A2E
:10137000593838622E202E6438385020206438388E
:101380003838383838383838202038383820202E47
:101390006438385020203838382020202020202061
:1013A000202038383820205438386220202020204F
:1013B000203838382020202020202020593838623A
:1013C0002020643838502020202020383838202031
:1013D000202020202020203838380D0A202059389D
:1013E00038383838502020206438385020202020C9
:1013F00020383838202038383838383838502020CD
:1014000020203838383838383838383820203838BC
:1014100038202020543838622020202020383838C6
:1014200020202020202020202020593838383850F3
:101430002020202020202038383820202020202064
:101440002020203838380D0A0D0A0D0A0D0A090926
:1014500009352D20566F6C76657220416C206D65C4
:101460006E75207072696E636970616C0909090993
:10147000090D0A02F2E0E0EA1591123041F0009104
:10148000C00005FFFCCF1093C600F6CF08950C9462
:1014900010130091C00007FFFCCF2091C60021333C
:1014A00069F1223369F1233369F1243369F125337A
:1014B00009F3213459F1223459F1233459F12434F8
:1014C00059F1253459F1263459F1273459F128348A
:1014D00059F1293459F12A3459F12B3459F12D3469
:1014E00059F12C3459F12F3459F1213569F1223554
:1014F00069F1233569F1203529F1CBCF0C94AC0A81
:101500000C94BE0A0C948E0C0C94BA0A0C949D0C8C
:101510000C94C20C0C94E70C0C940C0D0C94310D33
:101520000C94560D0C947B0D0C94A00D0C94C50DD1
:101530000C94E80D0C940B0E0C942E0E0C94510E82
:101540000C94740E0C94970E0C94B90E0C94F00E2F
:101550000C94270F0C944D0AF3E0E8E1159112303A
:1015600039F00091C00005FFFCCF1093C600F6CF04
:101570000C94850F0C947B0F0C947C0FF4E0E4E545
:101580000E94C20A1591123039F00091C00005FF87
:10159000FCCF1093C600F6CF41E40E94870C0E9456
:1015A000A310F1E0EAE640814093C6000E94870C58
:1015B000F1E0EBE640814093C6000E94870C0E9458
:1015C000951042E40E94870C0E94A310F1E0EDE622
:1015D00040814093C6000E94870CF1E0EEE6408116
:1015E0004093C6000E94870C0E94951043E40E941D
:1015F000870C0E94A310F1E0E0E740814093C60011
:101600000E94870CF1E0E1E740814093C6000E9410
:10161000870C0E949C1044E40E94870C0E94A31037
:10162000F1E0E4E740814093C6000E94870CF1E0BE
:10163000E5E740814093C6000E94870C0E94951008
:1016400045E40E94870C0E94A310F1E0E8E7408186
:101650004093C6000E94870CF1E0E9E74081409387
:10166000C6000E94870C0E94951046E40E94870CD9
:101670000E94A310F1E0ECE740814093C6000E9475
:10168000870CF1E0EDE740814093C6000E94870C93
:101690000E94951047E40E94870C0E94A310F1E07D
:1016A000E0E840814093C6000E94870CF1E0E1E849
:1016B00040814093C6000E94870C0E949C1048E421
:1016C0000E94870C0E94A310F1E0E4E8408140935F
:1016D000C6000E94870CF1E0E5E840814093C60017
:1016E0000E94870C0E94951049E40E94870C0E947A
:1016F000A310F1E0E8E840814093C6000E94870C07
:10170000F1E0EBE640814093C6000E94870C0E9406
:1017100095104AE40E94870C0E94A310F1E0EBE8C8
:1017200040814093C6000E94870CF1E0ECE84081C4
:101730004093C6000E94870C0E9495104BE40E94C3
:10174000870C0E94A310F1E0EEE840814093C600B0
:101750000E94870CF1E0EFE840814093C6000E94B0
:10176000870C0E94A7100E949C104DE40E94870CD9
:101770000E94A310F1E0E2E940814093C6000E947C
:10178000870CF1E0E3E940814093C6000E94870C9A
:101790000E94A7100E9495104CE40E94870C0E94A2
:1017A000A310F1E0E6E940814093C6000E94870C57
:1017B000F1E0E7E940814093C6000E94870C0E9457
:1017C000A7100E9495104FE40E94870C0E94A3105E
:1017D000F1E0EAE940814093C6000E94870CF1E005
:1017E000EBE940814093C6000E94870C0E94A7103D
:1017F0000E94951040E50E94870C0E94A310F1E022
:10180000EEE940814093C6000E94870CF1E0EFE9C9
:1018100040814093C6000E94870C0E94A7100E943E
:10182000951041E50E94870C0E94A310F1E0E2EAC6
:1018300040814093C6000E94870CF1E0E3EA4081BA
:101840004093C6000E94870C4AE30E94870CF1E097
:10185000E6EA40814093C6000E94870CF1E0E7EA87
:1018600040814093C6000E94870C0E9495100E9400
:10187000951042E50E94870C0E94A310F1E0EAEA6D
:1018800040814093C6000E94870CF1E0EBEA408162
:101890004093C6000E94870C4AE30E94870CF1E047
:1018A000ECEA40814093C6000E94870CF1E0EDEA2B
:1018B00040814093C6000E94870C0E949C1043E523
:1018C0000E94870C0E94A310F3E0E0E24081409365
:1018D000C6000E94870CF3E0E2E240814093C6001C
:1018E0000E94870C4AE30E94870CF3E0E4E2408107
:1018F0004093C6000E94870CF3E0E5E240814093EC
:10190000C6000E94870C0E9495100C94490A009111
:10191000C00005FFFCCF4093C6000895FAE0E2E561
:101920001591123041F00091C00005FFFCCF1093DB
:10193000C600F6CF08950C944D0AF9E0E4EC00C01F
:101940001591123039F00091C00005FFFCCF1093C3
:10195000C600F6CF0091C00007FFFCCF5090C60034
:101960005092C600F1E0EAE650820091C00007FF05
:10197000FCCF5090C6005092C600F1E0EBE65082DA
:101980000C94670FF9E0E4EC00C01591123039F0C7
:101990000091C00005FFFCCF1093C600F6CF009168
:1019A000C00007FFFCCF5090C6005092C600F1E087
:1019B000EDE650820091C00007FFFCCF5090C600BA
:1019C0005092C600F1E0EEE650820C94670FF9E009
:1019D000E4EC00C01591123039F00091C00005FF11
:1019E000FCCF1093C600F6CF0091C00007FFFCCFDC
:1019F0005090C6005092C600F1E0E0E7508200919E
:101A0000C00007FFFCCF5090C6005092C600F1E026
:101A1000E1E750820C94670FF9E0E4EC00C0159107
:101A2000123039F00091C00005FFFCCF1093C600C2
:101A3000F6CF0091C00007FFFCCF5090C600509237
:101A4000C600F1E0E4E750820091C00007FFFCCF40
:101A50005090C6005092C600F1E0E5E750820C9429
:101A6000670FF9E0E4EC00C01591123039F00091F5
:101A7000C00005FFFCCF1093C600F6CF0091C00058
:101A800007FFFCCF5090C6005092C600F1E0E8E797
:101A900050820091C00007FFFCCF5090C6005092CA
:101AA000C600F1E0E9E750820C94670FF9E0E4EC3E
:101AB00000C01591123039F00091C00005FFFCCF35
:101AC0001093C600F6CF0091C00007FFFCCF5090E6
:101AD000C6005092C600F1E0ECE750820091C000D1
:101AE00007FFFCCF5090C6005092C600F1E0EDE732
:101AF00050820C94670FF9E0E4EC00C015911230AD
:101B000039F00091C00005FFFCCF1093C600F6CF5E
:101B10000091C00007FFFCCF5090C6005092C60055
:101B2000F1E0E0E850820091C00007FFFCCF509048
:101B3000C6005092C600F1E0E1E850820C94670FB5
:101B4000F9E0E4EC00C01591123039F00091C000CA
:101B500005FFFCCF1093C600F6CF0091C00007FF31
:101B6000FCCF5090C6005092C600F1E0E4E85082ED
:101B70000091C00007FFFCCF5090C6005092C600F5
:101B8000F1E0E5E850820C94670FF9E0E4EC00C066
:101B90001591123039F00091C00005FFFCCF109371
:101BA000C600F6CF0091C00007FFFCCF5090C600E2
:101BB0005092C600509288010091C00007FFFCCFF0
:101BC0005090C6005092C600509289010C94670F45
:101BD000F9E0E4EC00C01591123039F00091C0003A
:101BE00005FFFCCF1093C600F6CF0091C00007FFA1
:101BF000FCCF5090C6005092C60050928B010091CD
:101C0000C00007FFFCCF5090C6005092C600509213
:101C10008C010C94670FF9E0E4EC00C015911230D0
:101C200039F00091C00005FFFCCF1093C600F6CF3D
:101C30000091C00007FFFCCF5090C6005092C60034
:101C400050928E010091C00007FFFCCF5090C6005B
:101C50005092C60050928F010C94670FF9E0E4ECAB
:101C600000C01591123039F00091C00005FFFCCF83
:101C70001093C600F6CF0091C00007FFFCCF509034
:101C8000C6005092C600509292010091C00007FF1A
:101C9000FCCF5090C6005092C600509293010C9415
:101CA000670FF9E0E4EC00C01591123039F00091B3
:101CB000C00005FFFCCF1093C600F6CF0091C00016
:101CC00007FFFCCF5090C6005092C600509296017C
:101CD0000091C00007FFFCCF5090C6005092C60094
:101CE000509297010C94670FF9E0E4EC00C0159155
:101CF000123039F00091C00005FFFCCF1093C600F0
:101D0000F6CF0091C00007FFFCCF5090C600509264
:101D1000C60050929A010091C00007FFFCCF50907E
:101D2000C6005092C60050929B010C944D0AF9E0F7
:101D3000E4EC00C01591123039F00091C00005FFAD
:101D4000FCCF1093C600F6CF0091C00007FFFCCF78
:101D50005090C6005092C60050929E010091C00063
:101D600007FFFCCF5090C6005092C600F3E050929F
:101D70009F01F9E0E4EC00C01591123039F00091B8
:101D8000C00005FFFCCF1093C600F6CF0091C00045
:101D900007FFFCCF5090C6005092C6005092A2019F
:101DA0000091C00007FFFCCF5090C6005092C600C3
:101DB0005092A3010091C00007FFFCCF5090C600D5
:101DC0005092C6005092A6010091C00007FFFCCFC0
:101DD0005090C6005092C6005092A7010C94670F15
:101DE000F9E0E4EC00C01591123039F00091C00028
:101DF00005FFFCCF1093C600F6CF0091C00007FF8F
:101E0000FCCF5090C6005092C6005092AA0100919B
:101E1000C00007FFFCCF5090C6005092C600509201
:101E2000AB010091C00007FFFCCF5090C60050925C
:101E3000C6005092AC010091C00007FFFCCF50904B
:101E4000C6005092C6005092AD010C94670FF9E0A5
:101E5000E4EC00C01591123039F00091C00005FF8C
:101E6000FCCF1093C600F6CF0091C00007FFFCCF57
:101E70005090C6005092C600509220030AE0509E37
:101E8000109221030091C00007FFFCCF5090C600C4
:101E90005092C6005092220300912103050D009339
:101EA00021030091C00007FFFCCF5090C600509264
:101EB000C600509224030091C00007FFFCCF509051
:101EC000C6005092C600509225030C94670FF9E0AB
:101ED000EEE500C01591123081F00091C00005FFC1
:101EE000FCCF1093C600F6CF08950091C00007FF05
:101EF000FCCF0C944D0ACDCACCCA0091C00007FF9C
:101F0000FCCF0C944D0A0C94490A44E50E94870CBE
:101F10000E94A310F3E0E0E240814093C6000E94DB
:101F2000870CF3E0E2E240814093C6000E94870CF8
:101F30004AE30E94870CF3E0E4E240814093C6004C
:101F40000E94870CF3E0E5E240814093C6000E94C6
:101F5000870C0E9495100E949C1045E50E94870CFA
:101F60000E94A310F3E0EAE240814093C6000E9481
:101F7000870CF3E0EBE240814093C6000E94870C9F
:101F8000F3E0ECE240814093C6000E94870C0E947F
:101F9000AB10F3E0EDE240814093C6000E94870C55
:101FA0000E9495100E949C1046E50E94870C0E949A
:101FB000A310F3E0E3E340814093C6000E94870C46
:101FC000F3E0E4E340814093C6000E94870CF3E015
:101FD000E5E340814093C6000E94870C0E94AB104D
:101FE000F3E0E6E340814093C6000E94870C0E9424
:101FF00095100E949C1047E50E94870C0E94A31038
:10200000F3E0ECE340814093C6000E94870CF3E0CC
:10201000EDE340814093C6000E94870CF3E0EEE3BD
:1020200040814093C6000E94870C0E94AB10F3E0F1
:10203000EFE340814093C6000E94870C0E949C10F1
:1020400048E50E94870C0E94A310F3E0EDE4419163
:102050004093C6000E94870C40814093C6000E94B6
:10206000870CF3E0EFE440814093C6000E94870CA8
:10207000F3E0E0E540814093C6000E94870C0E9497
:10208000A7100E9495100E949C1049E50E94870CA1
:102090000E94A310F3E0E6E540814093C6000E9451
:1020A000870CF3E0E7E540814093C6000E94870C6F
:1020B000F3E0E8E540814093C6000E94870CF3E01E
:1020C000E9E540814093C6000E94870C0E94A7105A
:1020D0000E9495100E949C104AE50E94870C0E9465
:1020E000A310F3E0E4E440814093C6000E94870C13
:1020F000F3E0E5E440814093C6000E94870CF3E0E2
:10210000E6E440814093C6000E94870CF3E0E7E4D8
:1021100040814093C6000E94870C0E94A7100E9435
:1021200095100C944D0A4CE3089540E20E94870CF0
:1021300040E20E94870C08954DE00E94870C4AE01F
:102140000E94870C08954FE50E94870C089540E394
:102150000E94870C08954CE20E94870C089550E07D
:10216000E0E008E00EBF0FEF0DBF0FEF0CE10093B2
:10217000C10004E00093C20007E60093C40000E63B
:1021800000937C0007E800937A0000E007B90E9402
:10219000D710F3E0E0E238E20E9478110FEF04B9C3
:1021A00003E00093690001E00DBB789463C941E34B
:1021B00040936A0140E3F1E0EBE6408343E3F1E062
:1021C000EDE6408342E3F1E0EEE6408341E3F1E0F7
:1021D000E0E7408348E3F1E0E1E7408342E3F1E0F8
:1021E000E4E7408346E3F1E0E5E74083E0E042E3F3
:1021F000F1E0E8E7408344E3F1E0E9E7408340E3CE
:10220000F1E0ECE7408341E3F1E0EDE7408342E3B6
:10221000F1E0E0E8408346E3F1E0E1E8408341E3B8
:10222000F1E0E4E8408348E3F1E0E5E8408342E39D
:10223000F1E0E8E8408344E3F1E0E9E8408340E38B
:10224000F1E0EBE8408341E3F1E0ECE8408340E378
:10225000F1E0EEE8408341E3F1E0EFE8408340E362
:10226000F1E0EBE8408341E3F1E0ECE8408345E353
:10227000F1E0E2E9408340E3F1E0E3E9408340E359
:10228000F1E0E6E9408341E3F1E0E7E9408345E33B
:10229000F1E0EAE9408340E3F1E0EBE9408340E329
:1022A000F1E0EEE9408347E3F1E0EFE9408340E30A
:1022B000F1E0E2EA408345E3F1E0E3EA408343E30F
:1022C000F1E0E6EA408340E3F1E0E7EA408341E3FE
:1022D000F1E0EAEA408349E3F1E0EBEA408343E3DB
:1022E000F1E0ECEA408340E3F1E0EDEA4083089559
:1022F000303029F040E34083E3953A95F9CF0895D3
:1023000018951895189518959F93CF920F931F9332
:102310002F933F934F93EF93FF931FB71F9310910A
:1023200020041395193121F0109320040C94E81126
:102330000E94F41110E010932004109128031395CB
:102340001C3321F0109328030C94E81110E0109333
:102350002803109125031395193321F010932503B9
:102360000C94E81110E31093250310912403153306
:1023700029F01395109324030C94E81110E31093A3
:1023800024031091210313951831A8F4109321030D
:1023900010912203193329F01395109322030C9402
:1023A000E81110E31093220310912003139510936A
:1023B00020030C94E8111091220310E310932203E0
:1023C00010E31093200310E0109321030C94E81104
:1023D0001F911FBFFF91EF914F913F912F911F913F
:1023E0000F91CF909F91189500E600937C000E947A
:1023F0003D1360932A0350932B0340932C032093A7
:102400002D0301E600937C000E943D13609333038B
:1024100050933403409335032093360302E6009330
:102420007C000E943D1360933C0350933D03409316
:102430003E0320933F0303E600937C000E943D137C
:10244000609344035093450340934603209347030E
:1024500004E600937C000E943D1360934D0350936B
:102460004E0340934F032093500302E300937C00FC
:102470000E943D13609356035093570340935803B3
:1024800020935903089510E02081E3953081E3956E
:102490004081213331F0223309F0089508EC100F08
:1024A00003C004E6100F00C03133A1F03233A9F0AD
:1024B0003333B1F03433B9F03533C1F03633C9F0CA
:1024C0003733D1F03833D9F0393309F008950AE5BC
:1024D000100F18C00AE0100F15C004E1100F12C051
:1024E0000EE1100F0FC008E2100F0CC002E3100F36
:1024F00009C00CE3100F06C006E4100F03C000E58E
:10250000100F00C04133A1F04233A9F04333B1F0C2
:102510004433B9F04533C1F04633C9F04733D1F005
:102520004833D9F0493309F0089509E0100F0895B0
:1025300001E0100F089502E0100F089503E0100F5E
:10254000089504E0100F089505E0100F089506E0C7
:10255000100F089507E0100F089505E0100F08957B
:102560003081E395408190E03133A1F03233A9F01E
:102570003333B1F03433B9F03533C1F03633C9F009
:102580003733D1F03833D9F0393309F008959AE56B
:10259000100F18C00AE0900F15C004E1900F12C090
:1025A0000EE1900F0FC008E2900F0CC002E3900FF5
:1025B00009C00CE3900F06C006E4900F03C000E5CD
:1025C000900F00C04133A1F04233A9F04333B1F082
:1025D0004433B9F04533C1F04633C9F04733D1F045
:1025E0004833D9F0493309F0089509E0900F089570
:1025F00001E0900F089502E0900F089503E0900F1E
:10260000089504E0900F089505E0900F089506E006
:10261000900F089507E0900F089505E0900F08953A
:102620005F92CF920F931F932F933F934F93EF930C
:10263000FF931FB71F931F911FBFFF91EF914F9102
:102640003F912F910F91CF905F900C94490A5F9228
:10265000CF920F931F932F933F934F93EF93FF933B
:102660001FB71F931F911FBFFF91EF914F913F9194
:102670002F910F91CF905F90089540E050E060E07F
:1026800020E000E007B900C00E9479130E94801387
:10269000209178003091790040E050E060E0032F15
:1026A0000E94571310E3410F510F610F0895043634
:1026B00018F063950456FBCF0A3018F053950A5072
:1026C000FBCF013018F043950150FBCF00C0203CF8
:1026D00041F0203841F0203441F0203041F00C949A
:1026E0003A0A27E3089525E3089522E3089520E3B5
:1026F000089500E410917A00102B10937A00089549
:1027000010917A0014FF0C94801300E110917A006C
:08271000102B10937A000895CC
:00000001FF
