:020000020000FC
:100000000C9484110C9484120C9480120C9484121D
:100010000C9481120C9481120C9481120C94811214
:100020000C9481120C9481120C9481120C94811204
:100030000C9481120C9481120C9481120C948112F4
:100040000C9481120C9481120C9481120C948112E4
:100050000C9481120C9481120C9481120C948112D4
:080060000C9482120C9483122F
:1002A0000D0A0A2A2A2A3E3E3E53656C656363693D
:1002B0006F6E65206C6120616363696F6E206120E1
:1002C0007265616C697A61723C3C3C202A2A2A0A78
:1002D0000D0A0D0A312D4D6F7374726172205661D3
:1002E0006C6F7265732E2E2E0D0A322D436F6E6663
:1002F0006967757261722056616C6F7265732E2E1C
:100300002E0D0A332D4461746F732044656C207088
:10031000726F796563746F2E2E2E20020D0A2A2AC1
:100320002A204D45444943494F4E4553202A2A2A05
:100330000D0A3C204275737175652063616461200C
:100340006D65646963696F6E20736567756E207390
:1003500075204C6574726120203E0D0A486F7261F1
:10036000206465206C6173206D65646963696F6EDC
:1003700065733A2054202054656D70657261747500
:100380007261204578746572696F723A20550D0A62
:100390002054656D7065726174757261204C697668
:1003A000696E672F436F6D65646F722F436F63696A
:1003B0006E613A20562020202054656D7065726170
:1003C0007475726120446F726D69746F72696F3AEF
:1003D0002057200D0A204C757A20446F726D697485
:1003E0006F72696F3A20205820204C757A2045782A
:1003F000746572696F723A20205920204C757A20FA
:100400004C6976696E672F436F63696E612F436F26
:100410006D65646F723A20205A200D0A09312D5201
:10042000656672657363617261722056616C6F728A
:1004300065732E2E2E20352D564F4C564552204199
:100440004C204D454E5520414E544552494F522067
:100450000D0A56414C4F524553203E020A41445624
:10046000455254454E434941210A205349205641A3
:1004700020412043414D4249415220414C474F20A9
:1004800054454E474120454C204355494441444F33
:100490002044452048414345524C4F204445204686
:1004A0004F524D4120434F484552454E54452C2014
:1004B0000D0A54454E49454E444F20454E20435564
:1004C000454E5441205155453A204C412054454D0C
:1004D0005045524154555241204D494E494D4120BD
:1004E0004120494E47524553415220455320303018
:1004F000202A46202059204C41204D4158494D4149
:10050000203939202A463B204C415320484F524144
:10051000532056414E204445203030204120323473
:1005200020484F5241530D0A454E204355414E54E9
:100530004F204C4F53204C55584F4D4554524F531C
:100540002C20535520505245434953494F4E204586
:1005500053204445203130204C555845532C2050D1
:100560004F52204C4F2051554520534F4C4F205354
:100570004520434F4E4649475552414E2044452061
:10058000313020454E204449455A2C0D0A00205355
:1005900049454E444F20454C2056414C4F52204D2A
:1005A000494E494D4F20303130204C7578732059D9
:1005B00020454C204D4158494D4F20363430204C79
:1005C0007578732C286573746F2062617361646F32
:1005D00020656E206C61206E6F726D612049524102
:1005E0004D2D4141444C204A2032302D30362920B7
:1005F0000D0A0D0A2A2A2A2041686F726120736948
:100600002C2073656C656363696F6E6520656C2073
:1006100076616C6F7220612063616D626961722026
:10062000202A2A2A0D0A54656D70657261747572EC
:10063000617320656E20477261646F732046616844
:1006400072656E6865697420200D0A00412D54653D
:100650006D70657261747572612045787465726938
:100660006F72204D696E696D61200D0A422D5465CF
:100670006D70657261747572612045787465726918
:100680006F72204D6178696D61200D0A432D5465AC
:100690006D7065726174757261204C6976696E6700
:1006A0002F436F6D65646F722F436F63696E6120B6
:1006B0004D696E696D610D0A442D54656D706572EA
:1006C0006174757261204C6976696E672F436F6D36
:1006D00065646F722F436F63696E61204D61786945
:1006E0006D610D0A452D54656D706572617475728A
:1006F00061204C6976696E672F436F6D65646F7218
:100700002F436F63696E6120646573656164612066
:100710000D0A462D486973746572697369732064A4
:1007200065206C612074656D7065726174757261AD
:100730002064656C204C6976696E672F436F6D6528
:10074000646F722F436F63696E613A000D0A472D23
:1007500054656D706572617475726120446F726D5D
:1007600069746F72696F204D6178696D61200D0A3F
:10077000482D54656D706572617475726120446FA7
:10078000726D69746F72696F204D696E696D612059
:100790000D0A492D54656D70657261747572612022
:1007A000446F726D69746F72696F2044657365611F
:1007B00064610D0A4A2D48697374657269736973BF
:1007C000206465206C612074656D7065726174755C
:1007D00072612064656C20446F726D69746F726918
:1007E0006F200D0A4C7563657320656E204C75781B
:1007F000733A0D0A4B2D4C757A20457874657269F1
:100800006F72204D696E696D61200D0A4D2D566124
:100810006C6F72206465736561646F206465206C21
:100820006120496C756D696E6163696F6E206465E6
:100830006C20646F726D69746F72696F0D0A4C2D54
:1008400048697374657269736973206465206C61AB
:10085000206C757A2064656C20646F726D69746FAA
:1008600072696F000D0A4F2D56616C6F72206465BE
:10087000736561646F206465206C6120496C756DDF
:10088000696E6163696F6E2064656C204C6976697E
:100890006E672F436F6D65646F722F436F63696E70
:1008A00061200D0A502D486973746572697369730C
:1008B000206465206C61206C757A2064656C204C26
:1008C0006976696E672F436F6D65646F722F436F32
:1008D00063696E610D0A45737175656D6120686F9E
:1008E000726172696F3A0D0A512D486F726120640E
:1008F0006520496E6963696F2064656C2044696195
:100900000D0A522D486F72612064652046696E2081
:1009100064656C20446961200D0A532D436F6E6637
:1009200069677572617220486F72612041637475E6
:10093000616C2F41637475616C697A6172205265D4
:100940006C6F6A200D0A352D564F4C56455220418A
:100950004C204D454E5520414E544552494F522052
:100960000D0A56616C6F7265732041637475616C1A
:1009700065733A2028536567756E20636164612052
:100980006C65747261292002202043616D62696187
:10099000646F212044657365612063616D626961E4
:1009A0007220616C676F206D61733F0D0A352D4EAB
:1009B0004F2C20566F6C76657220416C206D656EF1
:1009C00075207072696E636970616C0D0A322D5307
:1009D000692C20766F6C76657220616C206D656E77
:1009E0007520616E746572696F72200D0A02496E1E
:1009F000677265736520656C206E7565766F20760D
:100A0000616C6F723A090200094578697374652058
:100A1000756E6120636F6E6669677572616369F3F5
:100A20006E206E6F2076E16C6964612E204E4F203F
:100A3000534520454A454355544152C1204E4144F7
:100A4000410909506F72206661766F722C20696EC1
:100A5000677265736520756E6120636F6E66696786
:100A60007572616369F36E2076E16C696461206F71
:100A7000207265696E696369650902000D0A0D0AD5
:100A80000D0A20202020202020202020202020208F
:100A90002020202020202020202020202020202056
:100AA0002020202020202020202020202020205F07
:100AB0005F5F5F7C7C5F5F5F5F0D0A00444F4D4F5F
:100AC0005449434120444520444F5320414D42491D
:100AD000454E5445533A202020202020202020201D
:100AE00020202020202020202F2F2F2F2F2F2F2F8E
:100AF0002F2F2F5C0D0A20457320756E2070726FAA
:100B0000796563746F2C20656E2071756520636F45
:100B10006E20736520636F6E74726F6C616E20203F
:100B2000202F2F2F2F2F2F2F2F2F2F2F20205C0DF7
:100B30000A002020202020206C757A2079207465FE
:100B40006D706572617475726120646520646F7385
:100B500020616D6269656E7465732C20207C202095
:100B600020205F202020207C20207C0D0A002020D7
:100B7000656C20646F726D69746F72696F20792083
:100B8000656C206C6976696E672F202020202020FC
:100B90002020202020202020207C5B5D207C207CC9
:100BA000205B5D7C5B5D7C0D0A00636F6D65646F2F
:100BB000722F636F63696E61202020202020202027
:100BC0002020202020202020202020202020202025
:100BD00020202020207C2020207C207C2020207CA5
:100BE00020207C0D0A000D0A0D0A0D0A202020206D
:100BF00020202020202020202020202020202020F5
:100C0000202020202020202020202020202E2A23C9
:100C1000232323232323232B202020200D0A2020DD
:100C200020202020202020202020202020202020C4
:100C300020202020202020202020202020203D4077
:100C4000402B2B2B2B2B2B2B2B2D202020200D0A48
:100C50002020202020202020202020202020202094
:100C600020202020202020202020202020202D2572
:100C7000402A2E202020202020202020202020203C
:100C8000200D0A00202020202020202020202020AD
:100C90002020202020202020202020202020202054
:100CA000202D2A2A2D202020202020202020202016
:100CB00020202020200D0A0020202020202020207D
:100CC000202020202020202020202E2E2E2E2E2ED0
:100CD0002E2E2E2E2E2E2E2E2020202020202020A4
:100CE0002020202020202020200D0A00202020204D
:100CF00020202020202020202020203A2A40404070
:100D0000404040404040404040404040402A3A201F
:100D100020202020202020202020202020202020D3
:100D20000D0A2020202020202020202020202020EC
:100D300020254040404040404040404040404040EE
:100D4000404040402520202020202020202020201E
:100D500020202020484543484F20504F523A2046FB
:100D60004142524943494F2044415649442047415A
:100D70004C4C4F20200D0A00202020202020202035
:100D8000202020202020202A2A2A2A2A2A2A2A2A09
:100D90002A2A2A2A2A2A2A2A2A2A2A2020202020E5
:100DA0002020202020202020202020202020200D56
:100DB0000A00202020202020202020202020202B5E
:100DC0004040404040404040404040404040404023
:100DD0004040404040402B20202020202020202048
:100DE000202020202041204D4F444F2044452054B6
:100DF000524142414A4F2046494E414C20504152B7
:100E000041204C4120434154454452413A0D0A008F
:100E10002020202020202020202020203D40404055
:100E200040404040404040404040404040404040C2
:100E300040404040403D20202020202020202020F5
:100E40002020202053495354454D415320444947C5
:100E50004954414C455320495620200D0A0020207A
:100E60002020202020202020203A404040404040A8
:100E70004040404040404040404040404040404072
:100E8000404040403A2020202020202020202020C8
:100E900020200D0A20202020202020202020202378
:100EA0004040404040404040404040404040404042
:100EB00040404040404040404040232020202020EF
:100EC000202020202020202020200D0A202020204B
:100ED0002020202020203A404040404040404040D8
:100EE0004040404040404040404040404040404002
:100EF0004040403A20202020202020202020202078
:100F00002050524F4645534F5245533A204C494387
:100F10002E204A554C49414E204D494E4154454C96
:100F2000200D0A00202020202020202020203D40CD
:100F300040404040404040404040404040404040B1
:100F400040404040404040404040403D0909092069
:100F50002020494E472E2056454C415A5155455A5E
:100F6000204544554152444F0D0A20202020202086
:100F7000202020203D4040404040404040404040F4
:100F80004040404040404040404040404040404061
:100F9000402D202020202020202020202020202024
:100FA0000D0A202020202020202020202E404040FC
:100FB0004040404040404040404040404040404031
:100FC0004040404040404040402E202020202020F3
:100FD00020202020202020200D0A2020202020203A
:100FE00020202020202B40404040404040404040B6
:100FF00040404040404040404040404040404040F1
:101000002B20202020202020202020202020434989
:10101000434C4F204C45435449564F2032303233D5
:1010200020200D0A202020202020202020202020E9
:101030002A404040404040404040404040404040C6
:101040004040404040404040402A20202020202076
:1010500020202020202020202020200D0A002020D9
:1010600020202020202020202020203D40404040E3
:101070004040404040404040404040404040404070
:1010800040253D202020202020202020202020201E
:10109000202020200D0A2020202020202020202079
:1010A000202020202E3D25404040404040404040F0
:1010B00040404040404040253D2E20202020202020
:1010C0002020202020202020202020200D0A202049
:1010D0002020202020202020202020202020202E02
:1010E0002D3D2B2B2B2B2B2B2B2B2B2B2B3D2D2E25
:1010F00020202020202020202020202020202020F0
:1011000020202020200D0A000D0A0D0A0D0A383873
:10111000382020202020383838202020202020206F
:101120002064383838382020383838383838386231
:101130002E202020383838383838383838382020B1
:1011400038383838383838622E202020202020388F
:1011500038383838383838383820202E643838381D
:1011600038622E20205938386220202064383850C8
:101170002038383838383838383838380D0A383860
:1011800038202020202038383820202020202020FF
:1011900064383838383820203838382020205938FA
:1011A000386220203838382020202020202020209D
:1011B0003838382020205938386220202020203824
:1011C000383820202020202020206438385020204B
:1011D0005938386220205938386220643838502015
:1011E00020202020203838380D0A38383820202098
:1011F00020203838382020202020206438385038EB
:10120000383820203838382020202038383820201E
:10121000383838202020202020202020383838203E
:10122000202020383838202020202038383820202E
:10123000202020202020383838202020203838381E
:101240002020205938386F38385020202020202086
:10125000203838380D0A38383820202020203838F7
:10126000382020202020643838502038383820207A
:10127000383838202020203838382020383838387E
:101280003838382020202020383838202020643872
:10129000385020202020203838383838383820205E
:1012A00020203838382020202020202020202020F6
:1012B0005938383850202020202020202038383835
:1012C0000D0A3838382020202020383838202020B7
:1012D00020643838502020383838202038383820DA
:1012E000202020383838202038383820202020206E
:1012F0002020202038383838383838502020202016
:101300002020203838382020202020202020383865
:10131000382020202020202020202020203838386D
:101320002020202020202020203838380D0A38386E
:1013300038202020202038383820202064383850A9
:1013400020202038383820203838382020202038F5
:101350003838202038383820202020202020202015
:101360003838382054383862202020202020203877
:1013700038382020202020202020383838202020F5
:1013800020383838202020202038383820202020CD
:1013900020202020203838380D0A593838622E2075
:1013A0002E64383850202064383838383838383887
:1013B0003838202038383820202E64383850202003
:1013C000383838202020202020202020383838208D
:1013D000205438386220202020202038383820201F
:1013E00020202020202059383862202064383850AE
:1013F00020202020203838382020202020202020A5
:10140000203838380D0A20205938383838385020DC
:1014100020206438385020202020203838382020E0
:101420003838383838383850202020203838383884
:101430003838383838382020383838202020543888
:1014400038622020202020383838202020202020FA
:1014500020202020593838383850202020202020C3
:1014600020383838202020202020202020383838EC
:101470000D0A0D0A0D0A0D0A090909352D20566FAE
:101480006C76657220416C206D656E752070726996
:101490006E636970616C09090909090D0A02F2E0BD
:1014A000E0EA1591123041F00091C00005FFFCCF39
:1014B0001093C600F6CF08950091C00007FFFCCF3F
:1014C0002091C600213369F1223369F1233369F198
:1014D000243369F1253319F3213459F1223459F1B8
:1014E000233459F1243459F1253459F1263459F172
:1014F000273459F1283459F1293459F12A3459F152
:101500002B3459F12D3459F12C3459F12F3459F130
:10151000213569F1223569F1233569F1203529F149
:10152000CBCF0C94BF0A0C94D10A0C94A10C0C9450
:10153000CD0A0C94B00C0C94E30C0C94160D0C9486
:10154000490D0C947C0D0C94AF0D0C94E20D0C9491
:10155000150E0C94480E0C94790E0C94AA0E0C9453
:10156000DB0E0C940C0F0C943D0F0C946E0F0C942E
:10157000A00F0C94D10F0C9402100C94600AF3E0AD
:10158000ECE11591123039F00091C00005FFFCCF5D
:101590001093C600F6CF0C9460100C9456100C9467
:1015A0005710F4E0ECE50E94D50A1591123039F09D
:1015B0000091C00005FFFCCF1093C600F6CF41E4B8
:1015C0000E949A0C0E947811F2E0E3E1408140937E
:1015D000C6000E949A0CF2E0E4E140814093C6000C
:1015E0000E949A0C0E946A1142E40E949A0C0E9486
:1015F0007811F2E0E6E140814093C6000E949A0C27
:10160000F2E0E7E140814093C6000E949A0C0E94FC
:101610006A1143E40E949A0C0E947811F2E0E9E119
:1016200040814093C6000E949A0CF2E0EAE14081BA
:101630004093C6000E949A0C0E94711144E40E94DB
:101640009A0C0E947811F2E0EDE140814093C600CF
:101650000E949A0CF2E0EEE140814093C6000E94A5
:101660009A0C0E946A1145E40E949A0C0E9478111B
:10167000F2E0E1E240814093C6000E949A0CF2E061
:10168000E2E240814093C6000E949A0C0E946A11D7
:1016900046E40E949A0C0E947811F2E0E5E2408153
:1016A0004093C6000E949A0CF2E0E6E2408140932B
:1016B000C6000E949A0C0E946A1147E40E949A0C8C
:1016C0000E947811F2E0E9E240814093C6000E9456
:1016D0009A0CF2E0EAE240814093C6000E949A0C24
:1016E0000E94711148E40E949A0C0E947811F2E065
:1016F000EDE240814093C6000E949A0CF2E0EEE2D7
:1017000040814093C6000E949A0C0E946A1149E4ED
:101710000E949A0C0E947811F2E0E1E3408140932C
:10172000C6000E949A0CF2E0E4E140814093C600BA
:101730000E949A0C0E946A114AE40E949A0C0E942C
:101740007811F2E0E4E340814093C6000E949A0CD5
:10175000F2E0E5E340814093C6000E949A0C0E94AB
:101760006A114BE40E949A0C0E947811F2E0E7E3C0
:1017700040814093C6000E949A0CF2E0E8E3408169
:101780004093C6000E949A0C0E947C110E94711125
:101790004DE40E949A0C0E947811F2E0EBE3408144
:1017A0004093C6000E949A0CF2E0ECE34081409323
:1017B000C6000E949A0C0E947C110E946A114CE49F
:1017C0000E949A0C0E947811F2E0EFE3408140936E
:1017D000C6000E949A0CF2E0E0E440814093C6000B
:1017E0000E949A0C0E947C110E946A114FE40E9490
:1017F0009A0C0E947811F2E0E3E440814093C60025
:101800000E949A0CF2E0E4E440814093C6000E94FA
:101810009A0C0E947C110E946A1140E50E949A0C69
:101820000E947811F2E0E7E440814093C6000E94F4
:101830009A0CF2E0E8E440814093C6000E949A0CC2
:101840000E947C110E946A1141E50E949A0C0E943C
:101850007811F2E0EBE440814093C6000E949A0CBC
:10186000F2E0ECE440814093C6000E949A0C4AE307
:101870000E949A0CF2E0EFE440814093C6000E947F
:101880009A0CF2E0E0E540814093C6000E949A0C79
:101890000E946A110E946A1142E50E949A0C0E94FD
:1018A0007811F2E0E3E540814093C6000E949A0C73
:1018B000F2E0E4E540814093C6000E949A0C4AE3BE
:1018C0000E949A0CF2E0E5E540814093C6000E9438
:1018D0009A0CF2E0E6E540814093C6000E949A0C23
:1018E0000E94711143E50E949A0C0E947811F1E068
:1018F000E1E540814093C6000E949A0CF1E0E3E5E7
:1019000040814093C6000E949A0C4AE30E949A0CC0
:10191000F1E0E5E540814093C6000E949A0CF1E0B9
:10192000E6E540814093C6000E949A0C0E946A112D
:101930000C945C0A0091C00005FFFCCF4093C600E8
:101940000895FAE0ECE71591123041F00091C000E3
:1019500005FFFCCF1093C600F6CF08950C94600AE3
:10196000F9E0EEEE00C01591123039F00091C000A0
:1019700005FFFCCF1093C600F6CF0091C00007FF13
:10198000FCCF5090C6005092C600F2E0E3E15082D6
:1019900000E3501AEAE05E9E502C509276030091CC
:1019A000C00007FFFCCF5090C6005092C600F2E086
:1019B000E4E1508200E3501A00917603500E5092F9
:1019C00076030C944210F9E0EEEE00C0159112304F
:1019D00039F00091C00005FFFCCF1093C600F6CF90
:1019E0000091C00007FFFCCF5090C6005092C60087
:1019F000F2E0E6E1508200E3501AEAE05E9E502CED
:101A0000509278030091C00007FFFCCF5090C600B1
:101A10005092C600F2E0E7E1508200E3501A0091D4
:101A20007803500E509278030C944210F9E0EEEED9
:101A300000C01591123039F00091C00005FFFCCFB5
:101A40001093C600F6CF0091C00007FFFCCF509066
:101A5000C6005092C600F2E0E9E1508200E3501A5D
:101A6000EAE05E9E502C50927A030091C00007FF7E
:101A7000FCCF5090C6005092C600F2E0EAE15082DE
:101A800000E3501A00917A03500E50927A030C949E
:101A90004210F9E0EEEE00C01591123039F00091DD
:101AA000C00005FFFCCF1093C600F6CF0091C00028
:101AB00007FFFCCF5090C6005092C600F2E0EDE167
:101AC000508200E3501AEAE05E9E502C50927D0353
:101AD0000091C00007FFFCCF5090C6005092C60096
:101AE000F2E0EEE1508200E3501A00917D03500EC7
:101AF00050927D030C944210F9E0EEEE00C0159177
:101B0000123039F00091C00005FFFCCF1093C600E1
:101B1000F6CF0091C00007FFFCCF5090C600509256
:101B2000C600F2E0E1E2508200E3501AEAE05E9E75
:101B3000502C509280030091C00007FFFCCF5090C2
:101B4000C6005092C600F2E0E2E2508200E3501A72
:101B500000918303500E509283030C944210F9E0DD
:101B6000EEEE00C01591123039F00091C00005FF73
:101B7000FCCF1093C600F6CF0091C00007FFFCCF4A
:101B80005090C6005092C600F2E0E5E2508200E3B9
:101B9000501AEAE05E9E502C509283030091C000E0
:101BA00007FFFCCF5090C6005092C600F2E0E6E27C
:101BB000508200E3501A00918303500E5092830329
:101BC0000C944210F9E0EEEE00C01591123039F09D
:101BD0000091C00005FFFCCF1093C600F6CF009126
:101BE000C00007FFFCCF5090C6005092C600F2E044
:101BF000E9E2508200E3501AEAE05E9E502C5092D7
:101C000086030091C00007FFFCCF5090C6005092A1
:101C1000C600F2E0EAE2508200E3501A0091860327
:101C2000500E509286030C944210F9E0EEEE00C084
:101C30001591123039F00091C00005FFFCCF1093D0
:101C4000C600F6CF0091C00007FFFCCF5090C60041
:101C50005092C600F2E0EDE2508200E3501AEAE052
:101C60005E9E502C509289030091C00007FFFCCF6C
:101C70005090C6005092C600F2E0EEE2508200E3BF
:101C8000501A00918903500E509289030C9442100F
:101C9000F9E0EEEE00C01591123039F00091C0006D
:101CA00005FFFCCF1093C600F6CF0091C00007FFE0
:101CB000FCCF5090C6005092C6005092310200E313
:101CC000501AEAE05E9E502C50928C030091C000A6
:101CD00007FFFCCF5090C6005092C60050923202CF
:101CE00000E3501A00918C03500E50928C030C9418
:101CF0004210F9E0EEEE00C01591123039F000917B
:101D0000C00005FFFCCF1093C600F6CF0091C000C5
:101D100007FFFCCF5090C6005092C600509234028C
:101D200000E3501AEAE05E9E502C50928E03009120
:101D3000C00007FFFCCF5090C6005092C6005092E2
:101D4000350200E3501A00918E03500E50928E031C
:101D50000C944210F9E0EEEE00C01591123039F00B
:101D60000091C00005FFFCCF1093C600F6CF009194
:101D7000C00007FFFCCF5090C6005092C6005092A2
:101D8000370200E3501AEAE05E9E502C5092900316
:101D90000091C00007FFFCCF5090C6005092C600D3
:101DA0005092380200E3501A00919003500E509266
:101DB00090030C944210F9E0EEEE00C01591123041
:101DC00039F00091C00005FFFCCF1093C600F6CF9C
:101DD0000091C00007FFFCCF5090C6005092C60093
:101DE00050923B0200E3501AEAE05E9E502C509263
:101DF00093030091C00007FFFCCF5090C6005092A3
:101E0000C60050923C0200E3501A00919303500E1A
:101E1000509293030C944210F9E0EEEE00C015913D
:101E2000123039F00091C00005FFFCCF1093C600BE
:101E3000F6CF0091C00007FFFCCF5090C600509233
:101E4000C60050923F0200E3501AEAE05E9E502C1A
:101E5000509296030091C00007FFFCCF5090C6003F
:101E60005092C6005092400200E3501A009196032F
:101E7000500E509296030C944210F9E0EEEE00C022
:101E80001591123039F00091C00005FFFCCF10937E
:101E9000C600F6CF0091C00007FFFCCF5090C600EF
:101EA0005092C6005092430200E3501AEAE05E9E50
:101EB000502C509299030091C00007FFFCCF509026
:101EC000C6005092C6005092440200E3501A00919E
:101ED0009903500E509299030C94600AF9E0EEEECB
:101EE00000C01591123039F00091C00005FFFCCF01
:101EF0001093C600F6CF0091C00007FFFCCF5090B2
:101F0000C6005092C6005092470200E3501AEAE021
:101F10005E9E502C50929C030091C00007FFFCCFA6
:101F20005090C6005092C600F3E05092480200E381
:101F3000501A00919C03500E50929C030C94421036
:101F4000F9E0EEEE00C01591123039F00091C000BA
:101F500005FFFCCF1093C600F6CF0091C00007FF2D
:101F6000FCCF5090C6005092C60050924B0200E346
:101F7000501AEAE05E9E502C50929F030091C000E0
:101F800007FFFCCF5090C6005092C60050924C0202
:101F900000E3501A00919F03500E50929F030C943F
:101FA0004210F9E0EEEE00C01591123039F00091C8
:101FB000C00005FFFCCF1093C600F6CF0091C00013
:101FC00007FFFCCF5090C6005092C60050925302BB
:101FD00000E3501AEAE05E9E502C5092A20300915A
:101FE000C00007FFFCCF5090C6005092C600509230
:101FF000540200E3501A0091A203500E5092A20323
:102000000C944210F9E0EEEE00C01591123039F058
:102010000091C00005FFFCCF1093C600F6CF0091E1
:10202000C00007FFFCCF5090C6005092C6005092EF
:1020300051010AE0509E109252010091C00007FF2A
:10204000FCCF5090C6005092C600509253010091B0
:102050005201050D009352010091C00007FFFCCF13
:102060005090C6005092C600509255010091C00099
:1020700007FFFCCF5090C6005092C6005092560108
:102080000C944210F9E0E8E800C01591123081F09C
:102090000091C00005FFFCCF1093C600F6CF089555
:1020A0000091C00007FFFCCF0C94600A05CA04CA67
:1020B0000091C00007FFFCCF0C94600A0C945C0AEE
:1020C00044E50E949A0C0E947811F1E0E1E540811C
:1020D0004093C6000E949A0CF1E0E3E540814093F2
:1020E000C6000E949A0C4AE30E949A0CF1E0E5E5D2
:1020F00040814093C6000E949A0CF1E0E6E54081E1
:102100004093C6000E949A0C0E946A110E947111AD
:1021100045E50E949A0C0E947811F1E0EBE54081C0
:102120004093C6000E949A0CF1E0ECE54081409398
:10213000C6000E949A0CF1E0EDE540814093C60094
:102140000E949A0C0E948011F1E0EEE540814093DC
:10215000C6000E949A0C0E946A110E94711146E505
:102160000E949A0C0E947811F1E0E4E640814093CD
:10217000C6000E949A0CF1E0E5E640814093C6005B
:102180000E949A0CF1E0E6E640814093C6000E946E
:102190009A0C0E948011F1E0E7E640814093C6006E
:1021A0000E949A0C0E946A110E94711147E50E94D8
:1021B0009A0C0E947811F1E0EDE640814093C60050
:1021C0000E949A0CF1E0EEE640814093C6000E9426
:1021D0009A0CF1E0EFE640814093C6000E949A0C11
:1021E0000E948011F1E0E0E740814093C6000E9428
:1021F0009A0C0E94711148E50E949A0C0E94781175
:10220000F1E0EEE741914093C6000E949A0C4081B4
:102210004093C6000E949A0CF1E0E0E840814093B0
:10222000C6000E949A0CF1E0E1E840814093C600AC
:102230000E949A0C0E946A110E94711149E50E9445
:102240009A0C0E947811F1E0E7E840814093C600C3
:102250000E949A0CF1E0E8E840814093C6000E9499
:102260009A0CF1E0E9E840814093C6000E949A0C84
:10227000F1E0EAE840814093C6000E949A0C0E9477
:102280006A110E9471114AE50E949A0C0E9478110D
:10229000F1E0E5E740814093C6000E949A0CF1E02E
:1022A000E6E740814093C6000E949A0CF1E0E7E720
:1022B00040814093C6000E949A0CF1E0E8E740811B
:1022C0004093C6000E949A0C0E946A110C94600A06
:1022D0004CE3089540E20E949A0C40E20E949A0C5E
:1022E00008954DE00E949A0C4AE00E949A0C0895CD
:1022F0004FE50E949A0C089540E30E949A0C0895BD
:102300004CE20E949A0C089550E0E0E008E00EBF15
:102310000FEF0DBF0FEF0CE10093C10004E000933D
:10232000C20007E60093C40000E600937C0007E8C3
:1023300000937A0000E007B90E94AC11F1E0E1E5FA
:1023400038E20E9478120FEF04B903E000936900AD
:1023500001E00DBB7894A3C841E34093130240E32E
:10236000F2E0E4E140830AE00093760343E3F2E025
:10237000E6E1408342E3F2E0E7E1408300E20093DC
:10238000780341E3F2E0E9E1408348E3F2E0EAE187
:10239000408302E100937A0342E3F2E0EDE14083FF
:1023A00046E3F2E0EEE140830AE100937D03E0E0E2
:1023B00042E3F2E0E1E2408344E3F2E0E2E2408320
:1023C00008E10093800340E3F2E0E5E2408341E36B
:1023D000F2E0E6E2408301E00093830342E3F2E0AF
:1023E000E9E2408346E3F2E0EAE240830AE1009357
:1023F000860341E3F2E0EDE2408348E3F2E0EEE2FF
:10240000408302E10093890342E3F2E0E1E3408389
:1024100044E3F2E0E2E3408308E100938C0340E30D
:10242000F2E0E4E3408341E3F2E0E5E3408301E0EE
:1024300000938E0340E3F2E0E7E3408341E3F2E000
:10244000E8E3408301E00093900345E3F2E0EBE32F
:10245000408340E3F2E0ECE3408305E00093930324
:1024600040E3F2E0EFE3408341E3F2E0E0E4408365
:1024700001E00093960345E3F2E0E3E4408340E3A8
:10248000F2E0E4E4408302E30093990340E3F2E0E6
:10249000E7E4408347E3F2E0E8E4408307E00093A9
:1024A0009C0340E3F2E0EBE4408346E3F2E0ECE43B
:1024B000408340E3F2E0EFE4408340E3F2E0E0E514
:1024C000408306E000939F0341E3F2E0E3E54083AD
:1024D00049E3F2E0E4E5408340E3F2E0E5E54083F0
:1024E00040E3F2E0E6E5408303E10093A2030895B0
:1024F000303029F040E34083E3953A95F9CF0895D1
:1025000018951895189518959F93CF920F931F9330
:102510002F933F934F93EF93FF931FB71F935F92B8
:10252000109150011395123351F01093500118324D
:1025300011F00C94EF120E9428140C94EF120E94D8
:10254000FC1210E0109350011091590113951C33A7
:1025500021F0109359010C94EF1210E010935901DF
:10256000109156011395193321F0109356010C94D4
:10257000EF1210E31093560110915501153329F015
:102580001395109355010C94EF1210E3109355011D
:102590001091520113951831A8F410935201109123
:1025A0005301193329F01395109353010C94EF1232
:1025B00010E31093530110915101139510935101A1
:1025C0000C94EF121091530110E31093530110E398
:1025D0001093510110E0109352010C94EF125F9090
:1025E0001F911FBFFF91EF914F913F912F911F912D
:1025F0000F91CF909F91189500E600937C000E9468
:10260000A31460935B0150935C0140935D012093A0
:102610005E013093150301E600937C000E94A31431
:1026200060936401509365014093660120936701B4
:102630003093170302E600937C000E94A31460937A
:102640006D0150936E0140936F01209370013093A0
:10265000190303E600937C000E94A31460937501A4
:1026600050937601409377012093780130931E03B5
:1026700004E600937C000E94A31460937E015093B3
:102680007F0140938001209381013093240302E372
:1026900000937C000E94A3146093870150938801EB
:1026A0004093890120938A0130932A03089510E012
:1026B0002081E3953081E3954081213331F022334D
:1026C00009F0089508EC100F03C004E6100F00C0D5
:1026D0003133A1F03233A9F03333B1F03433B9F0F0
:1026E0003533C1F03633C9F03733D1F03833D9F050
:1026F000393309F008950AE5100F18C00AE0100FE9
:1027000015C004E1100F12C00EE1100F0FC008E257
:10271000100F0CC002E3100F09C00CE3100F06C02D
:1027200006E4100F03C000E5100F00C04133A1F014
:102730004233A9F04333B1F04433B9F04533C1F02B
:102740004633C9F04733D1F04833D9F0493309F063
:10275000089509E0100F089501E0100F089502E0B8
:10276000100F089503E0100F089504E0100F08956E
:1027700005E0100F089506E0100F089507E0100F10
:10278000089505E0100F08953081E395408190E0B1
:102790003133A1F03233A9F03333B1F03433B9F02F
:1027A0003533C1F03633C9F03733D1F03833D9F08F
:1027B000393309F008959AE5100F18C00AE0900F18
:1027C00015C004E1900F12C00EE1900F0FC008E297
:1027D000900F0CC002E3900F09C00CE3900F06C0ED
:1027E00006E4900F03C000E5900F00C04133A1F054
:1027F0004233A9F04333B1F04433B9F04533C1F06B
:102800004633C9F04733D1F04833D9F0493309F0A2
:10281000089509E0900F089501E0900F089502E0F7
:10282000900F089503E0900F089504E0900F08952D
:1028300005E0900F089506E0900F089507E0900FCF
:10284000089505E0900F0895009125041023089540
:102850000E9430140E946C1413B110932504089543
:102860005090900320911E03521690F050909F03B9
:1028700020915201251518F4251550F00895509017
:10288000A20320915201251518F4251530F0089562
:102890002F982D982E9A2C9A089511E00E942414B6
:1028A000113019F02D9A2C98089500911E03109163
:1028B000990320919C0390E0910F920F091730F437
:1028C00090E0910F921B901720F408952D982C9A68
:1028D00008952D9A2C9808955090900320912403E8
:1028E0005216B0F250909F0320915201251518F412
:1028F000251570F208955090A203209152012515DC
:1029000038F6251508F0089512E00E9424141230BC
:1029100019F02F9A2E980895009124031091930393
:102920002091960390E0910F920F091778F690E0AE
:10293000910F921B901720F408952F982E9A0895C6
:102940002D9A2C98089540E050E060E020E000E0EF
:1029500007B900C00E94DF140E94E614209178009D
:102960003091790040E050E060E0032F0E94BD14F8
:1029700010E3410F510F610F0895043618F063956D
:102980000456FBCF0A3018F053950A50FBCF0130A4
:1029900018F043950150FBCF00C0203C41F0203897
:1029A00041F0203441F0203041F00C944F0A27E3ED
:1029B000089525E3089522E3089520E3089500E4AF
:1029C00010917A00102B10937A00089510917A00DC
:1029D00014FF0C94E61400E110917A00102B109370
:0429E0007A000895DC
:00000001FF
