:020000020000FC
:1002A0000A2A2A2A3E3E3E53656C656363696F6E77
:1002B00065206C6120616363696F6E2061207265E7
:1002C000616C697A61723C3C3C202A2A2A0A0A3114
:1002D0002D4D6F73747261722056616C6F7265730D
:1002E0002E2E2E0D0A20322D436F6E6669677572B1
:1002F00061722056616C6F7265732E2E2E0D0A335B
:100300002D4461746F732044656C2070726F796541
:1003100063746F2E2E2E20020A2A2A2A204D45446D
:100320004943494F4E4553202A2A2A0A3C20427508
:10033000737175652063616461206D6564696369CB
:10034000F36E20736567756E207375204C6574724B
:100350006120203E486F7261206465206C617320CB
:100360006D65646963696F6E65733A20542020542B
:10037000656D70657261747572612045787465721F
:10038000696F723A20550D0A2054656D706572616F
:1003900074757261204C6976696E672F436F6D6565
:1003A000646F722F436F63696E613A20562020207C
:1003B0002054656D706572617475726120446F724E
:1003C0006D69746F72696F3A2057200D0A204C7561
:1003D0007A20446F726D69746F72696F3A20205889
:1003E00020204C757A204578746572696F723A20C6
:1003F000205920204C757A204C6976696E672F430E
:100400006F63696E612F436F6D65646F723A202070
:100410005A200D0A09312D52656672657363617247
:1004200061722056616C6F7265732E2E2E20352DF1
:10043000564F4C56455220414C204D454E5520417B
:100440004E544552494F52200D0A56414C4F524589
:1004500053203E020A414456455254454E434941B9
:10046000210A20534920564120412043414D424911
:10047000415220414C474F2054454E474120454C66
:10048000204355494441444F204445204841434579
:10049000524C4F20444520464F524D4120434F4837
:1004A0004552454E54452C200D0A2054454E494591
:1004B0004E444F20454E204355454E544120515502
:1004C000453A204C412054454D50455241545552D7
:1004D00041204D494E494D41204120494E4752450A
:1004E000534152204553203030202059204C412088
:1004F0004D4158494D412039393B454E20435541E6
:100500004E544F204C4F53204C55584F4D4554524C
:100510004F532C20535520505245434953494F4E79
:10052000204553204445203130204C555845532C0C
:1005300020504F52204C4F2051554520534F4C4F87
:1005400020534520434F4E4649475552414E204483
:100550004520313020454E204449455A2C0D0A2073
:100560005349454E444F20454C2056414C4F522054
:100570004D494E494D4F20303130205920454C20B7
:100580004D4158494D4F203939300A000D0A0A2A89
:100590002A2A2041686F72612073692C2073656C70
:1005A000656363696F6E6520656C2076616C6F7240
:1005B00020612063616D6269617220202A2A2A0A03
:1005C0000954656D70657261747572617320656E32
:1005D00020477261646F732043656E74696772614E
:1005E000646F7309090A412D54656D7065726174F9
:1005F000757261204578746572696F72204D696EFD
:10060000696D61200D0A422D54656D7065726174CB
:10061000757261204578746572696F72204D6178DA
:10062000696D61200D0A432D54656D7065726174AA
:10063000757261204C6976696E672F436F6D6564D2
:100640006F722F436F63696E61204D696E696D61D2
:100650000D0A442D54656D70657261747572612068
:100660004C6976696E672F436F6D65646F722F43B7
:100670006F63696E61204D6178696D610D0A452D6A
:1006800054656D7065726174757261204C6976692C
:100690006E672F436F6D65646F722F436F63696E72
:1006A000612064657365616461200D0A462D4869A7
:1006B0007374657269736973206465206C6120745A
:1006C000656D70657261747572612064656C204C33
:1006D0006976696E672F436F6D65646F722F436F24
:1006E00063696E613A000D0A472D54656D7065723D
:1006F000617475726120446F726D69746F72696F95
:10070000204D6178696D61200D0A482D54656D702A
:100710006572617475726120446F726D69746F7275
:10072000696F204D696E696D61200D0A492D546510
:100730006D706572617475726120446F726D697459
:100740006F72696F20446573656164610D0A4A2D9B
:1007500048697374657269736973206465206C619C
:100760002074656D70657261747572612064656C6A
:1007700020446F726D69746F72696F200D0A4C7539
:1007800063657320656E204C7578733A0D0A4B2DA6
:100790004C757A204578746572696F72204D696E68
:1007A000696D61200D0A4D2D56616C6F7220646574
:1007B000736561646F206465206C6120496C756DA0
:1007C000696E6163696F6E2064656C20646F726D21
:1007D00069746F72696F0D0A4C2D48697374657284
:1007E00069736973206465206C61206C757A20647C
:1007F000656C20646F726D69746F72696F000D0AA9
:100800004F2D56616C6F72206465736561646F2053
:100810006465206C6120496C756D696E6163696FF8
:100820006E2064656C204C6976696E672F436F6D2E
:1008300065646F722F436F63696E61200D0A502DDE
:1008400048697374657269736973206465206C61AB
:10085000206C757A2064656C204C6976696E672F10
:10086000436F6D65646F722F436F63696E610D0A2C
:1008700045737175656D6120686F726172696F3A59
:100880000D0A512D486F726120646520496E6963BD
:10089000696F2064656C204469610D0A522D486FB0
:1008A00072612064652046696E2064656C2044692D
:1008B00061200D0A532D436F6E6669677572617210
:1008C00020486F72612041637475616C2F416374BD
:1008D00075616C697A61722052656C6F6A200D0ACD
:1008E000352D564F4C56455220414C204D454E55C6
:1008F00020414E544552494F52200D0A56616C6FAB
:100900007265732041637475616C65733A20285376
:100910006567756E2063616461206C65747261291E
:100920002002202043616D626961646F212044656B
:100930007365612063616D6269617220616C676FCC
:10094000206D61733F0D0A352D4E4F2C20566F6C74
:1009500076657220416C206D656E75207072696ECF
:10096000636970616C0D0A322D53692C20766F6CAF
:1009700076657220616C206D656E7520616E7465A0
:1009800072696F72200D0A02496E67726573652085
:10099000656C206E7565766F2076616C6F723A09B2
:1009A00002000945786973746520756E6120636F74
:1009B0006E6669677572616369F36E206E6F20768B
:1009C000E16C6964612E204E4F20534520454A4515
:1009D0004355544152C1204E4144410909506F7260
:1009E000206661766F722C20696E67726573652070
:1009F000756E6120636F6E6669677572616369F316
:100A00006E2076E16C696461206F207265696E69A1
:100A10006369650902000D0A0D0A0D0A20202020D5
:100A200020202020202020202020202020202020C6
:100A3000202020202020202020202020202E2A239B
:100A4000232323232323232B202020200D0A2020AF
:100A50002020202020202020202020202020202096
:100A600020202020202020202020202020203D4049
:100A7000402B2B2B2B2B2B2B2B2D202020200D0A1A
:100A80002020202020202020202020202020202066
:100A900020202020202020202020202020202D2544
:100AA000402A2E202020202020202020202020200E
:100AB000200D0A002020202020202020202020207F
:100AC0002020202020202020202020202020202026
:100AD000202D2A2A2D2020202020202020202020E8
:100AE00020202020200D0A0020202020202020204F
:100AF000202020202020202020202E2E2E2E2E2EA2
:100B00002E2E2E2E2E2E2E2E202020202020202075
:100B10002020202020202020200D0A00202020201E
:100B200020202020202020202020203A2A40404041
:100B3000404040404040404040404040402A3A20F1
:100B400020202020202020202020202020202020A5
:100B50000D0A2020202020202020202020202020BE
:100B600020254040404040404040404040404040C0
:100B700040404040252020202020202020202020F0
:100B800020202020484543484F20504F523A2046CD
:100B90004142524943494F2044415649442047412C
:100BA0004C4C4F20200D0A00202020202020202007
:100BB000202020202020202A2A2A2A2A2A2A2A2ADB
:100BC0002A2A2A2A2A2A2A2A2A2A2A2020202020B7
:100BD0002020202020202020202020202020200D28
:100BE0000A00202020202020202020202020202B30
:100BF00040404040404040404040404040404040F5
:100C00004040404040402B20202020202020202019
:100C1000202020202041204D4F444F204445205487
:100C2000524142414A4F2046494E414C2050415288
:100C300041204C4120434154454452413A0D0A0061
:100C40002020202020202020202020203D40404027
:100C50004040404040404040404040404040404094
:100C600040404040403D20202020202020202020C7
:100C70002020202053495354454D41532044494797
:100C80004954414C455320495620200D0A0020204C
:100C90002020202020202020203A4040404040407A
:100CA0004040404040404040404040404040404044
:100CB000404040403A20202020202020202020209A
:100CC00020200D0A2020202020202020202020234A
:100CD0004040404040404040404040404040404014
:100CE00040404040404040404040232020202020C1
:100CF000202020202020202020200D0A202020201D
:100D00002020202020203A404040404040404040A9
:100D100040404040404040404040404040404040D3
:100D20004040403A20202020202020202020202049
:100D30002050524F4645534F5245533A204C494359
:100D40002E204A554C49414E204D494E4154454C68
:100D5000200D0A00202020202020202020203D409F
:100D60004040404040404040404040404040404083
:100D700040404040404040404040403D090909203B
:100D80002020494E472E2056454C415A5155455A30
:100D9000204544554152444F0D0A20202020202058
:100DA000202020203D4040404040404040404040C6
:100DB0004040404040404040404040404040404033
:100DC000402D2020202020202020202020202020F6
:100DD0000D0A202020202020202020202E404040CE
:100DE0004040404040404040404040404040404003
:100DF0004040404040404040402E202020202020C5
:100E000020202020202020200D0A2020202020200B
:100E100020202020202B4040404040404040404087
:100E200040404040404040404040404040404040C2
:100E30002B2020202020202020202020202043495B
:100E4000434C4F204C45435449564F2032303233A7
:100E500020200D0A202020202020202020202020BB
:100E60002A40404040404040404040404040404098
:100E70004040404040404040402A20202020202048
:100E8000202020202020202020200D0A202020208B
:100E90002020202020202020203D40404040404075
:100EA000404040404040404040404040404040255D
:100EB0003D20202020202020202020202020202015
:100EC00020200D0A2020202020202020202020204B
:100ED00020202E3D25404040404040404040404082
:100EE0004040404040253D2E202020202020202032
:100EF000202020202020202020200D0A202020201B
:100F00002020202020202020202020202E2D3D2B9E
:100F10002B2B2B202B2B2B2B2B2B3D2D2E20202036
:100F200020202020202020202020202020202020C1
:100F300020200D0A202020202020202020202020DA
:100F400020202020202020202020202020202020A1
:100F50002020202020202020202020202020202091
:100F6000205F5F5F5F7C7C5F5F5F5F0D0A00444FC7
:100F70004D4F5449434120444520444F5320414D57
:100F80004249454E54455320202020202020202037
:100F9000202020202020202020202F2F2F2F2F2FF7
:100FA0002F2F2F2F2F5C0D0A20457320756E207078
:100FB000726F796563746F2C20656E207175652082
:100FC000636F6E20736520636F6E74726F6C616EF9
:100FD0002020202F2F2F2F2F2F2F2F2F2F2F20206C
:100FE0005C0D0A002020202020206C757A207920BA
:100FF00074656D70657261747572612064652064DA
:101000006F7320616D6269656E7465732C20207C3E
:10101000202020205F202020207C20207C0D0A0022
:101020002020656C20646F726D69746F72696F2027
:101030007920656C206C6976696E672F20202020EE
:1010400020202020202020202020207C5B5D207C70
:10105000207C205B5D7C5B5D7C0D0A00636F6D65B1
:10106000646F722F636F63696E61202020202020DF
:101070002020202020202020202020202020202070
:10108000202020202020207C2020207C207C20204C
:10109000207C20207C0D0A00090909352D20566F7F
:1010A0006C76657220416C206D656E75207072697A
:1010B0006E636970616C09090909090D0A02F2E0A1
:1010C000E0EA1591123041F00091C00005FFFCCF1D
:1010D0001093C600F6CF08950091C00007FFFCCF23
:1010E0002091C600213359F1223359F1233359F1AC
:1010F000243359F1253319F3213449F1223449F1CC
:10110000233449F1243449F1253449F1263449F195
:10111000273449F1283449F1293449F12A3449F175
:101120002B3449F12D3449F12C3449F12F3449F154
:10113000213559F1223559F1CFCF233551F10C9496
:10114000CD080C94DF080C94870A0C94DB080C94EF
:10115000960A0C94BB0A0C94E00A0C94050B0C94B0
:101160002A0B0C944F0B0C94740B0C94990B0C944D
:10117000BE0B0C94E10B0C94040C0C94270C0C94F7
:101180004A0C0C946D0C0C948E0C0C94B00C0C94BA
:10119000E70C0C941E0D0C947008F3E0E8E1159137
:1011A000123039F00091C00005FFFCCF1093C6004B
:1011B000F6CF0C94730D0C94690D0C946A0DF4E049
:1011C000E4E50E94E3081591123039F00091C00067
:1011D00005FFFCCF1093C600F6CF41E40E94800AC1
:1011E0000E94290EF1E0EAE640814093C6000E9489
:1011F000800AF1E0EBE640814093C6000E94800A3D
:101200000E941B0E42E40E94800A0E94290EF1E017
:10121000EDE640814093C6000E94800AF1E0EEE6D0
:1012200040814093C6000E94800A0E941B0E43E446
:101230000E94800A0E94290EF1E0E0E7408140937D
:10124000C6000E94800AF1E0E1E740814093C600B9
:101250000E94800A0E94220E44E40E94800A0E949A
:10126000290EF1E0E4E740814093C6000E94800A25
:10127000F1E0E5E740814093C6000E94800A0E94A9
:101280001B0E45E40E94800A0E94290EF1E0E8E767
:1012900040814093C6000E94800AF1E0E9E7408166
:1012A0004093C6000E94800A0E941B0E46E40E94E2
:1012B000800A0E94290EF1E0ECE740814093C600CD
:1012C0000E94800AF1E0EDE740814093C6000E9451
:1012D000800A0E941B0E47E40E94800A0E94290E89
:1012E000F1E0E0E840814093C6000E94800AF1E00E
:1012F000E1E840814093C6000E94800A0E94220ECD
:1013000048E40E94800A0E94290EF1E0E4E840814E
:101310004093C6000E94800AF1E0E5E840814093D6
:10132000C6000E94800A0E941B0E49E40E94800AA7
:101330000E94290EF1E0E8E840814093C6000E9437
:10134000800AF1E0EBE640814093C6000E94800AEB
:101350000E941B0E4AE40E94800A0E94290EF1E0BE
:10136000EBE840814093C6000E94800AF1E0ECE87F
:1013700040814093C6000E94800A0E941B0E4BE4ED
:101380000E94800A0E94290EF1E0EEE8408140931D
:10139000C6000E94800AF1E0EFE840814093C60059
:1013A0000E94800A0E942D0E0E94220E4DE40E948F
:1013B000800A0E94290EF1E0E2E940814093C600D4
:1013C0000E94800AF1E0E3E940814093C6000E9458
:1013D000800A0E942D0E0E941B0E4CE40E94800A7F
:1013E0000E94290EF1E0E6E940814093C6000E9488
:1013F000800AF1E0E7E940814093C6000E94800A3C
:101400000E942D0E0E941B0E4FE40E94800A0E9433
:10141000290EF1E0EAE940814093C6000E94800A6B
:10142000F1E0EBE940814093C6000E94800A0E94EF
:101430002D0E0E941B0E40E50E94800A0E94290E7C
:10144000F1E0E0EA40814093C6000E94800AF1E0AA
:10145000E1EA40814093C6000E94800A0E942D0E5E
:101460000E941B0E41E50E94800A0E94290EF1E0B5
:10147000E4EA40814093C6000E94800AF1E0E5EA78
:1014800040814093C6000E94800A4AE30E94800A7D
:10149000F1E0E6EA40814093C6000E94800AF1E054
:1014A000E7EA40814093C6000E94800A0E941B0E1A
:1014B0000E941B0E42E50E94800A0E94290EF1E064
:1014C000EAEA40814093C6000E94800AF1E0EBEA1C
:1014D00040814093C6000E94800A4AE30E94800A2D
:1014E000F1E0ECEA40814093C6000E94800AF1E0FE
:1014F000EDEA40814093C6000E94800A0C946C087B
:101500000091C00005FFFCCF4093C6000895FAE0AB
:10151000E6E11591123041F00091C00005FFFCCFCB
:101520001093C600F6CF08950C947008F9E0E8E82F
:1015300000C01591123039F00091C00005FFFCCFBA
:101540001093C600F6CF0091C00007FFFCCF50906B
:10155000C6005092C600F1E0EAE650820091C00059
:1015600007FFFCCF5090C6005092C600F1E0EBE6BA
:1015700050820C94550DF9E0E8E800C01591123046
:1015800039F00091C00005FFFCCF1093C600F6CFE4
:101590000091C00007FFFCCF5090C6005092C600DB
:1015A000F1E0EDE650820091C00007FFFCCF5090C3
:1015B000C6005092C600F1E0EEE650820C94550D44
:1015C000F9E0E8E800C01591123039F00091C00050
:1015D00005FFFCCF1093C600F6CF0091C00007FFB7
:1015E000FCCF5090C6005092C600F1E0E0E7508278
:1015F0000091C00007FFFCCF5090C6005092C6007B
:10160000F1E0E1E750820C94550DF9E0E8E800C004
:101610001591123039F00091C00005FFFCCF1093F6
:10162000C600F6CF0091C00007FFFCCF5090C60067
:101630005092C600F1E0E4E750820091C00007FF3D
:10164000FCCF5090C6005092C600F1E0E5E7508212
:101650000C94550DF9E0E8E800C01591123039F00E
:101660000091C00005FFFCCF1093C600F6CF00919B
:10167000C00007FFFCCF5090C6005092C600F1E0BA
:10168000E8E750820091C00007FFFCCF5090C600F1
:101690005092C600F1E0E9E750820C94550DF9E054
:1016A000E8E800C01591123039F00091C00005FF44
:1016B000FCCF1093C600F6CF0091C00007FFFCCF0F
:1016C0005090C6005092C600F1E0ECE750820091C5
:1016D000C00007FFFCCF5090C6005092C600F1E05A
:1016E000EDE750820C94550DF9E0E8E800C0159143
:1016F000123039F00091C00005FFFCCF1093C600F6
:10170000F6CF0091C00007FFFCCF5090C60050926A
:10171000C600F1E0E0E850820091C00007FFFCCF76
:101720005090C6005092C600F1E0E1E850820C945F
:10173000550DF9E0E8E800C01591123039F000913C
:10174000C00005FFFCCF1093C600F6CF0091C0008B
:1017500007FFFCCF5090C6005092C600F1E0E4E8CD
:1017600050820091C00007FFFCCF5090C6005092FD
:10177000C600F1E0E5E850820C94550DF9E0E8E888
:1017800000C01591123039F00091C00005FFFCCF68
:101790001093C600F6CF0091C00007FFFCCF509019
:1017A000C6005092C600509288010091C00007FF09
:1017B000FCCF5090C6005092C600509289010C9404
:1017C000550DF9E0E8E800C01591123039F00091AC
:1017D000C00005FFFCCF1093C600F6CF0091C000FB
:1017E00007FFFCCF5090C6005092C60050928B016C
:1017F0000091C00007FFFCCF5090C6005092C60079
:1018000050928C010C94550DF9E0E8E800C0159158
:10181000123039F00091C00005FFFCCF1093C600D4
:10182000F6CF0091C00007FFFCCF5090C600509249
:10183000C60050928E010091C00007FFFCCF50906F
:10184000C6005092C60050928F010C94550DF9E0DD
:10185000E8E800C01591123039F00091C00005FF92
:10186000FCCF1093C600F6CF0091C00007FFFCCF5D
:101870005090C6005092C600509292010091C00054
:1018800007FFFCCF5090C6005092C60050929301C3
:101890000C94550DF9E0E8E800C01591123039F0CC
:1018A0000091C00005FFFCCF1093C600F6CF009159
:1018B000C00007FFFCCF5090C6005092C600509267
:1018C00096010091C00007FFFCCF5090C6005092D7
:1018D000C600509297010C94550DF9E0E8E800C05D
:1018E0001591123039F00091C00005FFFCCF109324
:1018F000C600F6CF0091C00007FFFCCF5090C60095
:101900005092C60050929A010091C00007FFFCCF90
:101910005090C6005092C60050929B01F9E0E8E852
:1019200000C01591123039F00091C00005FFFCCFC6
:101930001093C600F6CF0091C00007FFFCCF509077
:10194000C6005092C6005092A0010091C00007FF4F
:10195000FCCF5090C6005092C600F3E05092A10117
:10196000F9E0E8E800C01591123039F00091C000AC
:1019700005FFFCCF1093C600F6CF0091C00007FF13
:10198000FCCF5090C6005092C6005092A401009126
:10199000C00007FFFCCF5090C6005092C600509286
:1019A000A5010091C00007FFFCCF5090C6005092E7
:1019B000C6005092A6010091C00007FFFCCF5090D6
:1019C000C6005092C6005092A7010C94550DF9E044
:1019D000E8E800C01591123039F00091C00005FF11
:1019E000FCCF1093C600F6CF0091C00007FFFCCFDC
:1019F0005090C6005092C6005092AA010091C000BB
:101A000007FFFCCF5090C6005092C6005092AB0129
:101A10000091C00007FFFCCF5090C6005092C60056
:101A20005092AC010091C00007FFFCCF5090C6005F
:101A30005092C6005092AD010C94550DF9E0E8E8C3
:101A400000C01591123039F00091C00005FFC5CFDC
:101A50001093C600F6CF0091C00007FFFCCF509056
:101A6000C6005092C600509200010091C00007FFCE
:101A7000FCCF5090C6005092C600509201010091D8
:101A8000C00007FFFCCF5090C6005092C600509295
:101A900002010091C00007FFFCCF5090C600509299
:101AA000C600509203010C94550DF9E0E2E200C02B
:101AB0001591123081F00091C00005FFFCCF10930A
:101AC000C600F6CF08950091C00007FFFCCF0C942C
:101AD000700802CB01CB0091C00007FFFCCF0C9433
:101AE00070080C946C0844E50E94800A0E94290E3C
:101AF000F1E0E0E040814093C6000E94800AF1E0FE
:101B0000E1E040814093C6000E94800A4AE30E94BF
:101B1000800AF1E0E2E040814093C6000E94800A22
:101B2000F1E0E3E040814093C6000E94800A0E94F9
:101B30001B0E45E50E94800A0E94290EF1E0E9E0B3
:101B400040814093C6000E94800AF1E0EAE04081B3
:101B50004093C6000E94800A0E941B0E46E50E9428
:101B6000800A0E94290EF1E0EBE040814093C6001C
:101B70000E94800AF1E0ECE040814093C6000E94A0
:101B8000800A0E941B0E47E50E94800A0E94290ECF
:101B9000F1E0EDE040814093C6000E94800AF1E050
:101BA000EEE040814093C6000E94800A0E941B0E16
:101BB00048E50E94800A0E94290EF1E0E1E140819F
:101BC0004093C6000E94800AF1E0E2E14081409328
:101BD000C6000E94800A0E941B0E49E50E94800AEE
:101BE0000E94290EF1E0E3E140814093C6000E948B
:101BF000800AF1E0E4E140814093C6000E94800A3F
:101C00000E941B0E4AE50E94800A0E94290EF1E004
:101C1000EFE040814093C6000E94800AF1E0E0E1DD
:101C200040814093C6000E94800A0E941B0E0C94C3
:101C300070084CE3089540E20E94800A40E20E944E
:101C4000800A08954DE00E94800A4AE00E94800ABE
:101C500008954FE50E94800A089540E30E94800A9B
:101C6000089508E00EBF0FEF0DBF0FEF0CE10093DA
:101C7000C10004E00093C20007E60093C40000E640
:101C800000937C0007E800937A0041E340936A01E7
:101C900042E3F1E0EBE6408343E3F1E0EDE640832D
:101CA00048E3F1E0EEE6408341E3F1E0E0E7408322
:101CB00048E3F1E0E1E74083789401CA0C94610EB7
:101CC0001895F1E0E8E00081039500830A3009F0FF
:101CD000189500E00083F1E0E7E0008103950083C0
:101CE000053009F0189500E00083F1E0E6E000819E
:101CF000093319F003950083189500E30083F1E0A0
:101D0000E5E00081063319F003950083189500E3A0
:101D10000083F1E0E3E0008309330081039509F0DB
:101D2000189500E30083F1E0E2E0008100830633D0
:101D300011F00395189500E3F1E0E1E000810A302D
:101D400019F0039500831895F1E0E0E0208122333B
:101D500019F0239520831895043009F01895F1E0C7
:101D6000E0E000E30083089500E410917A00102B76
:101D700010937A00089510917A0014FF0C94BB0E12
:101D800000E110917A00102B10937A0008950E94C0
:101D9000EA0E0E94BB0E209178003091790070E02D
:101DA00060E080E00B2D0E94DA0EA0E37A0F6A0F4C
:101DB0008A0F082F043618F083950456FBCF0A309B
:101DC00018F063950A50FBCF013018F0739501505D
:081DD000FBCF08950C94B40E42
:100000000C94310E0C945E0E0C94600E0C94600EE9
:100010000C94600E0C94600E0C94600E0C94600EA8
:100020000C94600E0C94600E0C94600E0C94600E98
:100030000C94600E0C94600E0C94600E0C94600E88
:100040000C94600E0C94600E0C94600E0C94600E78
:100050000C94600E0C94600E0C94600E0C94600E68
:080060000C94600E0C94600E7C
:00000001FF
