:020000020000FC
:100000000C94A7110C94AB120C94A7120C94AB1285
:100010000C94A8120C94A8120C94A8120C94A81278
:100020000C94A8120C94A8120C94A8120C94A81268
:100030000C94A8120C94A8120C94A8120C94A81258
:100040000C94A8120C94A8120C94A8120C94A81248
:100050000C94A8120C94A8120C94A8120C94A81238
:080060000C94A9120C94AA12E1
:1002A0000C000D0A0A2A2A2A3E3E3E53656C6563FD
:1002B00063696F6E65206C6120616363696F6E2096
:1002C00061207265616C697A61723C3C3C202A2A2B
:1002D0002A0A0D0A0D0A312D4D6F73747261722056
:1002E00056616C6F7265732E2E2E0D0A322D436F80
:1002F0006E666967757261722056616C6F726573A4
:100300002E2E2E0D0A332D4461746F732044656CBC
:100310002070726F796563746F2E2E2E20020C0D83
:100320000A2A2A2A204D45444943494F4E45532025
:100330002A2A2A0D0A003C204275737175652063D4
:10034000616461206D65646963696F6E20736567C0
:10035000756E207375204C6574726120203E0D0A05
:10036000486F7261206465206C6173206D656469FB
:1003700063696F6E65733A2054202054656D706513
:10038000726174757261204578746572696F723A32
:1003900020550D0A2054656D706572617475726127
:1003A000204C6976696E672F436F6D65646F722F9D
:1003B000436F63696E613A20562020202054656D9A
:1003C000706572617475726120446F726D69746FCB
:1003D00072696F3A2057200D0A204C757A20446FBD
:1003E000726D69746F72696F3A20205820204C75C5
:1003F0007A204578746572696F723A2020592020FE
:100400004C757A204C6976696E672F436F63696E0D
:10041000612F436F6D65646F723A20205A200D0A78
:1004200009312D526566726573636172617220567F
:10043000616C6F7265732E2E2E20352D564F4C56E3
:10044000455220414C204D454E5520414E54455279
:10045000494F52200D0A56414C4F524553203E02FF
:100460000C000A414456455254454E434941210A25
:1004700020534920564120412043414D4249415299
:1004800020414C474F2054454E474120454C204386
:1004900055494441444F2044452048414345524C2E
:1004A0004F20444520464F524D4120434F4845522E
:1004B000454E54452C200D0A54454E49454E444F57
:1004C00020454E204355454E5441205155453A2034
:1004D0004C412054454D5045524154555241204DB8
:1004E000494E494D41204120494E475245534152C2
:1004F000204553203030202A46202059204C4120CE
:100500004D4158494D41203939202A463B204C4124
:100510005320484F5241532056414E2044452030ED
:1005200030204120323420484F5241530D0A454E6D
:10053000204355414E544F204C4F53204C55584F5B
:100540004D4554524F532C2053552050524543494A
:1005500053494F4E204553204445203130204C55BF
:100560005845532C20504F52204C4F205155452078
:10057000534F4C4F20534520434F4E464947555209
:10058000414E20444520313020454E204449455AB3
:100590002C0D0A00205349454E444F20454C20560F
:1005A000414C4F52204D494E494D4F203031302063
:1005B0004C757873205920454C204D4158494D4F7A
:1005C00020363430204C7578732C286573746F2076
:1005D00062617361646F20656E206C61206E6F7262
:1005E0006D61204952414D2D4141444C204A2032F9
:1005F000302D303629200D0A0D0A2A2A2A2041687A
:100600006F72612073692C2073656C656363696F19
:100610006E6520656C2076616C6F7220612063616D
:100620006D6269617220202A2A2A0D0A54656D7054
:10063000657261747572617320656E2047726164C2
:100640006F732046616872656E6865697420200D5D
:100650000A00412D54656D70657261747572612078
:100660004578746572696F72204D696E696D61209D
:100670000D0A422D54656D7065726174757261204A
:100680004578746572696F72204D6178696D61207B
:100690000D0A432D54656D70657261747572612029
:1006A0004C6976696E672F436F6D65646F722F4377
:1006B0006F63696E61204D696E696D610D0A442D2D
:1006C00054656D7065726174757261204C697669EC
:1006D0006E672F436F6D65646F722F436F63696E32
:1006E00061204D6178696D610D0A452D54656D700D
:1006F00065726174757261204C6976696E672F430B
:100700006F6D65646F722F436F63696E61206465FE
:100710007365616461200D0A462D486973746572C2
:1007200069736973206465206C612074656D706500
:100730007261747572612064656C204C6976696EB3
:10074000672F436F6D65646F722F436F63696E61CE
:100750003A000D0A472D54656D70657261747572AB
:100760006120446F726D69746F72696F204D61789A
:10077000696D61200D0A482D54656D706572617454
:1007800075726120446F726D69746F72696F204D6C
:10079000696E696D61200D0A492D54656D70657231
:1007A000617475726120446F726D69746F72696FE4
:1007B00020446573656164610D0A4A2D486973744C
:1007C000657269736973206465206C612074656D5E
:1007D00070657261747572612064656C20446F721B
:1007E0006D69746F72696F200D0A4C7563657320B3
:1007F000656E204C7578733A0D0A4B2D4C757A2036
:100800004578746572696F72204D696E696D6120FB
:100810000D0A4D2D56616C6F7220646573656164BD
:100820006F206465206C6120496C756D696E616331
:10083000696F6E2064656C20646F726D69746F728D
:10084000696F0D0A4C2D4869737465726973697319
:10085000206465206C61206C757A2064656C20646E
:100860006F726D69746F72696F000D0A4F2D56615A
:100870006C6F72206465736561646F206465206CC1
:100880006120496C756D696E6163696F6E20646586
:100890006C204C6976696E672F436F6D65646F726B
:1008A0002F436F63696E61200D0A502D4869737480
:1008B000657269736973206465206C61206C757A58
:1008C0002064656C204C6976696E672F436F6D6597
:1008D000646F722F436F63696E610D0A45737175A2
:1008E000656D6120686F726172696F3A0D0A512DF2
:1008F000486F726120646520496E6963696F206486
:10090000656C204469610D0A522D486F7261206444
:10091000652046696E2064656C20446961200D0A7B
:10092000532D436F6E6669677572617220486F72EE
:10093000612041637475616C2F41637475616C69EA
:100940007A61722052656C6F6A200D0A352D564F00
:100950004C56455220414C204D454E5520414E5459
:100960004552494F52200D0A56616C6F72657320D3
:1009700041637475616C65733A2028536567756EC1
:100980002063616461206C657472612920022020FB
:1009900043616D626961646F212044657365612004
:1009A00063616D6269617220616C676F206D617354
:1009B0003F0D0A352D4E4F2C20566F6C76657220F8
:1009C000416C206D656E75207072696E636970612F
:1009D0006C0D0A322D53692C20766F6C766572206F
:1009E000616C206D656E7520616E746572696F72E1
:1009F000200D0A02496E677265736520656C206E72
:100A00007565766F2076616C6F723A090200094550
:100A1000786973746520756E6120636F6E666967AF
:100A20007572616369F36E206E6F2076E16C6964A4
:100A3000612E204E4F20534520454A454355544191
:100A400052C1204E4144410909506F7220666176BF
:100A50006F722C20696E677265736520756E6120F8
:100A6000636F6E6669677572616369F36E2076E124
:100A70006C696461206F207265696E6963696509DC
:100A800002000C000D0A3D3D3D3D3D3D3D3D3D3DDF
:100A90003D3D3D3D3D3D3D3D3D3D3D3D3D3D3D3D86
:100AA0003D3D3D3D3D3D3D3D3D3D3D3D3D3D3D3D76
:100AB0003D3D3D3D3D3D3D3D3D3D3D3D3D3D3D3D66
:100AC0003D3D3D3D3D3D0D0A2020202020202020A1
:100AD0002020202020202020202020202020202016
:100AE0002020202020202020202020202020202006
:100AF00020202020205F5F5F5F7C7C5F5F5F5F0D59
:100B00000A00444F4D4F5449434120444520444F2F
:100B10005320414D4249454E5445533A2020202010
:100B200020202020202020202020202020202F2FA7
:100B30002F2F2F2F2F2F2F2F2F5C0D0A20457320A3
:100B4000756E2070726F796563746F2C20656E20EE
:100B500071756520636F6E20736520636F6E7472AC
:100B60006F6C616E2020202F2F2F2F2F2F2F2F2FD4
:100B70002F2F20205C0D0A002020202020206C75C3
:100B80007A20792074656D70657261747572612068
:100B9000646520646F7320616D6269656E7465734E
:100BA0002C20207C202020205F202020207C202042
:100BB0007C0D0A002020656C20646F726D69746F73
:100BC00072696F207920656C206C6976696E672F79
:100BD0002020202020202020202020202020207CB9
:100BE0005B5D207C207C205B5D7C5B5D7C0D0A0076
:100BF000636F6D65646F722F636F63696E61202030
:100C000020202020202020202020202020202020E4
:100C100020202020202020202020207C2020207C1C
:100C2000207C2020207C20207C0D0A000D0A0D0A4B
:100C30000D0A2020202020202020202020202020DD
:100C400020202020202020202020202020202020A4
:100C50002020202E2A23232323232323232B202059
:100C600020200D0A202020202020202020202020AD
:100C70002020202020202020202020202020202074
:100C8000202020203D40402B2B2B2B2B2B2B2B2DA2
:100C9000202020200D0A202020202020202020207D
:100CA0002020202020202020202020202020202044
:100CB000202020202D25402A2E20202020202020EA
:100CC000202020202020200D0A002020202020206D
:100CD0002020202020202020202020202020202014
:100CE000202020202020202D2A2A2D2020202020D6
:100CF00020202020202020202020200D0A0020203D
:100D000020202020202020202020202020202020E3
:100D10002E2E2E2E2E2E2E2E2E2E2E2E2E2E20200F
:100D20002020202020202020202020202020200DD6
:100D30000A002020202020202020202020202020E9
:100D4000203A2A40404040404040404040404040DF
:100D50004040402A3A20202020202020202020200F
:100D60002020202020200D0A2020202020202020AC
:100D7000202020202020202540404040404040406E
:100D8000404040404040404040402520202020201E
:100D900020202020202020202020484543484F208C
:100DA000504F523A20464142524943494F20444114
:100DB0005649442047414C4C4F20200D0A0020202A
:100DC000202020202020202020202020202A2A2A05
:100DD0002A2A2A2A2A2A2A2A2A2A2A2A2A2A2A2A73
:100DE0002A202020202020202020202020202020F9
:100DF00020202020200D0A0020202020202020203C
:100E000020202020202B4040404040404040404097
:100E10004040404040404040404040402B20202047
:100E2000202020202020202020202041204D4F4421
:100E30004F2044452054524142414A4F2046494E9A
:100E4000414C2050415241204C41204341544544A3
:100E500052413A0D0A00202020202020202020206E
:100E600020203D40404040404040404040404040C5
:100E700040404040404040404040403D20202020F5
:100E80002020202020202020202053495354454D4D
:100E90004153204449474954414C45532049562029
:100EA000200D0A0020202020202020202020203A71
:100EB0004040404040404040404040404040404032
:100EC000404040404040404040403A2020202020C8
:100ED00020202020202020200D0A2020202020203B
:100EE00020202020202340404040404040404040BF
:100EF00040404040404040404040404040404040F2
:100F000023202020202020202020202020202020DE
:100F10000D0A202020202020202020203A40404080
:100F200040404040404040404040404040404040C1
:100F30004040404040404040403A20202020202077
:100F40002020202020202050524F4645534F52450C
:100F5000533A204C49432E204A554C49414E204D8E
:100F6000494E4154454C200D0A00202020202020CD
:100F7000202020203D4040404040404040404040F4
:100F80004040404040404040404040404040404061
:100F9000403D090909202020494E472E2056454C46
:100FA000415A5155455A204544554152444F0D0A26
:100FB000202020202020202020203D404040404074
:100FC0004040404040404040404040404040404021
:100FD000404040404040402D202020202020202024
:100FE0002020202020200D0A20202020202020202A
:100FF00020202E4040404040404040404040404043
:101000004040404040404040404040404040402EF2
:1010100020202020202020202020202020200D0AF9
:1010200020202020202020202020202B4040404035
:1010300040404040404040404040404040404040B0
:101040004040404040402B202020202020202020D5
:10105000202020204349434C4F204C4543544956BF
:101060004F203230323320200D0A20202020202033
:101070002020202020202A40404040404040404046
:101080004040404040404040404040404040402A76
:101090002020202020202020202020202020202050
:1010A000200D0A0020202020202020202020202089
:1010B000203D404040404040404040404040404053
:1010C00040404040404040253D202020202020201E
:1010D000202020202020202020200D0A2020202039
:1010E000202020202020202020202E3D2540404070
:1010F00040404040404040404040404040253D2E20
:1011000020202020202020202020202020202020DF
:1011100020200D0A202020202020202020202020F8
:1011200020202020202E2D3D2B2B2B2B2B2B2B2B2F
:101130002B2B2B3D2D2E2020202020202020202056
:1011400020202020202020202020200D0A000D0A11
:101150000D0A0D0A38383820202020203838382051
:1011600020202020202020643838383820203838AB
:101170003838383838622E20202038383838383817
:1011800038383838202038383838383838622E2007
:10119000202020202038383838383838383838205F
:1011A000202E6438383838622E2020593838622092
:1011B00020206438385020383838383838383838B3
:1011C00038380D0A38383820202020203838382088
:1011D0002020202020206438383838382020383823
:1011E00038202020593838622020383838202020F4
:1011F00020202020202038383820202059383862FC
:101200002020202020383838202020202020202096
:1012100064383850202059383862202059383862D4
:1012200020643838502020202020203838380D0AFB
:10123000383838202020202038383820202020201E
:10124000206438385038383820203838382020206A
:1012500020383838202038383820202020202020FE
:1012600020203838382020202038383820202020EE
:1012700020383838202020202020202038383820DE
:101280002020203838382020205938386F383850FE
:10129000202020202020203838380D0A38383820E7
:1012A0002020202038383820202020206438385052
:1012B0002038383820203838382020202038383856
:1012C0002020383838383838382020202020383846
:1012D000382020206438385020202020203838380A
:1012E0003838383820202020383838202020202056
:1012F000202020202020593838385020202020203D
:101300002020203838380D0A383838202020202076
:101310003838382020202064383850202038383899
:1013200020203838382020202038383820203838FD
:101330003820202020202020202038383838383805
:10134000385020202020202020383838202020200D
:101350002020202038383820202020202020202045
:10136000202020383838202020202020202020381D
:1013700038380D0A383838202020202038383820D6
:101380002020643838502020203838382020383841
:1013900038202020203838382020383838202020A5
:1013A000202020202020383838205438386220204F
:1013B00020202020203838382020202020202020E5
:1013C0003838382020202038383820202020203875
:1013D00038382020202020202020203838380D0ABE
:1013E000593838622E202E6438385020206438381E
:1013F0003838383838383838202038383820202ED7
:1014000064383850202038383820202020202020F0
:1014100020203838382020543838622020202020DE
:1014200020383838202020202020202059383862C9
:1014300020206438385020202020203838382020C0
:10144000202020202020203838380D0A202059382C
:101450003838383850202020643838502020202058
:10146000203838382020383838383838385020205C
:10147000202038383838383838383838202038384C
:101480003820202054383862202020202038383856
:101490002020202020202020202059383838385083
:1014A00020202020202020383838202020202020F4
:1014B0002020203838380D0A0D0A0D0A0D0A0909B6
:1014C00009352D20566F6C76657220416C206D6554
:1014D0006E75207072696E636970616C0909090923
:1014E000090D0A02F2E0E0EA1591123041F0009194
:1014F000C00005FFFCCF1093C600F6CF0895009101
:10150000C00007FFFCCF2091C600213369F12233D0
:1015100069F1233369F1243369F1253319F3213457
:1015200059F1223459F1233459F1243459F1253435
:1015300059F1263459F1273459F1283459F1293415
:1015400059F12A3459F12B3459F12D3459F12C34F5
:1015500059F12F3459F1213569F1223569F12335DB
:1015600069F1203529F1CBCF0C94E20A0C94F40AEE
:101570000C94C40C0C94F00A0C94D30C0C94060D2F
:101580000C94390D0C946C0D0C949F0D0C94D20D91
:101590000C94050E0C94380E0C946B0E0C949C0E4F
:1015A0000C94CD0E0C94FE0E0C942F0F0C94600F27
:1015B0000C94910F0C94C30F0C94F40F0C94251001
:1015C0000C94830AF3E0EEE11591123039F00091AA
:1015D000C00005FFFCCF1093C600F6CF0C9483101B
:1015E0000C9479100C947A10F4E0E0E60E94F80A6A
:1015F0001591123039F00091C00005FFFCCF109317
:10160000C600F6CF41E40E94BD0C0E949B11F2E09F
:10161000E3E140814093C6000E94BD0CF2E0E4E1AA
:1016200040814093C6000E94BD0C0E948D1142E48F
:101630000E94BD0C0E949B11F2E0E6E140814093C4
:10164000C6000E94BD0CF2E0E7E140814093C60075
:101650000E94BD0C0E948D1143E40E94BD0C0E94AB
:101660009B11F2E0E9E140814093C6000E94BD0C6D
:10167000F2E0EAE140814093C6000E94BD0C0E9466
:10168000941144E40E94BD0C0E949B11F2E0EDE134
:1016900040814093C6000E94BD0CF2E0EEE1408123
:1016A0004093C6000E94BD0C0E948D1145E40E942B
:1016B000BD0C0E949B11F2E0E1E240814093C60024
:1016C0000E94BD0CF2E0E2E240814093C6000E941D
:1016D000BD0C0E948D1146E40E94BD0C0E949B111E
:1016E000F2E0E5E240814093C6000E94BD0CF2E0CA
:1016F000E6E240814093C6000E94BD0C0E948D111D
:1017000047E40E94BD0C0E949B11F2E0E9E2408197
:101710004093C6000E94BD0CF2E0EAE24081409393
:10172000C6000E94BD0C0E94941148E40E94BD0CAA
:101730000E949B11F2E0EDE240814093C6000E94BE
:10174000BD0CF2E0EEE240814093C6000E94BD0C69
:101750000E948D1149E40E94BD0C0E949B11F2E091
:10176000E1E340814093C6000E94BD0CF2E0E4E159
:1017700040814093C6000E94BD0C0E948D114AE436
:101780000E94BD0C0E949B11F2E0E4E34081409373
:10179000C6000E94BD0CF2E0E5E340814093C60024
:1017A0000E94BD0C0E948D114BE40E94BD0C0E9452
:1017B0009B11F2E0E7E340814093C6000E94BD0C1C
:1017C000F2E0E8E340814093C6000E94BD0C0E9415
:1017D0009F110E9494114DE40E94BD0C0E949B1128
:1017E000F2E0EBE340814093C6000E94BD0CF2E0C2
:1017F000ECE340814093C6000E94BD0C0E949F1103
:101800000E948D114CE40E94BD0C0E949B11F2E0DD
:10181000EFE340814093C6000E94BD0CF2E0E0E49B
:1018200040814093C6000E94BD0C0E949F110E94FF
:101830008D114FE40E94BD0C0E949B11F2E0E3E485
:1018400040814093C6000E94BD0CF2E0E4E4408178
:101850004093C6000E94BD0C0E949F110E948D11F2
:1018600040E50E94BD0C0E949B11F2E0E7E440813C
:101870004093C6000E94BD0CF2E0E8E44081409332
:10188000C6000E94BD0C0E949F110E948D1141E56F
:101890000E94BD0C0E949B11F2E0EBE4408140935A
:1018A000C6000E94BD0CF2E0ECE440814093C6000B
:1018B0000E94BD0C4AE30E94BD0CF2E0EFE44081BF
:1018C0004093C6000E94BD0CF2E0E0E540814093E9
:1018D000C6000E94BD0C0E948D110E948D1142E530
:1018E0000E94BD0C0E949B11F2E0E3E54081409311
:1018F000C6000E94BD0CF2E0E4E540814093C600C2
:101900000E94BD0C4AE30E94BD0CF2E0E5E5408177
:101910004093C6000E94BD0CF2E0E6E54081409392
:10192000C6000E94BD0C0E94941143E50E94BD0CAC
:101930000E949B11F1E0E1E540814093C6000E94C6
:10194000BD0CF1E0E2E540814093C6000E94BD0C71
:101950004AE30E94BD0CF1E0E4E540814093C600FB
:101960000E94BD0CF1E0E5E540814093C6000E9475
:10197000BD0C0E948D110C947F0A0091C00005FFE0
:10198000FCCF4093C6000895FAE0E2E815911230CA
:1019900041F00091C00005FFFCCF1093C600F6CFC8
:1019A00008950C94830AF9E0E4EF00C01591123019
:1019B00039F00091C00005FFFCCF1093C600F6CFB0
:1019C0000091C00007FFFCCF5090C6005092C600A7
:1019D000F2E0E3E1508200E3501AEAE05E9E502C10
:1019E000509277030091C00007FFFCCF5090C600D3
:1019F0005092C600F2E0E4E1508200E3501A0091F8
:101A00007703500E509277030C946510F9E0E4EFE1
:101A100000C01591123039F00091C00005FFFCCFD5
:101A20001093C600F6CF0091C00007FFFCCF509086
:101A3000C6005092C600F2E0E6E1508200E3501A80
:101A4000EAE05E9E502C509279030091C00007FF9F
:101A5000FCCF5090C6005092C600F2E0E7E1508201
:101A600000E3501A00917903500E509279030C94C0
:101A70006510F9E0E4EF00C01591123039F00091E3
:101A8000C00005FFFCCF1093C600F6CF0091C00048
:101A900007FFFCCF5090C6005092C600F2E0E9E18B
:101AA000508200E3501AEAE05E9E502C50927B0375
:101AB0000091C00007FFFCCF5090C6005092C600B6
:101AC000F2E0EAE1508200E3501A00917B03500EED
:101AD00050927B030C946510F9E0E4EF00C015917F
:101AE000123039F00091C00005FFFCCF1093C60002
:101AF000F6CF0091C00007FFFCCF5090C600509277
:101B0000C600F2E0EDE1508200E3501AEAE05E9E8A
:101B1000502C50927E030091C00007FFFCCF5090E4
:101B2000C6005092C600F2E0EEE1508200E3501A87
:101B300000917E03500E50927E030C946510F9E0E4
:101B4000E4EF00C01591123039F00091C00005FF9C
:101B5000FCCF1093C600F6CF0091C00007FFFCCF6A
:101B60005090C6005092C600F2E0E1E2508200E3DD
:101B7000501AEAE05E9E502C509281030091C00002
:101B800007FFFCCF5090C6005092C600F2E0E2E2A0
:101B9000508200E3501A00918403500E5092840347
:101BA0000C946510F9E0E4EF00C01591123039F0A3
:101BB0000091C00005FFFCCF1093C600F6CF009146
:101BC000C00007FFFCCF5090C6005092C600F2E064
:101BD000E5E2508200E3501AEAE05E9E502C5092FB
:101BE00084030091C00007FFFCCF5090C6005092C4
:101BF000C600F2E0E6E2508200E3501A009184034E
:101C0000500E509284030C946510F9E0E4EF00C08C
:101C10001591123039F00091C00005FFFCCF1093F0
:101C2000C600F6CF0091C00007FFFCCF5090C60061
:101C30005092C600F2E0E9E2508200E3501AEAE076
:101C40005E9E502C509287030091C00007FFFCCF8E
:101C50005090C6005092C600F2E0EAE2508200E3E3
:101C6000501A00918703500E509287030C94651010
:101C7000F9E0E4EF00C01591123039F00091C00096
:101C800005FFFCCF1093C600F6CF0091C00007FF00
:101C9000FCCF5090C6005092C600F2E0EDE25082B8
:101CA00000E3501AEAE05E9E502C50928A030091A5
:101CB000C00007FFFCCF5090C6005092C600F2E073
:101CC000EEE2508200E3501A00918A03500E5092C7
:101CD0008A030C946510F9E0E4EF00C0159112300E
:101CE00039F00091C00005FFFCCF1093C600F6CF7D
:101CF0000091C00007FFFCCF5090C6005092C60074
:101D00005092310200E3501AEAE05E9E502C50924D
:101D10008D030091C00007FFFCCF5090C600509289
:101D2000C6005092320200E3501A00918D03500E0B
:101D300050928D030C946510F9E0E4EF00C015910A
:101D4000123039F00091C00005FFFCCF1093C6009F
:101D5000F6CF0091C00007FFFCCF5090C600509214
:101D6000C6005092340200E3501AEAE05E9E502C06
:101D700050928F030091C00007FFFCCF5090C60027
:101D80005092C6005092350200E3501A00918F0322
:101D9000500E50928F030C946510F9E0E4EF00C0F0
:101DA0001591123039F00091C00005FFFCCF10935F
:101DB000C600F6CF0091C00007FFFCCF5090C600D0
:101DC0005092C6005092370200E3501AEAE05E9E3D
:101DD000502C509291030091C00007FFFCCF50900F
:101DE000C6005092C6005092380200E3501A00918B
:101DF0009103500E509291030C946510F9E0E4EFBA
:101E000000C01591123039F00091C00005FFFCCFE1
:101E10001093C600F6CF0091C00007FFFCCF509092
:101E2000C6005092C60050923B0200E3501AEAE00E
:101E30005E9E502C509294030091C00007FFFCCF8F
:101E40005090C6005092C60050923C0200E3501AD7
:101E500000919403500E509294030C946510F9E095
:101E6000E4EF00C01591123039F00091C00005FF79
:101E7000FCCF1093C600F6CF0091C00007FFFCCF47
:101E80005090C6005092C60050923F0200E3501A94
:101E9000EAE05E9E502C509297030091C00007FF2D
:101EA000FCCF5090C6005092C6005092400200E312
:101EB000501A00919703500E509297030C9465109E
:101EC000F9E0E4EF00C01591123039F00091C00044
:101ED00005FFFCCF1093C600F6CF0091C00007FFAE
:101EE000FCCF5090C6005092C6005092430200E3CF
:101EF000501AEAE05E9E502C50929A030091C00066
:101F000007FFFCCF5090C6005092C600509244028A
:101F100000E3501A00919A03500E50929A030C94C9
:101F2000830AF9E0E4EF00C01591123039F0009116
:101F3000C00005FFFCCF1093C600F6CF0091C00093
:101F400007FFFCCF5090C6005092C6005092470247
:101F500000E3501AEAE05E9E502C50929D030091DF
:101F6000C00007FFFCCF5090C6005092C600F3E0BF
:101F70005092480200E3501A00919D03500E509277
:101F80009D030C946510F9E0E4EF00C01591123048
:101F900039F00091C00005FFFCCF1093C600F6CFCA
:101FA0000091C00007FFFCCF5090C6005092C600C1
:101FB00050924B0200E3501AEAE05E9E502C509281
:101FC000A0030091C00007FFFCCF5090C6005092C4
:101FD000C60050924C0200E3501A0091A003500E2C
:101FE0005092A0030C946510F9E0E4EF00C0159145
:101FF000123039F00091C00005FFFCCF1093C600ED
:10200000F6CF0091C00007FFFCCF5090C600509261
:10201000C6005092530200E3501AEAE05E9E502C34
:102020005092A3030091C00007FFFCCF5090C60060
:102030005092C6005092540200E3501A0091A3033C
:10204000500E5092A3030C946510F9E0E4EF00C029
:102050001591123039F00091C00005FFFCCF1093AC
:10206000C600F6CF0091C00007FFFCCF5090C6001D
:102070005092C600509251010AE0509E1092750392
:102080000091C00007FFFCCF5090C6005092C600E0
:102090005092520100917503050D00937503009154
:1020A000C00007FFFCCF5090C6005092C60050926F
:1020B00054010091C00007FFFCCF5090C600509221
:1020C000C600509255010C946510F9E0EEE800C08E
:1020D0001591123081F00091C00005FFFCCF1093E4
:1020E000C600F6CF08950091C00007FFFCCF0C9406
:1020F000830A05CA04CA0091C00007FFFCCF0C94F4
:10210000830A0C947F0A44E50E94BD0C0E949B1137
:10211000F1E0E1E540814093C6000E94BD0CF1E092
:10212000E2E540814093C6000E94BD0C4AE30E9454
:10213000BD0CF1E0E4E540814093C6000E94BD0C77
:10214000F1E0E5E540814093C6000E94BD0C0E948D
:102150008D110E94941145E50E94BD0C0E949B11B7
:10216000F1E0EAE540814093C6000E94BD0CF1E039
:10217000EBE540814093C6000E94BD0CF1E0ECE528
:1021800040814093C6000E94BD0C0E94A311F1E063
:10219000EDE540814093C6000E94BD0C0E948D1168
:1021A0000E94941146E50E94BD0C0E949B11F1E033
:1021B000E3E640814093C6000E94BD0CF1E0E4E6F6
:1021C00040814093C6000E94BD0CF1E0E5E64081ED
:1021D0004093C6000E94BD0C0E94A311F1E0E6E608
:1021E00040814093C6000E94BD0C0E948D110E9448
:1021F000941147E50E94BD0C0E949B11F1E0ECE6B2
:1022000040814093C6000E94BD0CF1E0EDE64081A4
:102210004093C6000E94BD0CF1E0EEE64081409381
:10222000C6000E94BD0C0E94A311F1E0EFE64081C0
:102230004093C6000E94BD0C0E94941148E50E9484
:10224000BD0C0E949B11F1E0EDE741914093C60067
:102250000E94BD0C40814093C6000E94BD0CF1E07D
:10226000EFE740814093C6000E94BD0CF1E0E0E83A
:1022700040814093C6000E94BD0C0E948D110E94B7
:10228000941149E50E94BD0C0E949B11F1E0E6E823
:1022900040814093C6000E94BD0CF1E0E7E8408118
:1022A0004093C6000E94BD0CF1E0E8E840814093F5
:1022B000C6000E94BD0CF1E0E9E840814093C600F1
:1022C0000E94BD0C0E948D110E9494114AE50E944B
:1022D000BD0C0E949B11F1E0E4E740814093C600F1
:1022E0000E94BD0CF1E0E5E740814093C6000E94EA
:1022F000BD0CF1E0E6E740814093C6000E94BD0CB2
:10230000F1E0E7E740814093C6000E94BD0C0E94C7
:102310008D110C94830A4CE3089540E20E94BD0C99
:1023200040E20E94BD0C08954DE00E94BD0C4AE0C1
:102330000E94BD0C08954FE50E94BD0C089540E336
:102340000E94BD0C08954CE20E94BD0C089550E01F
:10235000E0E008E00EBF0FEF0DBF0FEF0CE10093C0
:10236000C10004E00093C20007E60093C40000E649
:1023700000937C0007E800937A0000E007B90E9410
:10238000D311F1E0E1E538E20E949F120CEF04B9AD
:102390000FE70AB903E00093690001E00DBB0E945A
:1023A000291378949FC841E34093130248E3F2E075
:1023B000E4E1408302E10093770343E3F2E0E6E1E6
:1023C000408342E3F2E0E7E1408300E200937903D7
:1023D00041E3F2E0E9E1408348E3F2E0EAE14083EF
:1023E00002E100937B0342E3F2E0EDE1408346E348
:1023F000F2E0EEE140830AE100937E03E0E042E395
:10240000F2E0E1E2408344E3F2E0E2E2408308E10B
:102410000093810340E3F2E0E5E2408341E3F2E030
:10242000E6E2408301E00093840342E3F2E0E9E264
:10243000408346E3F2E0EAE240830AE10093870347
:1024400041E3F2E0EDE2408348E3F2E0EEE2408374
:1024500002E100938A0342E3F2E0E1E3408344E3D4
:10246000F2E0E2E3408308E100938D0340E3F2E011
:10247000E4E3408341E3F2E0E5E3408301E00093DD
:102480008F0340E3F2E0E7E3408341E3F2E0E8E377
:10249000408301E00093910345E3F2E0EBE34083E6
:1024A00040E3F2E0ECE3408305E00093940340E373
:1024B000F2E0EFE3408341E3F2E0E0E4408301E057
:1024C0000093970345E3F2E0E3E4408340E3F2E066
:1024D000E4E4408302E300939A0340E3F2E0E7E49C
:1024E000408347E3F2E0E8E4408307E000939D0384
:1024F00040E3F2E0EBE4408346E3F2E0ECE44083C7
:1025000040E3F2E0EFE4408340E3F2E0E0E54083C3
:1025100006E00093A00341E3F2E0E3E5408349E3F2
:10252000F2E0E4E5408340E3F2E0E5E5408340E3A8
:10253000F2E0E6E5408303E10093A3030895303021
:1025400029F040E34083E3953A95F9CF0895189533
:102550001895189518959F93CF920F931F932F93CB
:102560003F934F93EF93FF931FB71F935F92109189
:1025700050011395123381F010935001183241F03D
:102580001E3111F00C941C130E948F140C941C1318
:102590000E9451140C941C130E94291310E01093F4
:1025A00050011091580113951C3321F010935801DC
:1025B0000C941C1310E010935801109155011395C1
:1025C000193321F0109355010C941C1310E3109350
:1025D000550110915401153329F0139510935401AE
:1025E0000C941C1310E31093540110917503139570
:1025F00010937503183198F410915201193329F092
:102600001395109352010C941C1310E31093520174
:10261000109151011395109351010C941C131091BA
:10262000520110E31093520110E31093510110E096
:10263000109375030C941C135F901F911FBFFF91A3
:10264000EF914F913F912F911F910F91CF909F91BB
:10265000189500E600937C000E94421560935A0191
:1026600050935B0140935C0120935D01309315030F
:1026700001E600937C000E94421560936301509331
:10268000640140936501209366013093170302E6CD
:1026900000937C000E94421560936C0150936D0181
:1026A00040936E0120936F013093190303E600936A
:1026B0007C000E9442156093740150937501409311
:1026C00076012093770130931E0304E600937C008B
:1026D0000E94421560937D0150937E0140937F01DB
:1026E000209380013093240305E300937C000E9433
:1026F000421560938601509387014093880120938F
:10270000890130932A03089510E02081E3953081F8
:10271000E3954081213331F0223309F0089508EC2C
:10272000100F03C004E6100F00C03133A1F03233A4
:10273000A9F03333B1F03433B9F03533C1F0363367
:10274000C9F03733D1F03833D9F0393309F008956F
:102750000AE5100F18C00AE0100F15C004E1100FB1
:1027600012C00EE1100F0FC008E2100F0CC002E300
:10277000100F09C00CE3100F06C006E4100F03C0D1
:1027800000E5100F00C04133A1F04233A9F04333FC
:10279000B1F04433B9F04533C1F04633C9F04733A3
:1027A000D1F04833D9F0493309F0089509E0100F0A
:1027B000089501E0100F089502E0100F089503E05E
:1027C000100F089504E0100F089505E0100F08950C
:1027D00006E0100F089507E0100F089505E0100FB0
:1027E00008953081E395408190E03133A1F0323398
:1027F000A9F03333B1F03433B9F03533C1F03633A7
:10280000C9F03733D1F03833D9F0393309F00895AE
:102810009AE5100F18C00AE0900F15C004E1900F60
:1028200012C00EE1900F0FC008E2900F0CC002E33F
:10283000900F09C00CE3900F06C006E4900F03C090
:1028400000E5900F00C04133A1F04233A9F04333BB
:10285000B1F04433B9F04533C1F04633C9F04733E2
:10286000D1F04833D9F0493309F0089509E0900FC9
:10287000089501E0900F089502E0900F089503E09D
:10288000900F089504E0900F089505E0900F0895CB
:1028900006E0900F089507E0900F089505E0900F6F
:1028A0000895509075030091A003501608F4089500
:1028B00050902A0300919103501630F408955E98C9
:1028C0005C985D9A5B9A08955E9A5C9A5D985B98B5
:1028D0000E9409150E940D15509075030091A303E5
:1028E000501668F708952B9A2A9A2998289818E381
:1028F00010935C02109365020E94F0140E949E14D3
:1029000008952B982A98299A289A16E410935C0225
:10291000109365020E94D4140E94B7140895509039
:102920001503009177035016F0F2509015030091B3
:102930007903051530F3089508950895009117035C
:10294000109181032091840390E0910F920F091759
:1029500060F490E0910F921B901708F408952A9A62
:10296000289818E31093650208952A980895009115
:102970001703109181032091840390E0910F920F2F
:10298000091730F490E0910F921B901738F40895D6
:10299000289A2A9816E4109365020895289818E357
:1029A00010936502089508950091190310918D0305
:1029B00020918F0390E0910F920F091730F490E06F
:1029C000910F921B901738F40895299A2B9816E4CA
:1029D00010935C020895299818E310935C020895FF
:1029E0000091190310918D0320918F0390E0910FB6
:1029F000920F091730F490E0910F921B091718F00D
:102A000008952B9808952B9A299818E310935C0247
:102A1000089510915C02163429F010916502163465
:102A2000C9F0089500912403109194032091970315
:102A300090E0910F920F901730F090E0910F921B61
:102A4000901720F4EACF5E985D9AE7CF5C9A5B9886
:102A50000895E3CF00911E0310919A0320919D03E6
:102A600090E0910F920F901730F090E0910F921B31
:102A7000901720F408955C985B9A08955C9A5B988F
:102A80000895089540E050E060E020E000E007B9DC
:102A900000C00E947E150E9485152091780030911B
:102AA000790040E050E060E0032F0E945C1510E3E5
:102AB000410F510F610F0895043618F063950456C5
:102AC000FBCF0A3018F053950A50FBCF013018F0B5
:102AD00043950150FBCF00C0203C41F0203841F02D
:102AE000203441F0203041F00C94720A27E308951D
:102AF00025E3089522E3089520E3089500E410916A
:102B00007A00102B10937A00089510917A0014FF28
:102B10000C94851500E110917A00102B10937A0027
:022B2000089516
:00000001FF
