:020000020000FC
:1002A0000A2A2A2A202053656C656363696F6E658C
:1002B000206C6120616363696F6E206120726561EB
:1002C0006C697A6172202A2A2A0A0A3E3E312D4D33
:1002D0006F73747261722056616C6F7265732E2E2B
:1002E0002E0D0A20322D436F6E666967757261723A
:1002F0002056616C6F7265732E2E2E0D0A332D44BD
:1003000061746F732044656C2070726F79656374DB
:100310006F2E2E2E20020A2A2A2A204D45444943B8
:10032000494F4E4553202A2A2A0A0A486F726120F3
:100330006465206C6173206D65646963696F6E65C7
:1003400073205F5F3A0A2054656D70657261747541
:100350007261204578746572696F723A205F205F20
:100360000A2054656D7065726174757261204C6904
:1003700076696E672F436F6D65646F722F436F638D
:10038000696E613A205F5F200A2054656D70657266
:10039000617475726120446F726D69746F72696FF8
:1003A0003A205F5F200A204C757A20446F726D6995
:1003B000746F72696F3A205F5F302020204C757A2D
:1003C000204578746572696F723A205F5F30202033
:1003D0004C757A204C6976696E672F436F63696E3E
:1003E000612F436F6D65646F723A205F5F30200A42
:1003F00009312D52656672657363617261722056B0
:10040000616C6F7265732E2E2E20352D564F4C5613
:10041000455220414C204D454E5520414E544552A9
:10042000494F52200D0A02000A2A2A2A2053656CDD
:10043000656363696F6E6520656C2076616C6F72B1
:1004400020612063616D62696172202A2A2A0A0094
:100450000A090954656D7065726174757261732063
:10046000656E20477261646F732043656E746967BF
:100470007261646F7309090A412D54656D7065726C
:100480006174757261204578746572696F72204D70
:10049000696E696D610D0A00422D54656D7065725B
:1004A0006174757261204578746572696F72204D50
:1004B0006178696D610D0A00432D54656D70657238
:1004C0006174757261204C6976696E672F436F6D38
:1004D00065646F722F436F63696E61204D696E6949
:1004E0006D610D0A442D54656D706572617475728D
:1004F00061204C6976696E672F436F6D65646F721A
:100500002F436F63696E61204D6178696D610D0ADB
:10051000452D486973746572697369732064652039
:100520006C612074656D70657261747572612064B0
:10053000656C204C6976696E672F436F6D65646FDB
:10054000722F436F63696E613A0D0A00462D546540
:100550006D706572617475726120446F726D69743B
:100560006F72696F204D6178696D610D0A00472DCA
:1005700054656D706572617475726120446F726D3F
:1005800069746F72696F204D696E696D610D0A0043
:1005900020482D48697374657269736973206465B6
:1005A000206C612074656D70657261747572612074
:1005B00064656C20446F726D69746F72696F0D0AA7
:1005C0004C7563657320656E204C7578733A0D0A1F
:1005D000492D4C757A204578746572696F72204D8B
:1005E000696E696D610D0A004A2D56616C6F72204B
:1005F0006465736561646F206465206C6120496C7B
:10060000756D696E6163696F6E20496E746572699C
:100610006F72200D0A004B2D4869737465726973FF
:100620006973206465206C61206C757A20696E7432
:100630006572696F720D0A0045737175656D612091
:10064000686F726172696F3A0D0A204C2D486F72A3
:100650006120646520496E6963696F2064656C2060
:100660004469610D0A004D2D486F72612064652058
:1006700046696E2064656C204469610D0A004F2D47
:10068000436F6E6669677572617220486F72612090
:1006900041637475616C2F41637475616C697A6133
:1006A000722052656C6F6A0D0A00352D564F4C56FC
:1006B000455220414C204D454E5520414E54455207
:1006C000494F52200D0A56616C6F72657320416369
:1006D0007475616C65733A2028536567756E206385
:1006E000616461206C657472612902000943616D67
:1006F000626961646F212044657365612063616D87
:100700006269617220616C676F206D61733F0D0AD1
:10071000352D4E4F2C20566F6C76657220416C2023
:100720006D656E75207072696E636970616C0D0A1B
:10073000322D53692C20766F6C76657220616C20A7
:100740006D656E7520616E746572696F72200D0A39
:100750000200496E677265736520656C206E756571
:10076000766F2076616C6F723A090200F2E0E0EA7F
:100770001591123041F00091C00005FFFCCF10939D
:10078000C600F6CF08950091C00007FFFCCF20916E
:10079000C600213329F1223329F1233329F12433EF
:1007A00029F1253319F3213419F1223419F12334B5
:1007B00019F1243419F1253419F1263419F12734AB
:1007C00019F1283419F1293419F12A3419F12B348B
:1007D00019F12D3419F12C3419F12F3419F1D3CF2B
:1007E0000C9416040C9426040C949F040C9422047C
:1007F0000C94A7040C94CC040C94F1040C941605EE
:100800000C943B050C945C050C947D050C949E05A2
:100810000C94BF050C94E0050C9401060C94220680
:100820000C9443060C9464060C94C703F3E0E6E1D1
:1008300015911230C9F30091C00005FFFCCF109351
:10084000C600F6CF0C949D060C94A006F4E0E8E2F6
:100850000E942A041591123039F00091C00005FF62
:10086000FCCF1093C600F6CF41E40E9498044FE5F8
:100870000E949804F1E0EAE640814093C6000E949D
:100880009804F1E0EBE640814093C6000E94980492
:100890004DE00E9498044AE00E94980442E40E94BD
:1008A00098044FE50E949804F1E0EDE64081409302
:1008B000C6000E949804F1E0EEE640814093C60035
:1008C0000E94980440E20E94980440E20E9498042A
:1008D00043E40E9498044FE50E949804F1E0E1E7A8
:1008E00040814093C6000E949804F1E0E3E7408114
:1008F0004093C6000E94980440E20E94980440E29F
:100900000E94980444E40E9498044FE50E949804D1
:10091000F1E0E7E740814093C6000E949804F1E0CF
:10092000E9E740814093C6000E9498040C94C303F9
:100930000091C00005FFFCCF4093C600089501C0A0
:1009400003C00E94A7061FCF0E94A7061CCFF7E096
:10095000E2E500C01591123039F00091C00005FFAA
:10096000FCCF1093C600F6CF0091C00007FFFCCF6C
:100970005090C6005092C600F1E0EAE65082009125
:10098000C00007FFFCCF5090C6005092C600F1E0B7
:10099000EBE650820C948906F7E0E2E500C0159181
:1009A000123039F00091C00005FFFCCF1093C60053
:1009B000F6CF0091C00007FFFCCF5090C6005092C8
:1009C000C600F1E0EDE650820091C00007FFFCCFC9
:1009D0005090C6005092C600F1E0EEE650820C94B2
:1009E0008906F7E0E2E500C01591123039F0009178
:1009F000C00005FFB2CF1093C600F6CF0091C00033
:100A000007FFFCCF5090C6005092C600F1E0E1E72E
:100A100050820091C00007FFFCCF5090C60050925A
:100A2000C600F1E0E3E750820C948906F7E0E2E5C6
:100A300000C01591123039F00091C00005FFFCCFC5
:100A40001093C600F6CF0091C00007FFFCCF509076
:100A5000C6005092C600F1E0E7E750820091C00066
:100A600007FFFCCF5090C6005092C600F1E0E9E7C6
:100A700050820C948906F7E0E2E500C0159112302F
:100A800039F00091C00005FFFCCF1093C600F6CFEF
:100A90000091C00007FFFCCF5090C6005092C600E6
:100AA00058820091C00007FFFCCF5090C6005092C2
:100AB000C60058820C948906F7E0E2E500C0159163
:100AC000123039F00091C00005FFFCCF1093C60032
:100AD000F6CF0091C00007FF47CF5090C60050925C
:100AE000C60058820091C00007FFFCCF5090C6009E
:100AF0005092C60058820C948906F7E0E2E500C0E7
:100B00001591123039F00091C00005FFFCCF109311
:100B1000C600F6CF0091C00007FFFCCF5090C60082
:100B20005092C60058820091C00007FFFCCF509041
:100B3000C6005092C60058820C948906F7E0E2E5A0
:100B400000C01591123039F00091C00005FFFCCFB4
:100B50001093C600F6CF0091C00007FFFCCF509065
:100B6000C6005092C60058820091C00007FFFCCF1B
:100B70005090C6005092C60058820C948906F7E047
:100B8000E2E500C01591123039F00091C00005FF78
:100B9000FCCF1093C600F6CF0091C00007FFFCCF3A
:100BA0005090C6005092C60058820091C00007FFC6
:100BB000FCCF5090C6005092C60058820C94890613
:100BC000F7E0E2E500C01591123039F00091C00065
:100BD00005FFFCCF1093C600F6CF0091C00007FFC1
:100BE000FCCF5090C6005092C60058820091C000C1
:100BF00007FFFCCF5090C6005092C60058820C945C
:100C00008906F7E0E2E5BECF1591123039F0009188
:100C1000C00005FFFCCF1093C600F6CF0091C000C6
:100C200007FFFCCF5090C6005092C600588200913A
:100C3000C00007FFFCCF5090C6005092C6005882FB
:100C40000C948906F7E0E2E500C01591123039F006
:100C50000091C00005FFFCCF1093C600F6CF0091B5
:100C6000C00007FFFCCF5090C6005092C6005882CB
:100C70000091C00007FFFCCF5090C6005092C60004
:100C800058820C948906F7E0E2E500C01591123015
:100C900039F00091C00005FFFCCF1093C600F6CFDD
:100CA0000091C00007FFFCCF5090C6005092C600D4
:100CB00058820091C00007FFFCCF5090C6005092B0
:100CC000C60058820C948906F7E0E2E500C0159151
:100CD000123039F00091C00005FFFCCF1093C60020
:100CE000F6CF0091C00007FF57CF5090C60050923A
:100CF000C60058820091C00007FFFCCF5090C6008C
:100D00005092C600F3E0E8E7052C152CE8950C940A
:100D10008906F6E0ECEE00C01591123091F00091DA
:100D2000C00005FFFCCF1093C600F6CF08950091D8
:100D3000C00007FFFCCF0C94C7030E94A70623CD79
:100D400022CD0091C00007FFFCCF0C94C7034CE3F9
:100D500008950C94AC061895F1E0E8E00081039545
:100D600000830A3009F0189500E00083F1E0E7E025
:100D7000008103950083053009F0189500E0008399
:100D8000F1E0E6E00081093319F00395008318953E
:100D900000E30083F1E0E5E00081063319F00395FC
:100DA0000083189500E30083F1E0E3E0008309335A
:100DB0000081039509F0189500E30083F1E0E2E07B
:100DC00000810083063311F00395189500E3F1E0EC
:100DD000E1E000810A3019F0039500831895F1E0F5
:100DE000E0E02081223319F0239520831895043008
:0E0DF00009F01895F1E0E0E000E300830895BB
:100000000C9423000C94A9060C94AB060C94AB063C
:100010000C94AB060C94AB060C94AB060C94AB069C
:100020000C94AB0698C697C696C695C694C693C65A
:1000300092C691C690C68FC68EC68DC68CC68BC61C
:100040008AC689C688C608E00EBF0FEF0DBF0FEF46
:100050000CE10093C10004E00093C20007E60093A6
:06006000C400789483C384
:00000001FF
