:020000020000FC
:1002A0000A2A2A2A3E3E3E53656C656363696F6E77
:1002B00065206C6120616363696F6E2061207265E7
:1002C000616C697A61723C3C3C202A2A2A0A0A3114
:1002D0002D4D6F73747261722056616C6F7265730D
:1002E0002E2E2E0D0A20322D436F6E6669677572B1
:1002F00061722056616C6F7265732E2E2E0D0A335B
:100300002D4461746F732044656C2070726F796541
:1003100063746F2E2E2E20020A2A2A2A204D45446D
:100320004943494F4E4553202A2A2A0A3C20427508
:10033000737175652063616461206D6564696369CB
:10034000F36E20736567756E207375204C6574724B
:1003500061203E00486F7261206465206C617320EB
:100360006D65646963696F6E65733A20542020542B
:10037000656D70657261747572612045787465721F
:10038000696F723A20550D0A2054656D706572616F
:1003900074757261204C6976696E672F436F6D6565
:1003A000646F722F436F63696E613A20562020207C
:1003B0002054656D706572617475726120446F724E
:1003C0006D69746F72696F3A2057200D0A204C7561
:1003D0007A20446F726D69746F72696F3A20205889
:1003E00020204C757A204578746572696F723A20C6
:1003F000205920204C757A204C6976696E672F430E
:100400006F63696E612F436F6D65646F723A202070
:100410005A200D0A09312D52656672657363617247
:1004200061722056616C6F7265732E2E2E20352DF1
:10043000564F4C56455220414C204D454E5520417B
:100440004E544552494F52200D0A56414C4F524589
:1004500053203E020A414456455254454E434941B9
:10046000210A534920564120412043414D424941F0
:100470005220414C474F2054454E474120454C2087
:100480004355494441444F20444520484143455247
:100490004C4F20444520464F524D4120434F484544
:1004A00052454E54452C200D0A002054454E4945D6
:1004B0004E444F20454E204355454E544120515502
:1004C000453A204C412054454D50455241545552D7
:1004D00041204D494E494D41204120494E4752450A
:1004E000534152204553203030202059204C412088
:1004F0004D4158494D412039393B454E20435541E6
:100500004E544F204C4F53204C55584F4D4554524C
:100510004F532C20535520505245434953494F4E79
:10052000204553204445203130204C555845532C0C
:1005300020504F52204C4F2051554520534F4C4F87
:1005400020534520434F4E4649475552414E204483
:100550004520313020454E204449455A2C0D0A2073
:100560005349454E444F20454C2056414C4F522054
:100570004D494E494D4F20303130205920454C20B7
:100580004D4158494D4F203939300A0D0A000A2A89
:100590002A2A2041686F72612073692C2073656C70
:1005A000656363696F6E6520656C2076616C6F7240
:1005B00020612063616D62696172202A2A2A0A0023
:1005C0000954656D70657261747572617320656E32
:1005D00020477261646F732043656E74696772614E
:1005E000646F7309090A412D54656D7065726174F9
:1005F000757261204578746572696F72204D696EFD
:10060000696D610D0A00422D54656D7065726174EB
:10061000757261204578746572696F72204D6178DA
:10062000696D610D0A00432D54656D7065726174CA
:10063000757261204C6976696E672F436F6D6564D2
:100640006F722F436F63696E61204D696E696D61D2
:100650000D0A442D54656D70657261747572612068
:100660004C6976696E672F436F6D65646F722F43B7
:100670006F63696E61204D6178696D610D0A452D6A
:1006800054656D7065726174757261204C6976692C
:100690006E672F436F6D65646F722F436F63696E72
:1006A0006120646573656164610D0A00462D4869C7
:1006B0007374657269736973206465206C6120745A
:1006C000656D70657261747572612064656C204C33
:1006D0006976696E672F436F6D65646F722F436F24
:1006E00063696E613A0D0A00472D54656D7065723D
:1006F000617475726120446F726D69746F72696F95
:10070000204D6178696D610D0A00482D54656D704A
:100710006572617475726120446F726D69746F7275
:10072000696F204D696E696D610D0A00492D546530
:100730006D706572617475726120446F726D697459
:100740006F72696F20446573656164610D0A4A2D9B
:1007500048697374657269736973206465206C619C
:100760002074656D70657261747572612064656C6A
:1007700020446F726D69746F72696F0D0A004C7559
:1007800063657320656E204C7578733A0D0A4B2DA6
:100790004C757A204578746572696F72204D696E68
:1007A000696D610D0A004D2D56616C6F7220646594
:1007B000736561646F206465206C6120496C756DA0
:1007C000696E6163696F6E2064656C20646F726D21
:1007D00069746F72696F200D0A004C2D486973743B
:1007E000657269736973206465206C61206C757A29
:1007F0002064656C20646F726D69746F72696F0D2F
:100800000A004F2D56616C6F7220646573656164D8
:100810006F206465206C6120496C756D696E616341
:10082000696F6E2064656C204C6976696E672F4332
:100830006F6D65646F722F436F63696E61200D0A7F
:10084000502D4869737465726973697320646520FB
:100850006C61206C757A2064656C204C6976696ED9
:10086000672F436F6D65646F722F436F63696E61AD
:100870000D0A45737175656D6120686F72617269EB
:100880006F3A0D0A20512D486F726120646520492E
:100890006E6963696F2064656C204469610D0A00AC
:1008A000522D486F72612064652046696E20646530
:1008B0006C204469610D0A00532D436F6E666967B1
:1008C0007572617220486F72612041637475616C4A
:1008D0002F41637475616C697A61722052656C6F27
:1008E0006A0D0A00352D564F4C56455220414C207A
:1008F0004D454E5520414E544552494F52200D0A08
:1009000056616C6F7265732041637475616C6573B9
:100910003A2028536567756E2063616461206C65B9
:100920007472612902000943616D626961646F211B
:100930002044657365612063616D62696172206145
:100940006C676F206D61733F0D0A352D4E4F2C2063
:10095000566F6C76657220416C206D656E752070E7
:1009600072696E636970616C0D0A322D53692C20B7
:10097000766F6C76657220616C206D656E75206196
:100980006E746572696F72200D0A0200496E67729B
:1009900065736520656C206E7565766F2076616C79
:1009A0006F723A0902000945786973746520756EA3
:1009B0006120636F6E6669677572616369F36E20AB
:1009C0006E6F2076E16C6964612E204E4F20534596
:1009D00020454A454355544152C1204E41444109A6
:1009E00009506F72206661766F722C20696E677293
:1009F00065736520756E6120636F6E6669677572D9
:100A0000616369F36E2076E16C696461206F207226
:100A100065696E696369650902000D0A0D0A0D0AB0
:100A200020202020202020202020202020202020C6
:100A300020202020202020202020202020202020B6
:100A4000202E2A23232323232323232B202020206B
:100A50000D0A2020202020202020202020202020BF
:100A60002020202020202020202020202020202086
:100A700020203D40402B2B2B2B2B2B2B2B2D2020B4
:100A800020200D0A2020202020202020202020208F
:100A90002020202020202020202020202020202056
:100AA00020202D25402A2E202020202020202020FC
:100AB00020202020200D0A0020202020202020207F
:100AC0002020202020202020202020202020202026
:100AD00020202020202D2A2A2D20202020202020E8
:100AE0002020202020202020200D0A00202020204F
:100AF00020202020202020202020202020202E2EDA
:100B00002E2E2E2E2E2E2E2E2E2E2E2E202020203D
:100B1000202020202020202020202020200D0A001E
:100B20002020202020202020202020202020203AAB
:100B30002A404040404040404040404040404040CB
:100B4000402A3A2020202020202020202020202061
:100B5000202020200D0A20202020202020202020BE
:100B60002020202020254040404040404040404040
:100B70004040404040404040252020202020202070
:100B80002020202020202020484543484F20504F3F
:100B9000523A20464142524943494F204441564926
:100BA000442047414C4C4F20200D0A00202020209B
:100BB00020202020202020202020202A2A2A2A2A03
:100BC0002A2A2A2A2A2A2A2A2A2A2A2A2A2A2A208F
:100BD0002020202020202020202020202020202015
:100BE0002020200D0A00202020202020202020204E
:100BF0002020202B4040404040404040404040406A
:100C0000404040404040404040402B202020202099
:100C100020202020202020202041204D4F444F2004
:100C200044452054524142414A4F2046494E414C8E
:100C30002050415241204C412043415445445241AF
:100C40003A0D0A00202020202020202020202020D3
:100C50003D40404040404040404040404040404097
:100C60004040404040404040403D20202020202047
:100C7000202020202020202053495354454D41530B
:100C8000204449474954414C455320495620200DA2
:100C90000A0020202020202020202020203A404030
:100CA0004040404040404040404040404040404044
:100CB00040404040404040403A202020202020201A
:100CC0002020202020200D0A20202020202020204D
:100CD0002020202340404040404040404040404091
:100CE0004040404040404040404040404040232041
:100CF00020202020202020202020202020200D0A1D
:100D0000202020202020202020203A404040404029
:100D100040404040404040404040404040404040D3
:100D2000404040404040403A2020202020202020C9
:100D3000202020202050524F4645534F5245533AD1
:100D4000204C49432E204A554C49414E204D494E96
:100D50004154454C200D0A00202020202020202036
:100D600020203D40404040404040404040404040C6
:100D70004040404040404040404040404040403D76
:100D8000090909202020494E472E2056454C415A3A
:100D90005155455A204544554152444F0D0A202093
:100DA00020202020202020203D4040404040404046
:100DB0004040404040404040404040404040404033
:100DC00040404040402D2020202020202020202076
:100DD000202020200D0A202020202020202020203C
:100DE0002E40404040404040404040404040404015
:100DF000404040404040404040404040402E202045
:100E00002020202020202020202020200D0A20200B
:100E10002020202020202020202B40404040404007
:100E200040404040404040404040404040404040C2
:100E3000404040402B202020202020202020202027
:100E400020204349434C4F204C45435449564F20A2
:100E50003230323220200D0A202020202020202075
:100E6000202020202A404040404040404040404018
:100E7000404040404040404040404040402A2020C8
:100E800020202020202020202020202020200D0A8B
:100E9000202020202020202020202020203D4040F5
:100EA0004040404040404040404040404040404042
:100EB000404040253D2020202020202020202020B0
:100EC0002020202020200D0A20202020202020204B
:100ED0002020202020202E3D254040404040404002
:100EE000404040404040404040253D2E20202020B2
:100EF00020202020202020202020202020200D0A1B
:100F000020202020202020202020202020202020E1
:100F1000202E2D3D2B2B2B2B2B2B2B2B2B2B3D2D01
:100F20002E202020202020202020202020202020B3
:100F30002020202020202020202020202020200DC4
:100F40000A002020202020202020202020202020D7
:100F50002020202020202020202020202020202091
:100F60002020202020202020202020202020202081
:100F70002020202020202000090909352D20566F2F
:100F80006C76657220416C206D656E75207072699B
:100F90006E636970616C09090909090D0A02F2E0C2
:100FA000E0EA1591123041F00091C00005FFFCCF3E
:100FB0001093C600F6CF08950091C00007FFFCCF44
:100FC0002091C600213359F1223359F1233359F1CD
:100FD000243359F1253319F3213449F1223449F1ED
:100FE000233449F1243449F1253449F1263449F1B7
:100FF000273449F1283449F1293449F12A3449F197
:101000002B3449F12D3449F12C3449F12F3449F175
:10101000213559F1223559F1CFCF233551F10C94B7
:101020003D080C944E080C94F6090C944A080C9454
:10103000050A0C942A0A0C944F0A0C94740A0C9416
:10104000990A0C94BE0A0C94E30A0C94080B0C94B5
:101050002D0B0C94500B0C94730B0C94960B0C945E
:10106000B90B0C94DC0B0C94FD0B0C941F0C0C9422
:10107000560C0C948D0C0C94E007F3E0E8E115910C
:1010800012300C94E20C0091C00005FFFCCF1093CD
:10109000C600F5CF0C94D80C0C94D90CF4E0E4E520
:1010A0000E9452081591123039F00091C00005FFDE
:1010B000FCCF1093C600F6CF41E40E94EF090E94D6
:1010C000960DF1E0EAE640814093C6000E94EF09E8
:1010D000F1E0EBE640814093C6000E94EF090E94D8
:1010E000880D42E40E94EF090E94960DF1E0EDE6C2
:1010F00040814093C6000E94EF09F1E0EEE6408196
:101100004093C6000E94EF090E94880D43E40E94AC
:10111000EF090E94960DF1E0E0E740814093C600A0
:101120000E94EF09F1E0E1E740814093C6000E9490
:10113000EF090E948F0D44E40E94EF090E94960D72
:10114000F1E0E4E740814093C6000E94EF09F1E03E
:10115000E5E740814093C6000E94EF090E94880D98
:1011600045E40E94EF090E94960DF1E0E8E7408116
:101170004093C6000E94EF09F1E0E9E74081409307
:10118000C6000E94EF090E94880D46E40E94EF0904
:101190000E94960DF1E0ECE740814093C6000E946A
:1011A000EF09F1E0EDE740814093C6000E94EF09AE
:1011B0000E94880D47E40E94EF090E94960DF1E01D
:1011C000E0E840814093C6000E94EF09F1E0E1E8C9
:1011D00040814093C6000E94EF090E948F0D48E4B1
:1011E0000E94EF090E94960DF1E0E4E840814093EF
:1011F000C6000E94EF09F1E0E5E840814093C60097
:101200000E94EF090E94880D49E40E94EF090E94A4
:10121000960DF1E0E8E840814093C6000E94EF0996
:10122000F1E0EBE640814093C6000E94EF090E9486
:10123000880D4AE40E94EF090E94960DF1E0EBE868
:1012400040814093C6000E94EF09F1E0ECE8408144
:101250004093C6000E94EF090E94880D4BE40E9453
:10126000EF090E94960DF1E0EEE840814093C60040
:101270000E94EF09F1E0EFE840814093C6000E9430
:10128000EF090E949A0D0E948F0D4DE40E94EF0914
:101290000E94960DF1E0E2E940814093C6000E9471
:1012A000EF09F1E0E3E940814093C6000E94EF09B5
:1012B0000E949A0D0E94880D4CE40E94EF090E9442
:1012C000960DF1E0E6E940814093C6000E94EF09E7
:1012D000F1E0E7E940814093C6000E94EF090E94D7
:1012E0009A0D0E94880D4FE40E94EF090E94960D0E
:1012F000F1E0EAE940814093C6000E94EF09F1E085
:10130000EBE940814093C6000E94EF090E949A0DCC
:101310000E94880D40E50E94EF090E94960DF1E0C1
:10132000E0EA40814093C6000E94EF09F1E0E1EA63
:1013300040814093C6000E94EF090E949A0D0E94CE
:10134000880D41E50E94EF090E94960DF1E0E4EA64
:1013500040814093C6000E94EF09F1E0E5EA408138
:101360004093C6000E94EF094AE30E94EF09F1E0B2
:10137000E6EA40814093C6000E94EF09F1E0E7EA07
:1013800040814093C6000E94EF090E94880D0E9490
:10139000880D42E50E94EF090E94960DF1E0EAEA0D
:1013A00040814093C6000E94EF09F1E0EBEA4081E2
:1013B0004093C6000E94EF094AE30E94EF09F1E062
:1013C000ECEA40814093C6000E94EF09F1E0EDEAAB
:1013D00040814093C6000E94EF090C94DC07009105
:1013E000C00005FFFCCF4093C6000895FAE0EAE193
:1013F0001591123041F00091C00005FFFCCF109311
:10140000C600F6CF08950C94E007F9E0ECE800C0C0
:101410001591123039F00091C00005FFFCCF1093F8
:10142000C600F6CF0091C00007FFFCCF5090C60069
:101430005092C600F1E0EAE650820091C00007FF3A
:10144000FCCF5090C6005092C600F1E0EBE650820F
:101450000C94C40CF9E0ECE800C01591123039F09E
:101460000091C00005FFFCCF1093C600F6CF00919D
:10147000C00007FFFCCF5090C6005092C600F1E0BC
:10148000EDE650820091C00007FFFCCF5090C600EF
:101490005092C600F1E0EEE650820C94C40CF9E0E4
:1014A000ECE800C01591123039F00091C00005FF42
:1014B000FCCF1093C600F6CF0091C00007FFFCCF11
:1014C0005090C6005092C600F1E0E0E750820091D3
:1014D000C00007FFFCCF5090C6005092C600F1E05C
:1014E000E1E750820C94C40CF9E0ECE800C01591DF
:1014F000123039F00091C00005FFFCCF1093C600F8
:10150000F6CF0091C00007FFFCCF5090C60050926C
:10151000C600F1E0E4E750820091C00007FFFCCF75
:101520005090C6005092C600F1E0E5E750820C945E
:10153000C40CF9E0ECE800C01591123039F00091CC
:10154000C00005FFFCCF1093C600F6CF0091C0008D
:1015500007FFFCCF5090C6005092C600F1E0E8E7CC
:1015600050820091C00007FFFCCF5090C6005092FF
:10157000C600F1E0E9E750820C94C40CF9E0ECE815
:1015800000C01591123039F00091C00005FFFCCF6A
:101590001093C600F6CF0091C00007FFFCCF50901B
:1015A000C6005092C600F1E0ECE750820091C00006
:1015B00007FFFCCF5090C6005092C600F1E0EDE767
:1015C00050820C94C40CF9E0ECE800C01591123084
:1015D00039F00091C00005FFFCCF1093C600F6CF94
:1015E0000091C00007FFFCCF5090C6005092C6008B
:1015F000F1E0E0E850820091C00007FFFCCF50907E
:10160000C6005092C600F1E0E1E850820C94C40C90
:10161000F9E0ECE800C01591123039F00091C000FB
:1016200005FFFCCF1093C600F6CF0091C00007FF66
:10163000FCCF5090C6005092C600F1E0E4E8508222
:101640000091C00007FFFCCF5090C6005092C6002A
:10165000F1E0E5E850820C94C40CF9E0ECE800C03D
:101660001591123039F00091C00005FFFCCF1093A6
:10167000C600F6CF0091C00007FFFCCF5090C60017
:101680005092C600509288010091C00007FFFCCF25
:101690005090C6005092C600509289010C94C40C20
:1016A000F9E0ECE800C01591123039F00091C0006B
:1016B00005FFFCCF1093C600F6CF0091C00007FFD6
:1016C000FCCF5090C6005092C60050928B01009102
:1016D000C00007FFFCCF5090C6005092C600509249
:1016E0008C010C94C40CF9E0ECE800C015911230A8
:1016F00039F00091C00005FFFCCF1093C600F6CF73
:101700000091C00007FFFCCF5090C6005092C60069
:1017100050928E010091C00007FFFCCF5090C60090
:101720005092C60050928F010C94C40CF9E0ECE882
:1017300000C01591123039F00091C00005FFFCCFB8
:101740001093C600F6CF0091C00007FFFCCF509069
:10175000C6005092C600509292010091C00007FF4F
:10176000FCCF5090C6005092C600509293010C944A
:10177000C40CF9E0ECE800C01591123039F000918A
:10178000C00005FFFCCF1093C600F6CF0091C0004B
:1017900007FFFCCF5090C6005092C60050929601B1
:1017A0000091C00007FFFCCF5090C6005092C600C9
:1017B000509297010C94C40CF9E0ECE800C015912C
:1017C000123039F00091C00005FFFCCF1093C60025
:1017D000F6CF0091C00007FFFCCF5090C60050929A
:1017E000C60050929A010091C00007FFFCCF5090B4
:1017F000C6005092C60050929B01F9E0ECE800C090
:101800001591123039F00091C00005FFFCCF109304
:10181000C600F6CF0091C00007FFFCCF5090C60075
:101820005092C6005092A0010091C00007FFFCCF6B
:101830005090C6005092C600F3E05092A101F9E02A
:10184000ECE800C01591123039F00091C00005FF9E
:10185000FCCF1093C600F6CF0091C00007FFFCCF6D
:101860005090C6005092C6005092A4010091C00052
:1018700007FFFCCF5090C6005092C6005092A501C1
:101880000091C00007FFFCCF5090C6005092C600E8
:101890005092A6010091C00007FFFCCF5090C600F7
:1018A0005092C6005092A7010C94C40CF9E0ECE8E9
:1018B00000C01591123039F00091C00005FFFCCF37
:1018C0001093C600F6CF0091C00007FFFCCF5090E8
:1018D000C6005092C6005092AA010091C00007FFB6
:1018E000FCCF5090C6005092C6005092AB010091C0
:1018F000C00007FFFCCF5090C6005092C600509227
:10190000AC010091C00007FFFCCF5090C600509280
:10191000C6005092AD010C94C40CF9E0ECE800C094
:101920001591123039F00091C00005FFC5CF10931A
:10193000C600F6CF0091C00007FFFCCF5090C60054
:101940005092C600509200010091C00007FFFCCFEA
:101950005090C6005092C600509201010091C00004
:1019600007FFFCCF5090C6005092C6005092020173
:101970000091C00007FFFCCF5090C6005092C600F7
:10198000509203010C94C40CF9E0E6E200C01591FA
:10199000123081F00091C00005FFFCCF1093C6000B
:1019A000F6CF08950091C00007FFFCCF0C94E0072C
:1019B00003CB02CB0091C00007FFFCCF0C94E007E3
:1019C0000C94DC0744E50E94EF090E94960DF1E0BB
:1019D000E0E040814093C6000E94EF09F1E0E1E0C1
:1019E00040814093C6000E94EF094AE30E94EF093C
:1019F000F1E0E2E040814093C6000E94EF09F1E08F
:101A0000E3E040814093C6000E94EF090E94880DE8
:101A100045E50E94EF090E94960DF1E0E9E0408162
:101A20004093C6000E94EF09F1E0EAE04081409354
:101A3000C6000E94EF090E94880D46E50E94EF094A
:101A40000E94960DF1E0EBE040814093C6000E94B9
:101A5000EF09F1E0ECE040814093C6000E94EF09FD
:101A60000E94880D47E50E94EF090E94960DF1E063
:101A7000EDE040814093C6000E94EF09F1E0EEE006
:101A800040814093C6000E94EF090E94880D48E5FE
:101A90000E94EF090E94960DF1E0E1E14081409340
:101AA000C6000E94EF09F1E0E2E140814093C600E8
:101AB0000E94EF090E94880D49E50E94EF090E94EB
:101AC000960DF1E0E3E140814093C6000E94EF09EA
:101AD000F1E0E4E140814093C6000E94EF090E94DA
:101AE000880D4AE50E94EF090E94960DF1E0EFE0B3
:101AF00040814093C6000E94EF09F1E0E0E140819F
:101B00004093C6000E94EF090E94880D4CE308959F
:101B100040E20E94EF0940E20E94EF0908954DE083
:101B20000E94EF094AE00E94EF0908954FE50E94E4
:101B3000EF09089540E30E94EF09089508E00EBF01
:101B40000FEF0DBF0FEF0CE10093C10004E0009315
:101B5000C20007E60093C40000E400937C0006EA9C
:101B600000937A0041E340936A0142E3F1E0EBE63F
:101B7000408343E3F1E0EDE6408348E3F1E0EEE645
:101B8000408341E3F1E0E0E7408348E3F1E0E1E74F
:101B90004083789404CA0C94CE0D1895F1E0E8E0E7
:101BA0000081039500830A3009F0189500E0008356
:101BB000F1E0E7E0008103950083053009F0189516
:101BC00000E00083F1E0E6E00081093319F00395BD
:101BD0000083189500E30083F1E0E5E0008106331F
:101BE00019F003950083189500E30083F1E0E3E02A
:101BF000008309330081039509F0189500E3008301
:101C0000F1E0E2E000810083063311F003951895BE
:101C100000E3F1E0E1E000810A3019F00395008370
:101C20001895F1E0E0E02081223319F0239520831C
:101C30001895043009F01895F1E0E0E000E3008326
:021C4000089505
:100000000C949E0D0C94CB0D0C94CD0D0C94CD0D39
:100010000C94CD0D0C94CD0D0C94CD0D0C94CD0DF8
:100020000C94CD0D0C94CD0D0C94CD0D0C94CD0DE8
:100030000C94CD0D0C94CD0D0C94CD0D0C94CD0DD8
:100040000C94CD0D0C94CD0D0C94CD0D0C94CD0DC8
:100050000C94CD0D0C94CD0D0C94CD0D0C94CD0DB8
:080060000C94CD0D0C94CD0DA4
:00000001FF
