:020000020000FC
:100000000C9487110C9487120C9483120C94871211
:100010000C9484120C9484120C9484120C94841208
:100020000C9484120C9484120C9484120C948412F8
:100030000C9484120C9484120C9484120C948412E8
:100040000C9484120C9484120C9484120C948412D8
:100050000C9484120C9484120C9484120C948412C8
:080060000C9485120C94861229
:1002A0000A2A2A2A3E3E3E53656C656363696F6E77
:1002B00065206C6120616363696F6E2061207265E7
:1002C000616C697A61723C3C3C202A2A2A0A0A3114
:1002D0002D4D6F73747261722056616C6F7265730D
:1002E0002E2E2E0D0A20322D436F6E6669677572B1
:1002F00061722056616C6F7265732E2E2E0D0A335B
:100300002D4461746F732044656C2070726F796541
:1003100063746F2E2E2E20020A2A2A2A204D45446D
:100320004943494F4E4553202A2A2A0A3C20427508
:10033000737175652063616461206D6564696369CB
:100340006F6E20736567756E207375204C657472CF
:100350006120203E486F7261206465206C617320CB
:100360006D65646963696F6E65733A20542020542B
:10037000656D70657261747572612045787465721F
:10038000696F723A20550D0A2054656D706572616F
:1003900074757261204C6976696E672F436F6D6565
:1003A000646F722F436F63696E613A20562020207C
:1003B0002054656D706572617475726120446F724E
:1003C0006D69746F72696F3A2057200D0A204C7561
:1003D0007A20446F726D69746F72696F3A20205889
:1003E00020204C757A204578746572696F723A20C6
:1003F000205920204C757A204C6976696E672F430E
:100400006F63696E612F436F6D65646F723A202070
:100410005A200D0A09312D52656672657363617247
:1004200061722056616C6F7265732E2E2E20352DF1
:10043000564F4C56455220414C204D454E5520417B
:100440004E544552494F52200D0A56414C4F524589
:1004500053203E020A414456455254454E434941B9
:10046000210A20534920564120412043414D424911
:10047000415220414C474F2054454E474120454C66
:10048000204355494441444F204445204841434579
:10049000524C4F20444520464F524D4120434F4837
:1004A0004552454E54452C200D0A54454E49454E63
:1004B000444F20454E204355454E5441205155450B
:1004C0003A204C412054454D5045524154555241DB
:1004D000204D494E494D41204120494E47524553F8
:1004E0004152204553203030202A46202059204CAC
:1004F00041204D4158494D41203939202A463B2061
:100500004C415320484F5241532056414E204445C0
:10051000203030204120323420484F524153454E44
:10052000204355414E544F204C4F53204C55584F6B
:100530004D4554524F532C2053552050524543495A
:1005400053494F4E204553204445203130204C55CF
:100550005845532C20504F52204C4F205155452088
:10056000534F4C4F20534520434F4E464947555219
:10057000414E20444520313020454E204449455AC3
:100580002C0D0A00205349454E444F20454C20561F
:10059000414C4F52204D494E494D4F203031302073
:1005A0004C757873205920454C204D4158494D4F8A
:1005B00020363430204C7578732C286573746F2086
:1005C00062617361646F20656E206C61206E6F7272
:1005D0006D61204952414D2D4141444C204A203209
:1005E000302D303629200D0A0D0A2A2A2A2041688A
:1005F0006F72612073692C2073656C656363696F2A
:100600006E6520656C2076616C6F7220612063617D
:100610006D6269617220202A2A2A0D0A54656D7064
:10062000657261747572617320656E2047726164D2
:100630006F732043656E7469677261646F73200D18
:100640000A00412D54656D70657261747572612088
:100650004578746572696F72204D696E696D6120AD
:100660000D0A422D54656D7065726174757261205A
:100670004578746572696F72204D6178696D61208B
:100680000D0A432D54656D70657261747572612039
:100690004C6976696E672F436F6D65646F722F4387
:1006A0006F63696E61204D696E696D610D0A442D3D
:1006B00054656D7065726174757261204C697669FC
:1006C0006E672F436F6D65646F722F436F63696E42
:1006D00061204D6178696D610D0A452D54656D701D
:1006E00065726174757261204C6976696E672F431B
:1006F0006F6D65646F722F436F63696E612064650F
:100700007365616461200D0A462D486973746572D2
:1007100069736973206465206C612074656D706510
:100720007261747572612064656C204C6976696EC3
:10073000672F436F6D65646F722F436F63696E61DE
:100740003A000D0A472D54656D70657261747572BB
:100750006120446F726D69746F72696F204D6178AA
:10076000696D61200D0A482D54656D706572617464
:1007700075726120446F726D69746F72696F204D7C
:10078000696E696D61200D0A492D54656D70657241
:10079000617475726120446F726D69746F72696FF4
:1007A00020446573656164610D0A4A2D486973745C
:1007B000657269736973206465206C612074656D6E
:1007C00070657261747572612064656C20446F722B
:1007D0006D69746F72696F200D0A4C7563657320C3
:1007E000656E204C7578733A0D0A4B2D4C757A2046
:1007F0004578746572696F72204D696E696D61200C
:100800000D0A4D2D56616C6F7220646573656164CD
:100810006F206465206C6120496C756D696E616341
:10082000696F6E2064656C20646F726D69746F729D
:10083000696F0D0A4C2D4869737465726973697329
:10084000206465206C61206C757A2064656C20647E
:100850006F726D69746F72696F000D0A4F2D56616A
:100860006C6F72206465736561646F206465206CD1
:100870006120496C756D696E6163696F6E20646596
:100880006C204C6976696E672F436F6D65646F727B
:100890002F436F63696E61200D0A502D4869737490
:1008A000657269736973206465206C61206C757A68
:1008B0002064656C204C6976696E672F436F6D65A7
:1008C000646F722F436F63696E610D0A45737175B2
:1008D000656D6120686F726172696F3A0D0A512D02
:1008E000486F726120646520496E6963696F206496
:1008F000656C204469610D0A522D486F7261206455
:10090000652046696E2064656C20446961200D0A8B
:10091000532D436F6E6669677572617220486F72FE
:10092000612041637475616C2F41637475616C69FA
:100930007A61722052656C6F6A200D0A352D564F10
:100940004C56455220414C204D454E5520414E5469
:100950004552494F52200D0A56616C6F72657320E3
:1009600041637475616C65733A2028536567756ED1
:100970002063616461206C6574726129200220200B
:1009800043616D626961646F212044657365612014
:1009900063616D6269617220616C676F206D617364
:1009A0003F0D0A352D4E4F2C20566F6C7665722008
:1009B000416C206D656E75207072696E636970613F
:1009C0006C0D0A322D53692C20766F6C766572207F
:1009D000616C206D656E7520616E746572696F72F1
:1009E000200D0A02496E677265736520656C206E82
:1009F0007565766F2076616C6F723A090200094561
:100A0000786973746520756E6120636F6E666967BF
:100A10007572616369F36E206E6F2076E16C6964B4
:100A2000612E204E4F20534520454A4543555441A1
:100A300052C1204E4144410909506F7220666176CF
:100A40006F722C20696E677265736520756E612008
:100A5000636F6E6669677572616369F36E2076E134
:100A60006C696461206F207265696E6963696509EC
:100A700002000D0A0D0A0D0A20202020202020202F
:100A80002020202020202020202020202020202066
:100A90002020202020202020202020202020202056
:100AA00020202020205F5F5F5F7C7C5F5F5F5F0DA9
:100AB0000A00444F4D4F5449434120444520444F80
:100AC0005320414D4249454E5445533A2020202061
:100AD00020202020202020202020202020202F2FF8
:100AE0002F2F2F2F2F2F2F2F2F5C0D0A20457320F4
:100AF000756E2070726F796563746F2C20656E203F
:100B000071756520636F6E20736520636F6E7472FC
:100B10006F6C616E2020202F2F2F2F2F2F2F2F2F24
:100B20002F2F20205C0D0A002020202020206C7513
:100B30007A20792074656D706572617475726120B8
:100B4000646520646F7320616D6269656E7465739E
:100B50002C20207C202020205F202020207C202092
:100B60007C0D0A002020656C20646F726D69746FC3
:100B700072696F207920656C206C6976696E672FC9
:100B80002020202020202020202020202020207C09
:100B90005B5D207C207C205B5D7C5B5D7C0D0A00C6
:100BA000636F6D65646F722F636F63696E61202080
:100BB0002020202020202020202020202020202035
:100BC00020202020202020202020207C2020207C6D
:100BD000207C2020207C20207C0D0A000D0A0D0A9C
:100BE0000D0A20202020202020202020202020202E
:100BF00020202020202020202020202020202020F5
:100C00002020202E2A23232323232323232B2020A9
:100C100020200D0A202020202020202020202020FD
:100C200020202020202020202020202020202020C4
:100C3000202020203D40402B2B2B2B2B2B2B2B2DF2
:100C4000202020200D0A20202020202020202020CD
:100C50002020202020202020202020202020202094
:100C6000202020202D25402A2E202020202020203A
:100C7000202020202020200D0A00202020202020BD
:100C80002020202020202020202020202020202064
:100C9000202020202020202D2A2A2D202020202026
:100CA00020202020202020202020200D0A0020208D
:100CB0002020202020202020202020202020202034
:100CC0002E2E2E2E2E2E2E2E2E2E2E2E2E2E202060
:100CD0002020202020202020202020202020200D27
:100CE0000A0020202020202020202020202020203A
:100CF000203A2A4040404040404040404040404030
:100D00004040402A3A20202020202020202020205F
:100D10002020202020200D0A2020202020202020FC
:100D200020202020202020254040404040404040BE
:100D3000404040404040404040402520202020206E
:100D400020202020202020202020484543484F20DC
:100D5000504F523A20464142524943494F20444164
:100D60005649442047414C4C4F20200D0A0020207A
:100D7000202020202020202020202020202A2A2A55
:100D80002A2A2A2A2A2A2A2A2A2A2A2A2A2A2A2AC3
:100D90002A20202020202020202020202020202049
:100DA00020202020200D0A0020202020202020208C
:100DB00020202020202B40404040404040404040E8
:100DC0004040404040404040404040402B20202098
:100DD000202020202020202020202041204D4F4472
:100DE0004F2044452054524142414A4F2046494EEB
:100DF000414C2050415241204C41204341544544F4
:100E000052413A0D0A0020202020202020202020BE
:100E100020203D4040404040404040404040404015
:100E200040404040404040404040403D2020202045
:100E30002020202020202020202053495354454D9D
:100E40004153204449474954414C45532049562079
:100E5000200D0A0020202020202020202020203AC1
:100E60004040404040404040404040404040404082
:100E7000404040404040404040403A202020202018
:100E800020202020202020200D0A2020202020208B
:100E9000202020202023404040404040404040400F
:100EA0004040404040404040404040404040404042
:100EB000232020202020202020202020202020202F
:100EC0000D0A202020202020202020203A404040D1
:100ED0004040404040404040404040404040404012
:100EE0004040404040404040403A202020202020C8
:100EF0002020202020202050524F4645534F52455D
:100F0000533A204C49432E204A554C49414E204DDE
:100F1000494E4154454C200D0A002020202020201D
:100F2000202020203D404040404040404040404044
:100F300040404040404040404040404040404040B1
:100F4000403D090909202020494E472E2056454C96
:100F5000415A5155455A204544554152444F0D0A76
:100F6000202020202020202020203D4040404040C4
:100F70004040404040404040404040404040404071
:100F8000404040404040402D202020202020202074
:100F90002020202020200D0A20202020202020207A
:100FA00020202E4040404040404040404040404093
:100FB0004040404040404040404040404040402E43
:100FC00020202020202020202020202020200D0A4A
:100FD00020202020202020202020202B4040404086
:100FE0004040404040404040404040404040404001
:100FF0004040404040402B20202020202020202026
:10100000202020204349434C4F204C45435449560F
:101010004F203230323320200D0A20202020202083
:101020002020202020202A40404040404040404096
:101030004040404040404040404040404040402AC6
:1010400020202020202020202020202020202020A0
:10105000200D0A00202020202020202020202020D9
:10106000203D4040404040404040404040404040A3
:1010700040404040404040253D202020202020206E
:10108000202020202020202020200D0A2020202089
:10109000202020202020202020202E3D25404040C0
:1010A00040404040404040404040404040253D2E70
:1010B0002020202020202020202020202020202030
:1010C00020200D0A20202020202020202020202049
:1010D00020202020202E2D3D2B2B2B2B2B2B2B2B80
:1010E0002B2B2B3D2D2E20202020202020202020A7
:1010F00020202020202020202020200D0A000D0A62
:101100000D0A0D0A383838202020202038383820A1
:1011100020202020202020643838383820203838FB
:101120003838383838622E20202038383838383867
:1011300038383838202038383838383838622E2057
:1011400020202020203838383838383838383820AF
:10115000202E6438383838622E20205938386220E2
:101160002020643838502038383838383838383803
:1011700038380D0A383838202020202038383820D8
:101180002020202020206438383838382020383873
:101190003820202059383862202038383820202044
:1011A000202020202020383838202020593838624C
:1011B00020202020203838382020202020202020E7
:1011C0006438385020205938386220205938386225
:1011D00020643838502020202020203838380D0A4C
:1011E000383838202020202038383820202020206F
:1011F00020643838503838382020383838202020BB
:10120000203838382020383838202020202020204E
:10121000202038383820202020383838202020203E
:10122000203838382020202020202020383838202E
:101230002020203838382020205938386F3838504E
:10124000202020202020203838380D0A3838382037
:1012500020202020383838202020202064383850A2
:1012600020383838202038383820202020383838A6
:101270002020383838383838382020202020383896
:10128000382020206438385020202020203838385A
:1012900038383838202020203838382020202020A6
:1012A000202020202020593838385020202020208D
:1012B0002020203838380D0A3838382020202020C7
:1012C00038383820202020643838502020383838EA
:1012D000202038383820202020383838202038384E
:1012E0003820202020202020202038383838383856
:1012F000385020202020202020383838202020205E
:101300002020202038383820202020202020202095
:10131000202020383838202020202020202020386D
:1013200038380D0A38383820202020203838382026
:101330002020643838502020203838382020383891
:1013400038202020203838382020383838202020F5
:10135000202020202020383838205438386220209F
:101360002020202020383838202020202020202035
:1013700038383820202020383838202020202038C5
:1013800038382020202020202020203838380D0A0E
:10139000593838622E202E6438385020206438386E
:1013A0003838383838383838202038383820202E27
:1013B0006438385020203838382020202020202041
:1013C000202038383820205438386220202020202F
:1013D000203838382020202020202020593838621A
:1013E0002020643838502020202020383838202011
:1013F000202020202020203838380D0A202059387D
:1014000038383838502020206438385020202020A8
:1014100020383838202038383838383838502020AC
:10142000202038383838383838383838202038389C
:1014300038202020543838622020202020383838A6
:1014400020202020202020202020593838383850D3
:101450002020202020202038383820202020202044
:101460002020203838380D0A0D0A0D0A0D0A090906
:1014700009352D20566F6C76657220416C206D65A4
:101480006E75207072696E636970616C0909090973
:10149000090D0A02F2E0E0EA1591123041F00091E4
:1014A000C00005FFFCCF1093C600F6CF08950C9442
:1014B00023140091C00007FFFCCF2091C600213308
:1014C00069F1223369F1233369F1243369F125335A
:1014D00009F3213459F1223459F1233459F12434D8
:1014E00059F1253459F1263459F1273459F128346A
:1014F00059F1293459F12A3459F12B3459F12D3449
:1015000059F12C3459F12F3459F1213569F1223533
:1015100069F1233569F1203529F1CBCF0C94BC0A50
:101520000C94CE0A0C949E0C0C94CA0A0C94AD0C2C
:101530000C94E00C0C94130D0C94460D0C94790D46
:101540000C94AC0D0C94DF0D0C94120E0C94450E03
:101550000C94760E0C94A70E0C94D80E0C94090FD4
:101560000C943A0F0C946B0F0C949D0F0C94CE0FAF
:101570000C94FF0F0C945D0AF3E0E8E11591123032
:1015800039F00091C00005FFFCCF1093C600F6CFE4
:101590000C945D100C9453100C945410F4E0E4E59A
:1015A0000E94D20A1591123039F00091C00005FF57
:1015B000FCCF1093C600F6CF41E40E94970C0E9426
:1015C0007B11F1E0EAE640814093C6000E94970C4F
:1015D000F1E0EBE640814093C6000E94970C0E9428
:1015E0006D1142E40E94970C0E947B11F1E0EDE640
:1015F00040814093C6000E94970CF1E0EEE64081E6
:101600004093C6000E94970C0E946D1143E40E9413
:10161000970C0E947B11F1E0E0E740814093C60007
:101620000E94970CF1E0E1E740814093C6000E94E0
:10163000970C0E94741144E40E94970C0E947B1145
:10164000F1E0E4E740814093C6000E94970CF1E08E
:10165000E5E740814093C6000E94970C0E946D11FF
:1016600045E40E94970C0E947B11F1E0E8E740817D
:101670004093C6000E94970CF1E0E9E74081409357
:10168000C6000E94970C0E946D1146E40E94970CC0
:101690000E947B11F1E0ECE740814093C6000E947C
:1016A000970CF1E0EDE740814093C6000E94970C53
:1016B0000E946D1147E40E94970C0E947B11F1E09B
:1016C000E0E840814093C6000E94970CF1E0E1E819
:1016D00040814093C6000E94970C0E94741148E418
:1016E0000E94970C0E947B11F1E0E4E84081409356
:1016F000C6000E94970CF1E0E5E840814093C600E7
:101700000E94970C0E946D1149E40E94970C0E9460
:101710007B11F1E0E8E840814093C6000E94970CFD
:10172000F1E0EBE640814093C6000E94970C0E94D6
:101730006D114AE40E94970C0E947B11F1E0EBE8E6
:1017400040814093C6000E94970CF1E0ECE8408194
:101750004093C6000E94970C0E946D114BE40E94BA
:10176000970C0E947B11F1E0EEE840814093C600A7
:101770000E94970CF1E0EFE840814093C6000E9480
:10178000970C0E947F110E9474114DE40E94970CE7
:101790000E947B11F1E0E2E940814093C6000E9483
:1017A000970CF1E0E3E940814093C6000E94970C5A
:1017B0000E947F110E946D114CE40E94970C0E94C0
:1017C0007B11F1E0E6E940814093C6000E94970C4E
:1017D000F1E0E7E940814093C6000E94970C0E9427
:1017E0007F110E946D114FE40E94970C0E947B11A3
:1017F000F1E0EAE940814093C6000E94970CF1E0D5
:10180000EBE940814093C6000E94970C0E947F1133
:101810000E946D1140E50E94970C0E947B11F1E03F
:10182000EEE940814093C6000E94970CF1E0EFE999
:1018300040814093C6000E94970C0E947F110E9435
:101840006D1141E50E94970C0E947B11F1E0E2EAE4
:1018500040814093C6000E94970CF1E0E3EA40818A
:101860004093C6000E94970C4AE30E94970CF1E057
:10187000E6EA40814093C6000E94970CF1E0E7EA57
:1018800040814093C6000E94970C0E946D110E94F7
:101890006D1142E50E94970C0E947B11F1E0EAEA8B
:1018A00040814093C6000E94970CF1E0EBEA408132
:1018B0004093C6000E94970C4AE30E94970CF1E007
:1018C000ECEA40814093C6000E94970CF1E0EDEAFB
:1018D00040814093C6000E94970C0E94741143E51A
:1018E0000E94970C0E947B11F2E0E1E84081409356
:1018F000C6000E94970CF2E0E3E840814093C600E6
:101900000E94970C4AE30E94970CF2E0E5E84081C0
:101910004093C6000E94970CF2E0E6E840814093B5
:10192000C6000E94970C0E946D110C94590A0091F8
:10193000C00005FFFCCF4093C6000895FAE0E2E73F
:101940001591123041F00091C00005FFFCCF1093BB
:10195000C600F6CF08950C945D0AF9E0E4EE00C0ED
:101960001591123039F00091C00005FFFCCF1093A3
:10197000C600F6CF0091C00007FFFCCF5090C60014
:101980005092C600F1E0EAE6508200E3501AEAE025
:101990005E9E502C509281040091C00007FFFCCF46
:1019A0005090C6005092C600F1E0EBE6508200E392
:1019B000501A00918104500E509281040C943F10F3
:1019C000F9E0E4EE00C01591123039F00091C0004A
:1019D00005FFFCCF1093C600F6CF0091C00007FFB3
:1019E000FCCF5090C6005092C600F1E0EDE6508268
:1019F00000E3501AEAE05E9E502C5092830400915E
:101A0000C00007FFFCCF5090C6005092C600F1E026
:101A1000EEE6508200E3501A00918304500E50927B
:101A200083040C943F10F9E0E4EE00C015911230ED
:101A300039F00091C00005FFFCCF1093C600F6CF2F
:101A40000091C00007FFFCCF5090C6005092C60026
:101A5000F1E0E0E7508200E3501AEAE05E9E502C8D
:101A6000509285040091C00007FFFCCF5090C60043
:101A70005092C600F1E0E1E7508200E3501A009175
:101A80008504500E509285040C943F10F9E0E4EE6A
:101A900000C01591123039F00091C00005FFFCCF55
:101AA0001093C600F6CF0091C00007FFFCCF509006
:101AB000C6005092C600F1E0E4E7508200E3501AFD
:101AC000EAE05E9E502C509288040091C00007FF0F
:101AD000FCCF5090C6005092C600F1E0E5E750827E
:101AE00000E3501A00918804500E509288040C9420
:101AF0003F10F9E0E4EE00C01591123039F000918A
:101B0000C00005FFFCCF1093C600F6CF0091C000C7
:101B100007FFFCCF5090C6005092C600F1E0E8E706
:101B2000508200E3501AEAE05E9E502C50928B04E3
:101B30000091C00007FFFCCF5090C6005092C60035
:101B4000F1E0E9E7508200E3501A00918E04500E54
:101B500050928E040C943F10F9E0E4EE00C0159111
:101B6000123039F00091C00005FFFCCF1093C60081
:101B7000F6CF0091C00007FFFCCF5090C6005092F6
:101B8000C600F1E0ECE7508200E3501AEAE05E9E06
:101B9000502C50928E040091C00007FFFCCF509053
:101BA000C6005092C600F1E0EDE7508200E3501A03
:101BB00000918E04500E50928E040C943F10F9E068
:101BC000E4EE00C01591123039F00091C00005FF1D
:101BD000FCCF1093C600F6CF0091C00007FFFCCFEA
:101BE0005090C6005092C600F1E0E0E8508200E359
:101BF000501AEAE05E9E502C509291040091C00071
:101C000007FFFCCF5090C6005092C600F1E0E1E81B
:101C1000508200E3501A00919104500E50929104AA
:101C20000C943F10F9E0E4EE00C01591123039F049
:101C30000091C00005FFFCCF1093C600F6CF0091C5
:101C4000C00007FFFCCF5090C6005092C600F1E0E4
:101C5000E4E8508200E3501AEAE05E9E502C509275
:101C600094040091C00007FFFCCF5090C600509232
:101C7000C600F1E0E5E8508200E3501A00919404B8
:101C8000500E509294040C943F10F9E0E4EE00C022
:101C90001591123039F00091C00005FFFCCF109370
:101CA000C600F6CF0091C00007FFFCCF5090C600E1
:101CB0005092C6005092880100E3501AEAE05E9EFE
:101CC000502C509297040091C00007FFFCCF509019
:101CD000C6005092C6005092890100E3501A00914C
:101CE0009704500E509297040C943F10F9E0E4EEE4
:101CF00000C01591123039F00091C00005FFFCCFF3
:101D00001093C600F6CF0091C00007FFFCCF5090A3
:101D1000C6005092C60050928B0100E3501AEAE0D0
:101D20005E9E502C509299040091C00007FFFCCF9A
:101D30005090C6005092C60050928C0100E3501A99
:101D400000919904500E509299040C943F10F9E0C0
:101D5000E4EE00C01591123039F00091C00005FF8B
:101D6000FCCF1093C600F6CF0091C00007FFFCCF58
:101D70005090C6005092C60050928E0100E3501A57
:101D8000EAE05E9E502C50929B040091C00007FF39
:101D9000FCCF5090C6005092C60050928F0100E3D5
:101DA000501A00919B04500E50929B040C943F10CB
:101DB000F9E0E4EE00C01591123039F00091C00056
:101DC00005FFFCCF1093C600F6CF0091C00007FFBF
:101DD000FCCF5090C6005092C6005092920100E392
:101DE000501AEAE05E9E502C50929E040091C00072
:101DF00007FFFCCF5090C6005092C600509293014E
:101E000000E3501A00919E04500E50929E040C94D0
:101E10003F10F9E0E4EE00C01591123039F0009166
:101E2000C00005FFFCCF1093C600F6CF0091C000A4
:101E300007FFFCCF5090C6005092C600509296010A
:101E400000E3501AEAE05E9E502C5092A1040091EB
:101E5000C00007FFFCCF5090C6005092C6005092C1
:101E6000970100E3501A0091A104500E5092A10472
:101E70000C943F10F9E0E4EE00C01591123039F0F7
:101E80000091C00005FFFCCF1093C600F6CF009173
:101E9000C00007FFFCCF5090C6005092C600509281
:101EA0009A0100E3501AEAE05E9E502C5092A4047E
:101EB0000091C00007FFFCCF5090C6005092C600B2
:101EC00050929B0100E3501A0091A404500E5092CE
:101ED000A4040C945D0AF9E0E4EE00C01591123000
:101EE00039F00091C00005FFFCCF1093C600F6CF7B
:101EF0000091C00007FFFCCF5090C6005092C60072
:101F000050929E0100E3501AEAE05E9E502C5092DF
:101F1000A7040091C00007FFFCCF5090C60050926C
:101F2000C600F3E050929F0100E3501A0091A7040D
:101F3000500E5092A7040C943F10F9E0E4EE00C05C
:101F40001591123039F00091C00005FFFCCF1093BD
:101F5000C600F6CF0091C00007FFFCCF5090C6002E
:101F60005092C6005092A20100E3501AEAE05E9E31
:101F7000502C5092AA040091C00007FFFCCF509053
:101F8000C6005092C6005092A30100E3501A00917F
:101F9000AA04500E5092AA040C943F10F9E0E4EE0B
:101FA00000C01591123039F00091C00005FFFCCF40
:101FB0001093C600F6CF0091C00007FFFCCF5090F1
:101FC000C6005092C6005092AA0100E3501AEAE0FF
:101FD0005E9E502C5092AD040091C00007FFFCCFD4
:101FE0005090C6005092C6005092AB0100E3501AC8
:101FF0000091AD04500E5092AD040C943F10F9E0E6
:10200000E4EE00C01591123039F00091C00005FFD8
:10201000FCCF1093C600F6CF0091C00007FFFCCFA5
:102020005090C6005092C600509281020AE0509E25
:10203000109282020091C00007FFFCCF5090C600B2
:102040005092C6005092830200918202050D0093C7
:1020500082020091C00007FFFCCF5090C600509252
:10206000C600509285020091C00007FFFCCF50903F
:10207000C6005092C600509286020C943F10F9E0C0
:10208000EEE700C01591123081F00091C00005FF0D
:10209000FCCF1093C600F6CF08950091C00007FF53
:1020A000FCCF0C945D0A05CA04CA0091C00007FF6A
:1020B000FCCF0C945D0A0C94590A44E50E94970CDD
:1020C0000E947B11F2E0E1E840814093C6000E944B
:1020D000970CF2E0E3E840814093C6000E94970C21
:1020E0004AE30E94970CF2E0E5E840814093C60085
:1020F0000E94970CF2E0E6E840814093C6000E94FF
:10210000970C0E946D110E94741145E50E94970C76
:102110000E947B11F2E0EBE840814093C6000E94F0
:10212000970CF2E0ECE840814093C6000E94970CC7
:10213000F2E0EDE840814093C6000E94970C0E94B7
:102140008311F2E0EEE840814093C6000E94970CB4
:102150000E946D110E94741146E50E94970C0E9426
:102160007B11F2E0E4E940814093C6000E94970CA5
:10217000F2E0E5E940814093C6000E94970CF2E04E
:10218000E6E940814093C6000E94970C0E948311AB
:10219000F2E0E7E940814093C6000E94970C0E945C
:1021A0006D110E94741147E50E94970C0E947B11EB
:1021B000F2E0EDE940814093C6000E94970CF2E006
:1021C000EEE940814093C6000E94970CF2E0EFE9EF
:1021D00040814093C6000E94970C0E948311F2E058
:1021E000E0EA40814093C6000E94970C0E9474115F
:1021F00048E50E94970C0E947B11F2E0EEEA4191C3
:102200004093C6000E94970C40814093C6000E94F4
:10221000970CF2E0E0EB40814093C6000E94970CDF
:10222000F2E0E1EB40814093C6000E94970C0E94CF
:102230007F110E946D110E94741149E50E94970C54
:102240000E947B11F2E0E7EB40814093C6000E94C0
:10225000970CF2E0E8EB40814093C6000E94970C97
:10226000F2E0E9EB40814093C6000E94970CF2E057
:10227000EAEB40814093C6000E94970C0E947F11B8
:102280000E946D110E9474114AE50E94970C0E94F1
:102290007B11F2E0E5EA40814093C6000E94970C72
:1022A000F2E0E6EA40814093C6000E94970CF2E01B
:1022B000E7EA40814093C6000E94970CF2E0E8EA0A
:1022C00040814093C6000E94970C0E947F110E949B
:1022D0006D110C945D0A4CE3089540E20E94970C46
:1022E00040E20E94970C08954DE00E94970C4AE04E
:1022F0000E94970C08954FE50E94970C089540E3C3
:102300000E94970C08954CE20E94970C089550E0AB
:10231000E0E008E00EBF0FEF0DBF0FEF0CE1009300
:10232000C10004E00093C20007E60093C40000E689
:1023300000937C0007E800937A0000E007B90E9450
:10234000AF11F2E0E1E838E20E947B120FEF04B92E
:1023500003E00093690001E00DBB78949BC841E362
:1023600040936A0140E3F1E0EBE640830AE000932A
:10237000810443E3F1E0EDE6408342E3F1E0EEE681
:10238000408300E20093830441E3F1E0E0E740830F
:1023900048E3F1E0E1E7408302E10093850442E392
:1023A000F1E0E4E7408346E3F1E0E5E740830AE15A
:1023B00000938804E0E042E3F1E0E8E7408344E38F
:1023C000F1E0E9E7408308E100938B0440E3F1E0AA
:1023D000ECE7408341E3F1E0EDE7408301E0009367
:1023E0008E0442E3F1E0E0E8408346E3F1E0E1E817
:1023F00040830AE10093910441E3F1E0E4E8408383
:1024000048E3F1E0E5E8408302E10093940442E30D
:10241000F1E0E8E8408344E3F1E0E9E8408308E1E3
:102420000093970440E3F1E0EBE8408341E3F1E0FF
:10243000ECE8408301E00093990440E3F1E0EEE82A
:10244000408341E3F1E0EFE8408301E000939B0427
:1024500045E3F1E0E2E9408340E3F1E0E3E9408372
:1024600005E000939E0440E3F1E0E6E9408341E3A8
:10247000F1E0E7E9408301E00093A10445E3F1E0E6
:10248000EAE9408340E3F1E0EBE9408302E30093B3
:10249000A40440E3F1E0EEE9408347E3F1E0EFE933
:1024A000408307E00093A70440E3F1E0E2EA4083C1
:1024B00046E3F1E0E3EA408340E3F1E0E6EA40830B
:1024C00040E3F1E0E7EA408306E00093AA0441E339
:1024D000F1E0EAEA408349E3F1E0EBEA408340E3DC
:1024E000F1E0ECEA408340E3F1E0EDEA408303E110
:1024F0000093AD040895303029F040E34083E39524
:102500003A95F9CF089518951895189518959F93B1
:10251000CF920F931F932F933F934F93EF93FF937C
:102520001FB71F93109180021395123341F010933F
:102530008002183211F00C94EF120C94EF120E94EA
:10254000FB1210E0109380021091890213951C3346
:1025500021F0109389020C94EF1210E0109389027D
:10256000109186021395193321F0109386020C9472
:10257000EF1210E31093860210918502153329F0B3
:102580001395109385020C94EF1210E310938502BB
:102590001091820213951831A8F4109382021091C1
:1025A0008302193329F01395109383020C94EF12D0
:1025B00010E310938302109181021395109381020E
:1025C0000C94EF121091830210E31093830210E336
:1025D0001093810210E0109382020C94EF121F916D
:1025E0001FBFFF91EF914F913F912F911F910F913D
:1025F000CF909F91189500E600937C000E945014A4
:1026000060938B0250938C0240938D0220938E0234
:102610003093200401E600937C000E9450146093E4
:102620009402509395024093960220939702309320
:10263000220402E600937C000E94501460939D02E5
:1026400050939E0240939F022093A0023093240453
:1026500003E600937C000E9450146093A5025093FF
:10266000A6024093A7022093A8023093290404E60F
:1026700000937C000E9450146093AE025093AF020E
:102680004093B0022093B10230932F0402E30093F1
:102690007C000E9450146093B7025093B80240939C
:1026A000B9022093BA0230933504089510E02081D6
:1026B000E3953081E3954081213331F0223309F0F5
:1026C000089508EC100F03C004E6100F00C031336A
:1026D000A1F03233A9F03333B1F03433B9F03533EC
:1026E000C1F03633C9F03733D1F03833D9F039334C
:1026F00009F008950AE5100F18C00AE0100F15C080
:1027000004E1100F12C00EE1100F0FC008E2100F0D
:102710000CC002E3100F09C00CE3100F06C006E462
:10272000100F03C000E5100F00C04133A1F0423389
:10273000A9F04333B1F04433B9F04533C1F0463327
:10274000C9F04733D1F04833D9F0493309F008953F
:1027500009E0100F089501E0100F089502E0100F36
:10276000089503E0100F089504E0100F089505E0A8
:10277000100F089506E0100F089507E0100F089558
:1027800005E0100F08953081E395408190E03133EA
:10279000A1F03233A9F03333B1F03433B9F035332B
:1027A000C1F03633C9F03733D1F03833D9F039338B
:1027B00009F008959AE5100F18C00AE0900F15C0AF
:1027C00004E1900F12C00EE1900F0FC008E2900FCD
:1027D0000CC002E3900F09C00CE3900F06C006E4A2
:1027E000900F03C000E5900F00C04133A1F04233C9
:1027F000A9F04333B1F04433B9F04533C1F0463367
:10280000C9F04733D1F04833D9F0493309F008957E
:1028100009E0900F089501E0900F089502E0900FF5
:10282000089503E0900F089504E0900F089505E0E7
:10283000900F089506E0900F089507E0900F089517
:1028400005E0900F08955F92CF920F931F932F93FF
:102850003F934F93EF93FF931FB71F931F911FBF9A
:10286000FF91EF914F913F912F910F91CF905F90FA
:102870000C94590A5F92CF920F931F932F933F931B
:102880004F93EF93FF931FB71F931F911FBFFF91AC
:10289000EF914F913F912F910F91CF905F900895BD
:1028A00040E050E060E020E000E007B900C00E9496
:1028B0008C140E949314209178003091790040E0AC
:1028C00050E060E0032F0E946A1410E3410F510FA3
:1028D000610F0895043618F063950456FBCF0A3053
:1028E00018F053950A50FBCF013018F04395015072
:1028F000FBCF00C0203C41F0203841F0203441F0B3
:10290000203041F00C944A0A27E3089525E3089506
:1029100022E3089520E3089500E410917A00102B3B
:1029200010937A00089510917A0014FF0C94931478
:0E29300000E110917A00102B10937A000895A8
:00000001FF
